{
	"compilerInput": "{\"language\":\"Solidity\",\"sources\":{\"contracts/HelloWorld1.sol\":{\"content\":\"// SPDX-License-Identifier: MIT\\npragma solidity >=0.6.12 <0.9.0;\\n\\ncontract ArithmeticOperations {\\n    // Function to add two numbers\\n    function add(uint256 a, uint256 b) public pure returns (uint256) {\\n        return a + b;\\n    }\\n    \\n    // Function to subtract two numbers\\n    function subtract(uint256 a, uint256 b) public pure returns (uint256) {\\n        require(a >= b, \\\"Subtraction result cannot be negative\\\");\\n        return a - b;\\n    }\\n    \\n    // Function to multiply two numbers\\n    function multiply(uint256 a, uint256 b) public pure returns (uint256) {\\n        return a * b;\\n    }\\n    \\n    // Function to divide two numbers\\n    function divide(uint256 a, uint256 b) public pure returns (uint256) {\\n        require(b != 0, \\\"Division by zero\\\");\\n        return a / b;\\n    }\\n    \\n    // Function to calculate the remainder of division\\n    function modulo(uint256 a, uint256 b) public pure returns (uint256) {\\n        require(b != 0, \\\"Modulo by zero\\\");\\n        return a % b;\\n    }\\n}\\n\"}},\"settings\":{\"optimizer\":{\"enabled\":false,\"runs\":200},\"outputSelection\":{\"*\":{\"\":[\"ast\"],\"*\":[\"abi\",\"metadata\",\"devdoc\",\"userdoc\",\"storageLayout\",\"evm.legacyAssembly\",\"evm.bytecode\",\"evm.deployedBytecode\",\"evm.methodIdentifiers\",\"evm.gasEstimates\",\"evm.assembly\"]}},\"remappings\":[]}}",
	"name": "ArithmeticOperations",
	"bytecode": {
		"linkReferences": {},
		"object": "6080604052348015600e575f80fd5b5061061b8061001c5f395ff3fe608060405234801561000f575f80fd5b5060043610610055575f3560e01c8063165c4a16146100595780633ef5e44514610089578063771602f7146100b9578063baaf073d146100e9578063f88e9fbf14610119575b5f80fd5b610073600480360381019061006e91906102b0565b610149565b60405161008091906102fd565b60405180910390f35b6100a3600480360381019061009e91906102b0565b61015e565b6040516100b091906102fd565b60405180910390f35b6100d360048036038101906100ce91906102b0565b6101b6565b6040516100e091906102fd565b60405180910390f35b61010360048036038101906100fe91906102b0565b6101cb565b60405161011091906102fd565b60405180910390f35b610133600480360381019061012e91906102b0565b610222565b60405161014091906102fd565b60405180910390f35b5f81836101569190610343565b905092915050565b5f818310156101a2576040517f08c379a000000000000000000000000000000000000000000000000000000000815260040161019990610404565b60405180910390fd5b81836101ae9190610422565b905092915050565b5f81836101c39190610455565b905092915050565b5f80820361020e576040517f08c379a0000000000000000000000000000000000000000000000000000000008152600401610205906104d2565b60405180910390fd5b818361021a919061051d565b905092915050565b5f808203610265576040517f08c379a000000000000000000000000000000000000000000000000000000000815260040161025c90610597565b60405180910390fd5b818361027191906105b5565b905092915050565b5f80fd5b5f819050919050565b61028f8161027d565b8114610299575f80fd5b50565b5f813590506102aa81610286565b92915050565b5f80604083850312156102c6576102c5610279565b5b5f6102d38582860161029c565b92505060206102e48582860161029c565b9150509250929050565b6102f78161027d565b82525050565b5f6020820190506103105f8301846102ee565b92915050565b7f4e487b71000000000000000000000000000000000000000000000000000000005f52601160045260245ffd5b5f61034d8261027d565b91506103588361027d565b92508282026103668161027d565b9150828204841483151761037d5761037c610316565b5b5092915050565b5f82825260208201905092915050565b7f5375627472616374696f6e20726573756c742063616e6e6f74206265206e65675f8201527f6174697665000000000000000000000000000000000000000000000000000000602082015250565b5f6103ee602583610384565b91506103f982610394565b604082019050919050565b5f6020820190508181035f83015261041b816103e2565b9050919050565b5f61042c8261027d565b91506104378361027d565b925082820390508181111561044f5761044e610316565b5b92915050565b5f61045f8261027d565b915061046a8361027d565b925082820190508082111561048257610481610316565b5b92915050565b7f4d6f64756c6f206279207a65726f0000000000000000000000000000000000005f82015250565b5f6104bc600e83610384565b91506104c782610488565b602082019050919050565b5f6020820190508181035f8301526104e9816104b0565b9050919050565b7f4e487b71000000000000000000000000000000000000000000000000000000005f52601260045260245ffd5b5f6105278261027d565b91506105328361027d565b925082610542576105416104f0565b5b828206905092915050565b7f4469766973696f6e206279207a65726f000000000000000000000000000000005f82015250565b5f610581601083610384565b915061058c8261054d565b602082019050919050565b5f6020820190508181035f8301526105ae81610575565b9050919050565b5f6105bf8261027d565b91506105ca8361027d565b9250826105da576105d96104f0565b5b82820490509291505056fea2646970667358221220483967311d07b7f0a88e7e0d1e4bcfcbf3429e1ba841c341b06f503c9b51644664736f6c63430008190033",
		"opcodes": "PUSH1 0x80 PUSH1 0x40 MSTORE CALLVALUE DUP1 ISZERO PUSH1 0xE JUMPI PUSH0 DUP1 REVERT JUMPDEST POP PUSH2 0x61B DUP1 PUSH2 0x1C PUSH0 CODECOPY PUSH0 RETURN INVALID PUSH1 0x80 PUSH1 0x40 MSTORE CALLVALUE DUP1 ISZERO PUSH2 0xF JUMPI PUSH0 DUP1 REVERT JUMPDEST POP PUSH1 0x4 CALLDATASIZE LT PUSH2 0x55 JUMPI PUSH0 CALLDATALOAD PUSH1 0xE0 SHR DUP1 PUSH4 0x165C4A16 EQ PUSH2 0x59 JUMPI DUP1 PUSH4 0x3EF5E445 EQ PUSH2 0x89 JUMPI DUP1 PUSH4 0x771602F7 EQ PUSH2 0xB9 JUMPI DUP1 PUSH4 0xBAAF073D EQ PUSH2 0xE9 JUMPI DUP1 PUSH4 0xF88E9FBF EQ PUSH2 0x119 JUMPI JUMPDEST PUSH0 DUP1 REVERT JUMPDEST PUSH2 0x73 PUSH1 0x4 DUP1 CALLDATASIZE SUB DUP2 ADD SWAP1 PUSH2 0x6E SWAP2 SWAP1 PUSH2 0x2B0 JUMP JUMPDEST PUSH2 0x149 JUMP JUMPDEST PUSH1 0x40 MLOAD PUSH2 0x80 SWAP2 SWAP1 PUSH2 0x2FD JUMP JUMPDEST PUSH1 0x40 MLOAD DUP1 SWAP2 SUB SWAP1 RETURN JUMPDEST PUSH2 0xA3 PUSH1 0x4 DUP1 CALLDATASIZE SUB DUP2 ADD SWAP1 PUSH2 0x9E SWAP2 SWAP1 PUSH2 0x2B0 JUMP JUMPDEST PUSH2 0x15E JUMP JUMPDEST PUSH1 0x40 MLOAD PUSH2 0xB0 SWAP2 SWAP1 PUSH2 0x2FD JUMP JUMPDEST PUSH1 0x40 MLOAD DUP1 SWAP2 SUB SWAP1 RETURN JUMPDEST PUSH2 0xD3 PUSH1 0x4 DUP1 CALLDATASIZE SUB DUP2 ADD SWAP1 PUSH2 0xCE SWAP2 SWAP1 PUSH2 0x2B0 JUMP JUMPDEST PUSH2 0x1B6 JUMP JUMPDEST PUSH1 0x40 MLOAD PUSH2 0xE0 SWAP2 SWAP1 PUSH2 0x2FD JUMP JUMPDEST PUSH1 0x40 MLOAD DUP1 SWAP2 SUB SWAP1 RETURN JUMPDEST PUSH2 0x103 PUSH1 0x4 DUP1 CALLDATASIZE SUB DUP2 ADD SWAP1 PUSH2 0xFE SWAP2 SWAP1 PUSH2 0x2B0 JUMP JUMPDEST PUSH2 0x1CB JUMP JUMPDEST PUSH1 0x40 MLOAD PUSH2 0x110 SWAP2 SWAP1 PUSH2 0x2FD JUMP JUMPDEST PUSH1 0x40 MLOAD DUP1 SWAP2 SUB SWAP1 RETURN JUMPDEST PUSH2 0x133 PUSH1 0x4 DUP1 CALLDATASIZE SUB DUP2 ADD SWAP1 PUSH2 0x12E SWAP2 SWAP1 PUSH2 0x2B0 JUMP JUMPDEST PUSH2 0x222 JUMP JUMPDEST PUSH1 0x40 MLOAD PUSH2 0x140 SWAP2 SWAP1 PUSH2 0x2FD JUMP JUMPDEST PUSH1 0x40 MLOAD DUP1 SWAP2 SUB SWAP1 RETURN JUMPDEST PUSH0 DUP2 DUP4 PUSH2 0x156 SWAP2 SWAP1 PUSH2 0x343 JUMP JUMPDEST SWAP1 POP SWAP3 SWAP2 POP POP JUMP JUMPDEST PUSH0 DUP2 DUP4 LT ISZERO PUSH2 0x1A2 JUMPI PUSH1 0x40 MLOAD PUSH32 0x8C379A000000000000000000000000000000000000000000000000000000000 DUP2 MSTORE PUSH1 0x4 ADD PUSH2 0x199 SWAP1 PUSH2 0x404 JUMP JUMPDEST PUSH1 0x40 MLOAD DUP1 SWAP2 SUB SWAP1 REVERT JUMPDEST DUP2 DUP4 PUSH2 0x1AE SWAP2 SWAP1 PUSH2 0x422 JUMP JUMPDEST SWAP1 POP SWAP3 SWAP2 POP POP JUMP JUMPDEST PUSH0 DUP2 DUP4 PUSH2 0x1C3 SWAP2 SWAP1 PUSH2 0x455 JUMP JUMPDEST SWAP1 POP SWAP3 SWAP2 POP POP JUMP JUMPDEST PUSH0 DUP1 DUP3 SUB PUSH2 0x20E JUMPI PUSH1 0x40 MLOAD PUSH32 0x8C379A000000000000000000000000000000000000000000000000000000000 DUP2 MSTORE PUSH1 0x4 ADD PUSH2 0x205 SWAP1 PUSH2 0x4D2 JUMP JUMPDEST PUSH1 0x40 MLOAD DUP1 SWAP2 SUB SWAP1 REVERT JUMPDEST DUP2 DUP4 PUSH2 0x21A SWAP2 SWAP1 PUSH2 0x51D JUMP JUMPDEST SWAP1 POP SWAP3 SWAP2 POP POP JUMP JUMPDEST PUSH0 DUP1 DUP3 SUB PUSH2 0x265 JUMPI PUSH1 0x40 MLOAD PUSH32 0x8C379A000000000000000000000000000000000000000000000000000000000 DUP2 MSTORE PUSH1 0x4 ADD PUSH2 0x25C SWAP1 PUSH2 0x597 JUMP JUMPDEST PUSH1 0x40 MLOAD DUP1 SWAP2 SUB SWAP1 REVERT JUMPDEST DUP2 DUP4 PUSH2 0x271 SWAP2 SWAP1 PUSH2 0x5B5 JUMP JUMPDEST SWAP1 POP SWAP3 SWAP2 POP POP JUMP JUMPDEST PUSH0 DUP1 REVERT JUMPDEST PUSH0 DUP2 SWAP1 POP SWAP2 SWAP1 POP JUMP JUMPDEST PUSH2 0x28F DUP2 PUSH2 0x27D JUMP JUMPDEST DUP2 EQ PUSH2 0x299 JUMPI PUSH0 DUP1 REVERT JUMPDEST POP JUMP JUMPDEST PUSH0 DUP2 CALLDATALOAD SWAP1 POP PUSH2 0x2AA DUP2 PUSH2 0x286 JUMP JUMPDEST SWAP3 SWAP2 POP POP JUMP JUMPDEST PUSH0 DUP1 PUSH1 0x40 DUP4 DUP6 SUB SLT ISZERO PUSH2 0x2C6 JUMPI PUSH2 0x2C5 PUSH2 0x279 JUMP JUMPDEST JUMPDEST PUSH0 PUSH2 0x2D3 DUP6 DUP3 DUP7 ADD PUSH2 0x29C JUMP JUMPDEST SWAP3 POP POP PUSH1 0x20 PUSH2 0x2E4 DUP6 DUP3 DUP7 ADD PUSH2 0x29C JUMP JUMPDEST SWAP2 POP POP SWAP3 POP SWAP3 SWAP1 POP JUMP JUMPDEST PUSH2 0x2F7 DUP2 PUSH2 0x27D JUMP JUMPDEST DUP3 MSTORE POP POP JUMP JUMPDEST PUSH0 PUSH1 0x20 DUP3 ADD SWAP1 POP PUSH2 0x310 PUSH0 DUP4 ADD DUP5 PUSH2 0x2EE JUMP JUMPDEST SWAP3 SWAP2 POP POP JUMP JUMPDEST PUSH32 0x4E487B7100000000000000000000000000000000000000000000000000000000 PUSH0 MSTORE PUSH1 0x11 PUSH1 0x4 MSTORE PUSH1 0x24 PUSH0 REVERT JUMPDEST PUSH0 PUSH2 0x34D DUP3 PUSH2 0x27D JUMP JUMPDEST SWAP2 POP PUSH2 0x358 DUP4 PUSH2 0x27D JUMP JUMPDEST SWAP3 POP DUP3 DUP3 MUL PUSH2 0x366 DUP2 PUSH2 0x27D JUMP JUMPDEST SWAP2 POP DUP3 DUP3 DIV DUP5 EQ DUP4 ISZERO OR PUSH2 0x37D JUMPI PUSH2 0x37C PUSH2 0x316 JUMP JUMPDEST JUMPDEST POP SWAP3 SWAP2 POP POP JUMP JUMPDEST PUSH0 DUP3 DUP3 MSTORE PUSH1 0x20 DUP3 ADD SWAP1 POP SWAP3 SWAP2 POP POP JUMP JUMPDEST PUSH32 0x5375627472616374696F6E20726573756C742063616E6E6F74206265206E6567 PUSH0 DUP3 ADD MSTORE PUSH32 0x6174697665000000000000000000000000000000000000000000000000000000 PUSH1 0x20 DUP3 ADD MSTORE POP JUMP JUMPDEST PUSH0 PUSH2 0x3EE PUSH1 0x25 DUP4 PUSH2 0x384 JUMP JUMPDEST SWAP2 POP PUSH2 0x3F9 DUP3 PUSH2 0x394 JUMP JUMPDEST PUSH1 0x40 DUP3 ADD SWAP1 POP SWAP2 SWAP1 POP JUMP JUMPDEST PUSH0 PUSH1 0x20 DUP3 ADD SWAP1 POP DUP2 DUP2 SUB PUSH0 DUP4 ADD MSTORE PUSH2 0x41B DUP2 PUSH2 0x3E2 JUMP JUMPDEST SWAP1 POP SWAP2 SWAP1 POP JUMP JUMPDEST PUSH0 PUSH2 0x42C DUP3 PUSH2 0x27D JUMP JUMPDEST SWAP2 POP PUSH2 0x437 DUP4 PUSH2 0x27D JUMP JUMPDEST SWAP3 POP DUP3 DUP3 SUB SWAP1 POP DUP2 DUP2 GT ISZERO PUSH2 0x44F JUMPI PUSH2 0x44E PUSH2 0x316 JUMP JUMPDEST JUMPDEST SWAP3 SWAP2 POP POP JUMP JUMPDEST PUSH0 PUSH2 0x45F DUP3 PUSH2 0x27D JUMP JUMPDEST SWAP2 POP PUSH2 0x46A DUP4 PUSH2 0x27D JUMP JUMPDEST SWAP3 POP DUP3 DUP3 ADD SWAP1 POP DUP1 DUP3 GT ISZERO PUSH2 0x482 JUMPI PUSH2 0x481 PUSH2 0x316 JUMP JUMPDEST JUMPDEST SWAP3 SWAP2 POP POP JUMP JUMPDEST PUSH32 0x4D6F64756C6F206279207A65726F000000000000000000000000000000000000 PUSH0 DUP3 ADD MSTORE POP JUMP JUMPDEST PUSH0 PUSH2 0x4BC PUSH1 0xE DUP4 PUSH2 0x384 JUMP JUMPDEST SWAP2 POP PUSH2 0x4C7 DUP3 PUSH2 0x488 JUMP JUMPDEST PUSH1 0x20 DUP3 ADD SWAP1 POP SWAP2 SWAP1 POP JUMP JUMPDEST PUSH0 PUSH1 0x20 DUP3 ADD SWAP1 POP DUP2 DUP2 SUB PUSH0 DUP4 ADD MSTORE PUSH2 0x4E9 DUP2 PUSH2 0x4B0 JUMP JUMPDEST SWAP1 POP SWAP2 SWAP1 POP JUMP JUMPDEST PUSH32 0x4E487B7100000000000000000000000000000000000000000000000000000000 PUSH0 MSTORE PUSH1 0x12 PUSH1 0x4 MSTORE PUSH1 0x24 PUSH0 REVERT JUMPDEST PUSH0 PUSH2 0x527 DUP3 PUSH2 0x27D JUMP JUMPDEST SWAP2 POP PUSH2 0x532 DUP4 PUSH2 0x27D JUMP JUMPDEST SWAP3 POP DUP3 PUSH2 0x542 JUMPI PUSH2 0x541 PUSH2 0x4F0 JUMP JUMPDEST JUMPDEST DUP3 DUP3 MOD SWAP1 POP SWAP3 SWAP2 POP POP JUMP JUMPDEST PUSH32 0x4469766973696F6E206279207A65726F00000000000000000000000000000000 PUSH0 DUP3 ADD MSTORE POP JUMP JUMPDEST PUSH0 PUSH2 0x581 PUSH1 0x10 DUP4 PUSH2 0x384 JUMP JUMPDEST SWAP2 POP PUSH2 0x58C DUP3 PUSH2 0x54D JUMP JUMPDEST PUSH1 0x20 DUP3 ADD SWAP1 POP SWAP2 SWAP1 POP JUMP JUMPDEST PUSH0 PUSH1 0x20 DUP3 ADD SWAP1 POP DUP2 DUP2 SUB PUSH0 DUP4 ADD MSTORE PUSH2 0x5AE DUP2 PUSH2 0x575 JUMP JUMPDEST SWAP1 POP SWAP2 SWAP1 POP JUMP JUMPDEST PUSH0 PUSH2 0x5BF DUP3 PUSH2 0x27D JUMP JUMPDEST SWAP2 POP PUSH2 0x5CA DUP4 PUSH2 0x27D JUMP JUMPDEST SWAP3 POP DUP3 PUSH2 0x5DA JUMPI PUSH2 0x5D9 PUSH2 0x4F0 JUMP JUMPDEST JUMPDEST DUP3 DUP3 DIV SWAP1 POP SWAP3 SWAP2 POP POP JUMP INVALID LOG2 PUSH5 0x6970667358 0x22 SLT KECCAK256 BASEFEE CODECOPY PUSH8 0x311D07B7F0A88E7E 0xD 0x1E 0x4B 0xCF 0xCB RETURN TIMESTAMP SWAP15 SHL 0xA8 COINBASE 0xC3 COINBASE 0xB0 PUSH16 0x503C9B51644664736F6C634300081900 CALLER "
	},
	"abi": [
		{
			"inputs": [
				{
					"internalType": "uint256",
					"name": "a",
					"type": "uint256"
				},
				{
					"internalType": "uint256",
					"name": "b",
					"type": "uint256"
				}
			],
			"name": "add",
			"outputs": [
				{
					"internalType": "uint256",
					"name": "",
					"type": "uint256"
				}
			],
			"stateMutability": "pure",
			"type": "function"
		},
		{
			"inputs": [
				{
					"internalType": "uint256",
					"name": "a",
					"type": "uint256"
				},
				{
					"internalType": "uint256",
					"name": "b",
					"type": "uint256"
				}
			],
			"name": "divide",
			"outputs": [
				{
					"internalType": "uint256",
					"name": "",
					"type": "uint256"
				}
			],
			"stateMutability": "pure",
			"type": "function"
		},
		{
			"inputs": [
				{
					"internalType": "uint256",
					"name": "a",
					"type": "uint256"
				},
				{
					"internalType": "uint256",
					"name": "b",
					"type": "uint256"
				}
			],
			"name": "modulo",
			"outputs": [
				{
					"internalType": "uint256",
					"name": "",
					"type": "uint256"
				}
			],
			"stateMutability": "pure",
			"type": "function"
		},
		{
			"inputs": [
				{
					"internalType": "uint256",
					"name": "a",
					"type": "uint256"
				},
				{
					"internalType": "uint256",
					"name": "b",
					"type": "uint256"
				}
			],
			"name": "multiply",
			"outputs": [
				{
					"internalType": "uint256",
					"name": "",
					"type": "uint256"
				}
			],
			"stateMutability": "pure",
			"type": "function"
		},
		{
			"inputs": [
				{
					"internalType": "uint256",
					"name": "a",
					"type": "uint256"
				},
				{
					"internalType": "uint256",
					"name": "b",
					"type": "uint256"
				}
			],
			"name": "subtract",
			"outputs": [
				{
					"internalType": "uint256",
					"name": "",
					"type": "uint256"
				}
			],
			"stateMutability": "pure",
			"type": "function"
		}
	],
	"storageLayout": {
		"storage": [],
		"types": null
	},
	"web3Deploy": "var arithmeticoperationsContract = new web3.eth.Contract([{\"inputs\":[{\"internalType\":\"uint256\",\"name\":\"a\",\"type\":\"uint256\"},{\"internalType\":\"uint256\",\"name\":\"b\",\"type\":\"uint256\"}],\"name\":\"add\",\"outputs\":[{\"internalType\":\"uint256\",\"name\":\"\",\"type\":\"uint256\"}],\"stateMutability\":\"pure\",\"type\":\"function\"},{\"inputs\":[{\"internalType\":\"uint256\",\"name\":\"a\",\"type\":\"uint256\"},{\"internalType\":\"uint256\",\"name\":\"b\",\"type\":\"uint256\"}],\"name\":\"divide\",\"outputs\":[{\"internalType\":\"uint256\",\"name\":\"\",\"type\":\"uint256\"}],\"stateMutability\":\"pure\",\"type\":\"function\"},{\"inputs\":[{\"internalType\":\"uint256\",\"name\":\"a\",\"type\":\"uint256\"},{\"internalType\":\"uint256\",\"name\":\"b\",\"type\":\"uint256\"}],\"name\":\"modulo\",\"outputs\":[{\"internalType\":\"uint256\",\"name\":\"\",\"type\":\"uint256\"}],\"stateMutability\":\"pure\",\"type\":\"function\"},{\"inputs\":[{\"internalType\":\"uint256\",\"name\":\"a\",\"type\":\"uint256\"},{\"internalType\":\"uint256\",\"name\":\"b\",\"type\":\"uint256\"}],\"name\":\"multiply\",\"outputs\":[{\"internalType\":\"uint256\",\"name\":\"\",\"type\":\"uint256\"}],\"stateMutability\":\"pure\",\"type\":\"function\"},{\"inputs\":[{\"internalType\":\"uint256\",\"name\":\"a\",\"type\":\"uint256\"},{\"internalType\":\"uint256\",\"name\":\"b\",\"type\":\"uint256\"}],\"name\":\"subtract\",\"outputs\":[{\"internalType\":\"uint256\",\"name\":\"\",\"type\":\"uint256\"}],\"stateMutability\":\"pure\",\"type\":\"function\"}]);\nvar arithmeticoperations = arithmeticoperationsContract.deploy({\n     data: '0x6080604052348015600e575f80fd5b5061061b8061001c5f395ff3fe608060405234801561000f575f80fd5b5060043610610055575f3560e01c8063165c4a16146100595780633ef5e44514610089578063771602f7146100b9578063baaf073d146100e9578063f88e9fbf14610119575b5f80fd5b610073600480360381019061006e91906102b0565b610149565b60405161008091906102fd565b60405180910390f35b6100a3600480360381019061009e91906102b0565b61015e565b6040516100b091906102fd565b60405180910390f35b6100d360048036038101906100ce91906102b0565b6101b6565b6040516100e091906102fd565b60405180910390f35b61010360048036038101906100fe91906102b0565b6101cb565b60405161011091906102fd565b60405180910390f35b610133600480360381019061012e91906102b0565b610222565b60405161014091906102fd565b60405180910390f35b5f81836101569190610343565b905092915050565b5f818310156101a2576040517f08c379a000000000000000000000000000000000000000000000000000000000815260040161019990610404565b60405180910390fd5b81836101ae9190610422565b905092915050565b5f81836101c39190610455565b905092915050565b5f80820361020e576040517f08c379a0000000000000000000000000000000000000000000000000000000008152600401610205906104d2565b60405180910390fd5b818361021a919061051d565b905092915050565b5f808203610265576040517f08c379a000000000000000000000000000000000000000000000000000000000815260040161025c90610597565b60405180910390fd5b818361027191906105b5565b905092915050565b5f80fd5b5f819050919050565b61028f8161027d565b8114610299575f80fd5b50565b5f813590506102aa81610286565b92915050565b5f80604083850312156102c6576102c5610279565b5b5f6102d38582860161029c565b92505060206102e48582860161029c565b9150509250929050565b6102f78161027d565b82525050565b5f6020820190506103105f8301846102ee565b92915050565b7f4e487b71000000000000000000000000000000000000000000000000000000005f52601160045260245ffd5b5f61034d8261027d565b91506103588361027d565b92508282026103668161027d565b9150828204841483151761037d5761037c610316565b5b5092915050565b5f82825260208201905092915050565b7f5375627472616374696f6e20726573756c742063616e6e6f74206265206e65675f8201527f6174697665000000000000000000000000000000000000000000000000000000602082015250565b5f6103ee602583610384565b91506103f982610394565b604082019050919050565b5f6020820190508181035f83015261041b816103e2565b9050919050565b5f61042c8261027d565b91506104378361027d565b925082820390508181111561044f5761044e610316565b5b92915050565b5f61045f8261027d565b915061046a8361027d565b925082820190508082111561048257610481610316565b5b92915050565b7f4d6f64756c6f206279207a65726f0000000000000000000000000000000000005f82015250565b5f6104bc600e83610384565b91506104c782610488565b602082019050919050565b5f6020820190508181035f8301526104e9816104b0565b9050919050565b7f4e487b71000000000000000000000000000000000000000000000000000000005f52601260045260245ffd5b5f6105278261027d565b91506105328361027d565b925082610542576105416104f0565b5b828206905092915050565b7f4469766973696f6e206279207a65726f000000000000000000000000000000005f82015250565b5f610581601083610384565b915061058c8261054d565b602082019050919050565b5f6020820190508181035f8301526105ae81610575565b9050919050565b5f6105bf8261027d565b91506105ca8361027d565b9250826105da576105d96104f0565b5b82820490509291505056fea2646970667358221220483967311d07b7f0a88e7e0d1e4bcfcbf3429e1ba841c341b06f503c9b51644664736f6c63430008190033', \n     arguments: [\n     ]\n}).send({\n     from: web3.eth.accounts[0], \n     gas: '4700000'\n   }, function (e, contract){\n    console.log(e, contract);\n    if (typeof contract.address !== 'undefined') {\n         console.log('Contract mined! address: ' + contract.address + ' transactionHash: ' + contract.transactionHash);\n    }\n })",
	"functionHashes": {
		"771602f7": "add(uint256,uint256)",
		"f88e9fbf": "divide(uint256,uint256)",
		"baaf073d": "modulo(uint256,uint256)",
		"165c4a16": "multiply(uint256,uint256)",
		"3ef5e445": "subtract(uint256,uint256)"
	},
	"gasEstimates": {
		"Creation": {
			"codeDepositCost": "312600",
			"executionCost": "347",
			"totalCost": "312947"
		},
		"External": {
			"add(uint256,uint256)": "infinite",
			"divide(uint256,uint256)": "infinite",
			"modulo(uint256,uint256)": "infinite",
			"multiply(uint256,uint256)": "infinite",
			"subtract(uint256,uint256)": "infinite"
		}
	},
	"devdoc": {
		"kind": "dev",
		"methods": {},
		"version": 1
	},
	"userdoc": {
		"kind": "user",
		"methods": {},
		"version": 1
	},
	"Runtime Bytecode": {
		"immutableReferences": {},
		"linkReferences": {},
		"object": "608060405234801561000f575f80fd5b5060043610610055575f3560e01c8063165c4a16146100595780633ef5e44514610089578063771602f7146100b9578063baaf073d146100e9578063f88e9fbf14610119575b5f80fd5b610073600480360381019061006e91906102b0565b610149565b60405161008091906102fd565b60405180910390f35b6100a3600480360381019061009e91906102b0565b61015e565b6040516100b091906102fd565b60405180910390f35b6100d360048036038101906100ce91906102b0565b6101b6565b6040516100e091906102fd565b60405180910390f35b61010360048036038101906100fe91906102b0565b6101cb565b60405161011091906102fd565b60405180910390f35b610133600480360381019061012e91906102b0565b610222565b60405161014091906102fd565b60405180910390f35b5f81836101569190610343565b905092915050565b5f818310156101a2576040517f08c379a000000000000000000000000000000000000000000000000000000000815260040161019990610404565b60405180910390fd5b81836101ae9190610422565b905092915050565b5f81836101c39190610455565b905092915050565b5f80820361020e576040517f08c379a0000000000000000000000000000000000000000000000000000000008152600401610205906104d2565b60405180910390fd5b818361021a919061051d565b905092915050565b5f808203610265576040517f08c379a000000000000000000000000000000000000000000000000000000000815260040161025c90610597565b60405180910390fd5b818361027191906105b5565b905092915050565b5f80fd5b5f819050919050565b61028f8161027d565b8114610299575f80fd5b50565b5f813590506102aa81610286565b92915050565b5f80604083850312156102c6576102c5610279565b5b5f6102d38582860161029c565b92505060206102e48582860161029c565b9150509250929050565b6102f78161027d565b82525050565b5f6020820190506103105f8301846102ee565b92915050565b7f4e487b71000000000000000000000000000000000000000000000000000000005f52601160045260245ffd5b5f61034d8261027d565b91506103588361027d565b92508282026103668161027d565b9150828204841483151761037d5761037c610316565b5b5092915050565b5f82825260208201905092915050565b7f5375627472616374696f6e20726573756c742063616e6e6f74206265206e65675f8201527f6174697665000000000000000000000000000000000000000000000000000000602082015250565b5f6103ee602583610384565b91506103f982610394565b604082019050919050565b5f6020820190508181035f83015261041b816103e2565b9050919050565b5f61042c8261027d565b91506104378361027d565b925082820390508181111561044f5761044e610316565b5b92915050565b5f61045f8261027d565b915061046a8361027d565b925082820190508082111561048257610481610316565b5b92915050565b7f4d6f64756c6f206279207a65726f0000000000000000000000000000000000005f82015250565b5f6104bc600e83610384565b91506104c782610488565b602082019050919050565b5f6020820190508181035f8301526104e9816104b0565b9050919050565b7f4e487b71000000000000000000000000000000000000000000000000000000005f52601260045260245ffd5b5f6105278261027d565b91506105328361027d565b925082610542576105416104f0565b5b828206905092915050565b7f4469766973696f6e206279207a65726f000000000000000000000000000000005f82015250565b5f610581601083610384565b915061058c8261054d565b602082019050919050565b5f6020820190508181035f8301526105ae81610575565b9050919050565b5f6105bf8261027d565b91506105ca8361027d565b9250826105da576105d96104f0565b5b82820490509291505056fea2646970667358221220483967311d07b7f0a88e7e0d1e4bcfcbf3429e1ba841c341b06f503c9b51644664736f6c63430008190033",
		"opcodes": "PUSH1 0x80 PUSH1 0x40 MSTORE CALLVALUE DUP1 ISZERO PUSH2 0xF JUMPI PUSH0 DUP1 REVERT JUMPDEST POP PUSH1 0x4 CALLDATASIZE LT PUSH2 0x55 JUMPI PUSH0 CALLDATALOAD PUSH1 0xE0 SHR DUP1 PUSH4 0x165C4A16 EQ PUSH2 0x59 JUMPI DUP1 PUSH4 0x3EF5E445 EQ PUSH2 0x89 JUMPI DUP1 PUSH4 0x771602F7 EQ PUSH2 0xB9 JUMPI DUP1 PUSH4 0xBAAF073D EQ PUSH2 0xE9 JUMPI DUP1 PUSH4 0xF88E9FBF EQ PUSH2 0x119 JUMPI JUMPDEST PUSH0 DUP1 REVERT JUMPDEST PUSH2 0x73 PUSH1 0x4 DUP1 CALLDATASIZE SUB DUP2 ADD SWAP1 PUSH2 0x6E SWAP2 SWAP1 PUSH2 0x2B0 JUMP JUMPDEST PUSH2 0x149 JUMP JUMPDEST PUSH1 0x40 MLOAD PUSH2 0x80 SWAP2 SWAP1 PUSH2 0x2FD JUMP JUMPDEST PUSH1 0x40 MLOAD DUP1 SWAP2 SUB SWAP1 RETURN JUMPDEST PUSH2 0xA3 PUSH1 0x4 DUP1 CALLDATASIZE SUB DUP2 ADD SWAP1 PUSH2 0x9E SWAP2 SWAP1 PUSH2 0x2B0 JUMP JUMPDEST PUSH2 0x15E JUMP JUMPDEST PUSH1 0x40 MLOAD PUSH2 0xB0 SWAP2 SWAP1 PUSH2 0x2FD JUMP JUMPDEST PUSH1 0x40 MLOAD DUP1 SWAP2 SUB SWAP1 RETURN JUMPDEST PUSH2 0xD3 PUSH1 0x4 DUP1 CALLDATASIZE SUB DUP2 ADD SWAP1 PUSH2 0xCE SWAP2 SWAP1 PUSH2 0x2B0 JUMP JUMPDEST PUSH2 0x1B6 JUMP JUMPDEST PUSH1 0x40 MLOAD PUSH2 0xE0 SWAP2 SWAP1 PUSH2 0x2FD JUMP JUMPDEST PUSH1 0x40 MLOAD DUP1 SWAP2 SUB SWAP1 RETURN JUMPDEST PUSH2 0x103 PUSH1 0x4 DUP1 CALLDATASIZE SUB DUP2 ADD SWAP1 PUSH2 0xFE SWAP2 SWAP1 PUSH2 0x2B0 JUMP JUMPDEST PUSH2 0x1CB JUMP JUMPDEST PUSH1 0x40 MLOAD PUSH2 0x110 SWAP2 SWAP1 PUSH2 0x2FD JUMP JUMPDEST PUSH1 0x40 MLOAD DUP1 SWAP2 SUB SWAP1 RETURN JUMPDEST PUSH2 0x133 PUSH1 0x4 DUP1 CALLDATASIZE SUB DUP2 ADD SWAP1 PUSH2 0x12E SWAP2 SWAP1 PUSH2 0x2B0 JUMP JUMPDEST PUSH2 0x222 JUMP JUMPDEST PUSH1 0x40 MLOAD PUSH2 0x140 SWAP2 SWAP1 PUSH2 0x2FD JUMP JUMPDEST PUSH1 0x40 MLOAD DUP1 SWAP2 SUB SWAP1 RETURN JUMPDEST PUSH0 DUP2 DUP4 PUSH2 0x156 SWAP2 SWAP1 PUSH2 0x343 JUMP JUMPDEST SWAP1 POP SWAP3 SWAP2 POP POP JUMP JUMPDEST PUSH0 DUP2 DUP4 LT ISZERO PUSH2 0x1A2 JUMPI PUSH1 0x40 MLOAD PUSH32 0x8C379A000000000000000000000000000000000000000000000000000000000 DUP2 MSTORE PUSH1 0x4 ADD PUSH2 0x199 SWAP1 PUSH2 0x404 JUMP JUMPDEST PUSH1 0x40 MLOAD DUP1 SWAP2 SUB SWAP1 REVERT JUMPDEST DUP2 DUP4 PUSH2 0x1AE SWAP2 SWAP1 PUSH2 0x422 JUMP JUMPDEST SWAP1 POP SWAP3 SWAP2 POP POP JUMP JUMPDEST PUSH0 DUP2 DUP4 PUSH2 0x1C3 SWAP2 SWAP1 PUSH2 0x455 JUMP JUMPDEST SWAP1 POP SWAP3 SWAP2 POP POP JUMP JUMPDEST PUSH0 DUP1 DUP3 SUB PUSH2 0x20E JUMPI PUSH1 0x40 MLOAD PUSH32 0x8C379A000000000000000000000000000000000000000000000000000000000 DUP2 MSTORE PUSH1 0x4 ADD PUSH2 0x205 SWAP1 PUSH2 0x4D2 JUMP JUMPDEST PUSH1 0x40 MLOAD DUP1 SWAP2 SUB SWAP1 REVERT JUMPDEST DUP2 DUP4 PUSH2 0x21A SWAP2 SWAP1 PUSH2 0x51D JUMP JUMPDEST SWAP1 POP SWAP3 SWAP2 POP POP JUMP JUMPDEST PUSH0 DUP1 DUP3 SUB PUSH2 0x265 JUMPI PUSH1 0x40 MLOAD PUSH32 0x8C379A000000000000000000000000000000000000000000000000000000000 DUP2 MSTORE PUSH1 0x4 ADD PUSH2 0x25C SWAP1 PUSH2 0x597 JUMP JUMPDEST PUSH1 0x40 MLOAD DUP1 SWAP2 SUB SWAP1 REVERT JUMPDEST DUP2 DUP4 PUSH2 0x271 SWAP2 SWAP1 PUSH2 0x5B5 JUMP JUMPDEST SWAP1 POP SWAP3 SWAP2 POP POP JUMP JUMPDEST PUSH0 DUP1 REVERT JUMPDEST PUSH0 DUP2 SWAP1 POP SWAP2 SWAP1 POP JUMP JUMPDEST PUSH2 0x28F DUP2 PUSH2 0x27D JUMP JUMPDEST DUP2 EQ PUSH2 0x299 JUMPI PUSH0 DUP1 REVERT JUMPDEST POP JUMP JUMPDEST PUSH0 DUP2 CALLDATALOAD SWAP1 POP PUSH2 0x2AA DUP2 PUSH2 0x286 JUMP JUMPDEST SWAP3 SWAP2 POP POP JUMP JUMPDEST PUSH0 DUP1 PUSH1 0x40 DUP4 DUP6 SUB SLT ISZERO PUSH2 0x2C6 JUMPI PUSH2 0x2C5 PUSH2 0x279 JUMP JUMPDEST JUMPDEST PUSH0 PUSH2 0x2D3 DUP6 DUP3 DUP7 ADD PUSH2 0x29C JUMP JUMPDEST SWAP3 POP POP PUSH1 0x20 PUSH2 0x2E4 DUP6 DUP3 DUP7 ADD PUSH2 0x29C JUMP JUMPDEST SWAP2 POP POP SWAP3 POP SWAP3 SWAP1 POP JUMP JUMPDEST PUSH2 0x2F7 DUP2 PUSH2 0x27D JUMP JUMPDEST DUP3 MSTORE POP POP JUMP JUMPDEST PUSH0 PUSH1 0x20 DUP3 ADD SWAP1 POP PUSH2 0x310 PUSH0 DUP4 ADD DUP5 PUSH2 0x2EE JUMP JUMPDEST SWAP3 SWAP2 POP POP JUMP JUMPDEST PUSH32 0x4E487B7100000000000000000000000000000000000000000000000000000000 PUSH0 MSTORE PUSH1 0x11 PUSH1 0x4 MSTORE PUSH1 0x24 PUSH0 REVERT JUMPDEST PUSH0 PUSH2 0x34D DUP3 PUSH2 0x27D JUMP JUMPDEST SWAP2 POP PUSH2 0x358 DUP4 PUSH2 0x27D JUMP JUMPDEST SWAP3 POP DUP3 DUP3 MUL PUSH2 0x366 DUP2 PUSH2 0x27D JUMP JUMPDEST SWAP2 POP DUP3 DUP3 DIV DUP5 EQ DUP4 ISZERO OR PUSH2 0x37D JUMPI PUSH2 0x37C PUSH2 0x316 JUMP JUMPDEST JUMPDEST POP SWAP3 SWAP2 POP POP JUMP JUMPDEST PUSH0 DUP3 DUP3 MSTORE PUSH1 0x20 DUP3 ADD SWAP1 POP SWAP3 SWAP2 POP POP JUMP JUMPDEST PUSH32 0x5375627472616374696F6E20726573756C742063616E6E6F74206265206E6567 PUSH0 DUP3 ADD MSTORE PUSH32 0x6174697665000000000000000000000000000000000000000000000000000000 PUSH1 0x20 DUP3 ADD MSTORE POP JUMP JUMPDEST PUSH0 PUSH2 0x3EE PUSH1 0x25 DUP4 PUSH2 0x384 JUMP JUMPDEST SWAP2 POP PUSH2 0x3F9 DUP3 PUSH2 0x394 JUMP JUMPDEST PUSH1 0x40 DUP3 ADD SWAP1 POP SWAP2 SWAP1 POP JUMP JUMPDEST PUSH0 PUSH1 0x20 DUP3 ADD SWAP1 POP DUP2 DUP2 SUB PUSH0 DUP4 ADD MSTORE PUSH2 0x41B DUP2 PUSH2 0x3E2 JUMP JUMPDEST SWAP1 POP SWAP2 SWAP1 POP JUMP JUMPDEST PUSH0 PUSH2 0x42C DUP3 PUSH2 0x27D JUMP JUMPDEST SWAP2 POP PUSH2 0x437 DUP4 PUSH2 0x27D JUMP JUMPDEST SWAP3 POP DUP3 DUP3 SUB SWAP1 POP DUP2 DUP2 GT ISZERO PUSH2 0x44F JUMPI PUSH2 0x44E PUSH2 0x316 JUMP JUMPDEST JUMPDEST SWAP3 SWAP2 POP POP JUMP JUMPDEST PUSH0 PUSH2 0x45F DUP3 PUSH2 0x27D JUMP JUMPDEST SWAP2 POP PUSH2 0x46A DUP4 PUSH2 0x27D JUMP JUMPDEST SWAP3 POP DUP3 DUP3 ADD SWAP1 POP DUP1 DUP3 GT ISZERO PUSH2 0x482 JUMPI PUSH2 0x481 PUSH2 0x316 JUMP JUMPDEST JUMPDEST SWAP3 SWAP2 POP POP JUMP JUMPDEST PUSH32 0x4D6F64756C6F206279207A65726F000000000000000000000000000000000000 PUSH0 DUP3 ADD MSTORE POP JUMP JUMPDEST PUSH0 PUSH2 0x4BC PUSH1 0xE DUP4 PUSH2 0x384 JUMP JUMPDEST SWAP2 POP PUSH2 0x4C7 DUP3 PUSH2 0x488 JUMP JUMPDEST PUSH1 0x20 DUP3 ADD SWAP1 POP SWAP2 SWAP1 POP JUMP JUMPDEST PUSH0 PUSH1 0x20 DUP3 ADD SWAP1 POP DUP2 DUP2 SUB PUSH0 DUP4 ADD MSTORE PUSH2 0x4E9 DUP2 PUSH2 0x4B0 JUMP JUMPDEST SWAP1 POP SWAP2 SWAP1 POP JUMP JUMPDEST PUSH32 0x4E487B7100000000000000000000000000000000000000000000000000000000 PUSH0 MSTORE PUSH1 0x12 PUSH1 0x4 MSTORE PUSH1 0x24 PUSH0 REVERT JUMPDEST PUSH0 PUSH2 0x527 DUP3 PUSH2 0x27D JUMP JUMPDEST SWAP2 POP PUSH2 0x532 DUP4 PUSH2 0x27D JUMP JUMPDEST SWAP3 POP DUP3 PUSH2 0x542 JUMPI PUSH2 0x541 PUSH2 0x4F0 JUMP JUMPDEST JUMPDEST DUP3 DUP3 MOD SWAP1 POP SWAP3 SWAP2 POP POP JUMP JUMPDEST PUSH32 0x4469766973696F6E206279207A65726F00000000000000000000000000000000 PUSH0 DUP3 ADD MSTORE POP JUMP JUMPDEST PUSH0 PUSH2 0x581 PUSH1 0x10 DUP4 PUSH2 0x384 JUMP JUMPDEST SWAP2 POP PUSH2 0x58C DUP3 PUSH2 0x54D JUMP JUMPDEST PUSH1 0x20 DUP3 ADD SWAP1 POP SWAP2 SWAP1 POP JUMP JUMPDEST PUSH0 PUSH1 0x20 DUP3 ADD SWAP1 POP DUP2 DUP2 SUB PUSH0 DUP4 ADD MSTORE PUSH2 0x5AE DUP2 PUSH2 0x575 JUMP JUMPDEST SWAP1 POP SWAP2 SWAP1 POP JUMP JUMPDEST PUSH0 PUSH2 0x5BF DUP3 PUSH2 0x27D JUMP JUMPDEST SWAP2 POP PUSH2 0x5CA DUP4 PUSH2 0x27D JUMP JUMPDEST SWAP3 POP DUP3 PUSH2 0x5DA JUMPI PUSH2 0x5D9 PUSH2 0x4F0 JUMP JUMPDEST JUMPDEST DUP3 DUP3 DIV SWAP1 POP SWAP3 SWAP2 POP POP JUMP INVALID LOG2 PUSH5 0x6970667358 0x22 SLT KECCAK256 BASEFEE CODECOPY PUSH8 0x311D07B7F0A88E7E 0xD 0x1E 0x4B 0xCF 0xCB RETURN TIMESTAMP SWAP15 SHL 0xA8 COINBASE 0xC3 COINBASE 0xB0 PUSH16 0x503C9B51644664736F6C634300081900 CALLER "
	},
	"Assembly": ".code\n  PUSH 80\t\t\tcontract ArithmeticOperations ...\n  PUSH 40\t\t\tcontract ArithmeticOperations ...\n  MSTORE \t\t\tcontract ArithmeticOperations ...\n  CALLVALUE \t\t\tcontract ArithmeticOperations ...\n  DUP1 \t\t\tcontract ArithmeticOperations ...\n  ISZERO \t\t\tcontract ArithmeticOperations ...\n  PUSH [tag] 1\t\t\tcontract ArithmeticOperations ...\n  JUMPI \t\t\tcontract ArithmeticOperations ...\n  PUSH 0\t\t\tcontract ArithmeticOperations ...\n  DUP1 \t\t\tcontract ArithmeticOperations ...\n  REVERT \t\t\tcontract ArithmeticOperations ...\ntag 1\t\t\tcontract ArithmeticOperations ...\n  JUMPDEST \t\t\tcontract ArithmeticOperations ...\n  POP \t\t\tcontract ArithmeticOperations ...\n  PUSH #[$] 0000000000000000000000000000000000000000000000000000000000000000\t\t\tcontract ArithmeticOperations ...\n  DUP1 \t\t\tcontract ArithmeticOperations ...\n  PUSH [$] 0000000000000000000000000000000000000000000000000000000000000000\t\t\tcontract ArithmeticOperations ...\n  PUSH 0\t\t\tcontract ArithmeticOperations ...\n  CODECOPY \t\t\tcontract ArithmeticOperations ...\n  PUSH 0\t\t\tcontract ArithmeticOperations ...\n  RETURN \t\t\tcontract ArithmeticOperations ...\n.data\n  0:\n    .code\n      PUSH 80\t\t\tcontract ArithmeticOperations ...\n      PUSH 40\t\t\tcontract ArithmeticOperations ...\n      MSTORE \t\t\tcontract ArithmeticOperations ...\n      CALLVALUE \t\t\tcontract ArithmeticOperations ...\n      DUP1 \t\t\tcontract ArithmeticOperations ...\n      ISZERO \t\t\tcontract ArithmeticOperations ...\n      PUSH [tag] 1\t\t\tcontract ArithmeticOperations ...\n      JUMPI \t\t\tcontract ArithmeticOperations ...\n      PUSH 0\t\t\tcontract ArithmeticOperations ...\n      DUP1 \t\t\tcontract ArithmeticOperations ...\n      REVERT \t\t\tcontract ArithmeticOperations ...\n    tag 1\t\t\tcontract ArithmeticOperations ...\n      JUMPDEST \t\t\tcontract ArithmeticOperations ...\n      POP \t\t\tcontract ArithmeticOperations ...\n      PUSH 4\t\t\tcontract ArithmeticOperations ...\n      CALLDATASIZE \t\t\tcontract ArithmeticOperations ...\n      LT \t\t\tcontract ArithmeticOperations ...\n      PUSH [tag] 2\t\t\tcontract ArithmeticOperations ...\n      JUMPI \t\t\tcontract ArithmeticOperations ...\n      PUSH 0\t\t\tcontract ArithmeticOperations ...\n      CALLDATALOAD \t\t\tcontract ArithmeticOperations ...\n      PUSH E0\t\t\tcontract ArithmeticOperations ...\n      SHR \t\t\tcontract ArithmeticOperations ...\n      DUP1 \t\t\tcontract ArithmeticOperations ...\n      PUSH 165C4A16\t\t\tcontract ArithmeticOperations ...\n      EQ \t\t\tcontract ArithmeticOperations ...\n      PUSH [tag] 3\t\t\tcontract ArithmeticOperations ...\n      JUMPI \t\t\tcontract ArithmeticOperations ...\n      DUP1 \t\t\tcontract ArithmeticOperations ...\n      PUSH 3EF5E445\t\t\tcontract ArithmeticOperations ...\n      EQ \t\t\tcontract ArithmeticOperations ...\n      PUSH [tag] 4\t\t\tcontract ArithmeticOperations ...\n      JUMPI \t\t\tcontract ArithmeticOperations ...\n      DUP1 \t\t\tcontract ArithmeticOperations ...\n      PUSH 771602F7\t\t\tcontract ArithmeticOperations ...\n      EQ \t\t\tcontract ArithmeticOperations ...\n      PUSH [tag] 5\t\t\tcontract ArithmeticOperations ...\n      JUMPI \t\t\tcontract ArithmeticOperations ...\n      DUP1 \t\t\tcontract ArithmeticOperations ...\n      PUSH BAAF073D\t\t\tcontract ArithmeticOperations ...\n      EQ \t\t\tcontract ArithmeticOperations ...\n      PUSH [tag] 6\t\t\tcontract ArithmeticOperations ...\n      JUMPI \t\t\tcontract ArithmeticOperations ...\n      DUP1 \t\t\tcontract ArithmeticOperations ...\n      PUSH F88E9FBF\t\t\tcontract ArithmeticOperations ...\n      EQ \t\t\tcontract ArithmeticOperations ...\n      PUSH [tag] 7\t\t\tcontract ArithmeticOperations ...\n      JUMPI \t\t\tcontract ArithmeticOperations ...\n    tag 2\t\t\tcontract ArithmeticOperations ...\n      JUMPDEST \t\t\tcontract ArithmeticOperations ...\n      PUSH 0\t\t\tcontract ArithmeticOperations ...\n      DUP1 \t\t\tcontract ArithmeticOperations ...\n      REVERT \t\t\tcontract ArithmeticOperations ...\n    tag 3\t\t\tfunction multiply(uint256 a, u...\n      JUMPDEST \t\t\tfunction multiply(uint256 a, u...\n      PUSH [tag] 8\t\t\tfunction multiply(uint256 a, u...\n      PUSH 4\t\t\tfunction multiply(uint256 a, u...\n      DUP1 \t\t\tfunction multiply(uint256 a, u...\n      CALLDATASIZE \t\t\tfunction multiply(uint256 a, u...\n      SUB \t\t\tfunction multiply(uint256 a, u...\n      DUP2 \t\t\tfunction multiply(uint256 a, u...\n      ADD \t\t\tfunction multiply(uint256 a, u...\n      SWAP1 \t\t\tfunction multiply(uint256 a, u...\n      PUSH [tag] 9\t\t\tfunction multiply(uint256 a, u...\n      SWAP2 \t\t\tfunction multiply(uint256 a, u...\n      SWAP1 \t\t\tfunction multiply(uint256 a, u...\n      PUSH [tag] 10\t\t\tfunction multiply(uint256 a, u...\n      JUMP \t\t\tfunction multiply(uint256 a, u...\n    tag 9\t\t\tfunction multiply(uint256 a, u...\n      JUMPDEST \t\t\tfunction multiply(uint256 a, u...\n      PUSH [tag] 11\t\t\tfunction multiply(uint256 a, u...\n      JUMP \t\t\tfunction multiply(uint256 a, u...\n    tag 8\t\t\tfunction multiply(uint256 a, u...\n      JUMPDEST \t\t\tfunction multiply(uint256 a, u...\n      PUSH 40\t\t\tfunction multiply(uint256 a, u...\n      MLOAD \t\t\tfunction multiply(uint256 a, u...\n      PUSH [tag] 12\t\t\tfunction multiply(uint256 a, u...\n      SWAP2 \t\t\tfunction multiply(uint256 a, u...\n      SWAP1 \t\t\tfunction multiply(uint256 a, u...\n      PUSH [tag] 13\t\t\tfunction multiply(uint256 a, u...\n      JUMP \t\t\tfunction multiply(uint256 a, u...\n    tag 12\t\t\tfunction multiply(uint256 a, u...\n      JUMPDEST \t\t\tfunction multiply(uint256 a, u...\n      PUSH 40\t\t\tfunction multiply(uint256 a, u...\n      MLOAD \t\t\tfunction multiply(uint256 a, u...\n      DUP1 \t\t\tfunction multiply(uint256 a, u...\n      SWAP2 \t\t\tfunction multiply(uint256 a, u...\n      SUB \t\t\tfunction multiply(uint256 a, u...\n      SWAP1 \t\t\tfunction multiply(uint256 a, u...\n      RETURN \t\t\tfunction multiply(uint256 a, u...\n    tag 4\t\t\tfunction subtract(uint256 a, u...\n      JUMPDEST \t\t\tfunction subtract(uint256 a, u...\n      PUSH [tag] 14\t\t\tfunction subtract(uint256 a, u...\n      PUSH 4\t\t\tfunction subtract(uint256 a, u...\n      DUP1 \t\t\tfunction subtract(uint256 a, u...\n      CALLDATASIZE \t\t\tfunction subtract(uint256 a, u...\n      SUB \t\t\tfunction subtract(uint256 a, u...\n      DUP2 \t\t\tfunction subtract(uint256 a, u...\n      ADD \t\t\tfunction subtract(uint256 a, u...\n      SWAP1 \t\t\tfunction subtract(uint256 a, u...\n      PUSH [tag] 15\t\t\tfunction subtract(uint256 a, u...\n      SWAP2 \t\t\tfunction subtract(uint256 a, u...\n      SWAP1 \t\t\tfunction subtract(uint256 a, u...\n      PUSH [tag] 10\t\t\tfunction subtract(uint256 a, u...\n      JUMP \t\t\tfunction subtract(uint256 a, u...\n    tag 15\t\t\tfunction subtract(uint256 a, u...\n      JUMPDEST \t\t\tfunction subtract(uint256 a, u...\n      PUSH [tag] 16\t\t\tfunction subtract(uint256 a, u...\n      JUMP \t\t\tfunction subtract(uint256 a, u...\n    tag 14\t\t\tfunction subtract(uint256 a, u...\n      JUMPDEST \t\t\tfunction subtract(uint256 a, u...\n      PUSH 40\t\t\tfunction subtract(uint256 a, u...\n      MLOAD \t\t\tfunction subtract(uint256 a, u...\n      PUSH [tag] 17\t\t\tfunction subtract(uint256 a, u...\n      SWAP2 \t\t\tfunction subtract(uint256 a, u...\n      SWAP1 \t\t\tfunction subtract(uint256 a, u...\n      PUSH [tag] 13\t\t\tfunction subtract(uint256 a, u...\n      JUMP \t\t\tfunction subtract(uint256 a, u...\n    tag 17\t\t\tfunction subtract(uint256 a, u...\n      JUMPDEST \t\t\tfunction subtract(uint256 a, u...\n      PUSH 40\t\t\tfunction subtract(uint256 a, u...\n      MLOAD \t\t\tfunction subtract(uint256 a, u...\n      DUP1 \t\t\tfunction subtract(uint256 a, u...\n      SWAP2 \t\t\tfunction subtract(uint256 a, u...\n      SUB \t\t\tfunction subtract(uint256 a, u...\n      SWAP1 \t\t\tfunction subtract(uint256 a, u...\n      RETURN \t\t\tfunction subtract(uint256 a, u...\n    tag 5\t\t\tfunction add(uint256 a, uint25...\n      JUMPDEST \t\t\tfunction add(uint256 a, uint25...\n      PUSH [tag] 18\t\t\tfunction add(uint256 a, uint25...\n      PUSH 4\t\t\tfunction add(uint256 a, uint25...\n      DUP1 \t\t\tfunction add(uint256 a, uint25...\n      CALLDATASIZE \t\t\tfunction add(uint256 a, uint25...\n      SUB \t\t\tfunction add(uint256 a, uint25...\n      DUP2 \t\t\tfunction add(uint256 a, uint25...\n      ADD \t\t\tfunction add(uint256 a, uint25...\n      SWAP1 \t\t\tfunction add(uint256 a, uint25...\n      PUSH [tag] 19\t\t\tfunction add(uint256 a, uint25...\n      SWAP2 \t\t\tfunction add(uint256 a, uint25...\n      SWAP1 \t\t\tfunction add(uint256 a, uint25...\n      PUSH [tag] 10\t\t\tfunction add(uint256 a, uint25...\n      JUMP \t\t\tfunction add(uint256 a, uint25...\n    tag 19\t\t\tfunction add(uint256 a, uint25...\n      JUMPDEST \t\t\tfunction add(uint256 a, uint25...\n      PUSH [tag] 20\t\t\tfunction add(uint256 a, uint25...\n      JUMP \t\t\tfunction add(uint256 a, uint25...\n    tag 18\t\t\tfunction add(uint256 a, uint25...\n      JUMPDEST \t\t\tfunction add(uint256 a, uint25...\n      PUSH 40\t\t\tfunction add(uint256 a, uint25...\n      MLOAD \t\t\tfunction add(uint256 a, uint25...\n      PUSH [tag] 21\t\t\tfunction add(uint256 a, uint25...\n      SWAP2 \t\t\tfunction add(uint256 a, uint25...\n      SWAP1 \t\t\tfunction add(uint256 a, uint25...\n      PUSH [tag] 13\t\t\tfunction add(uint256 a, uint25...\n      JUMP \t\t\tfunction add(uint256 a, uint25...\n    tag 21\t\t\tfunction add(uint256 a, uint25...\n      JUMPDEST \t\t\tfunction add(uint256 a, uint25...\n      PUSH 40\t\t\tfunction add(uint256 a, uint25...\n      MLOAD \t\t\tfunction add(uint256 a, uint25...\n      DUP1 \t\t\tfunction add(uint256 a, uint25...\n      SWAP2 \t\t\tfunction add(uint256 a, uint25...\n      SUB \t\t\tfunction add(uint256 a, uint25...\n      SWAP1 \t\t\tfunction add(uint256 a, uint25...\n      RETURN \t\t\tfunction add(uint256 a, uint25...\n    tag 6\t\t\tfunction modulo(uint256 a, uin...\n      JUMPDEST \t\t\tfunction modulo(uint256 a, uin...\n      PUSH [tag] 22\t\t\tfunction modulo(uint256 a, uin...\n      PUSH 4\t\t\tfunction modulo(uint256 a, uin...\n      DUP1 \t\t\tfunction modulo(uint256 a, uin...\n      CALLDATASIZE \t\t\tfunction modulo(uint256 a, uin...\n      SUB \t\t\tfunction modulo(uint256 a, uin...\n      DUP2 \t\t\tfunction modulo(uint256 a, uin...\n      ADD \t\t\tfunction modulo(uint256 a, uin...\n      SWAP1 \t\t\tfunction modulo(uint256 a, uin...\n      PUSH [tag] 23\t\t\tfunction modulo(uint256 a, uin...\n      SWAP2 \t\t\tfunction modulo(uint256 a, uin...\n      SWAP1 \t\t\tfunction modulo(uint256 a, uin...\n      PUSH [tag] 10\t\t\tfunction modulo(uint256 a, uin...\n      JUMP \t\t\tfunction modulo(uint256 a, uin...\n    tag 23\t\t\tfunction modulo(uint256 a, uin...\n      JUMPDEST \t\t\tfunction modulo(uint256 a, uin...\n      PUSH [tag] 24\t\t\tfunction modulo(uint256 a, uin...\n      JUMP \t\t\tfunction modulo(uint256 a, uin...\n    tag 22\t\t\tfunction modulo(uint256 a, uin...\n      JUMPDEST \t\t\tfunction modulo(uint256 a, uin...\n      PUSH 40\t\t\tfunction modulo(uint256 a, uin...\n      MLOAD \t\t\tfunction modulo(uint256 a, uin...\n      PUSH [tag] 25\t\t\tfunction modulo(uint256 a, uin...\n      SWAP2 \t\t\tfunction modulo(uint256 a, uin...\n      SWAP1 \t\t\tfunction modulo(uint256 a, uin...\n      PUSH [tag] 13\t\t\tfunction modulo(uint256 a, uin...\n      JUMP \t\t\tfunction modulo(uint256 a, uin...\n    tag 25\t\t\tfunction modulo(uint256 a, uin...\n      JUMPDEST \t\t\tfunction modulo(uint256 a, uin...\n      PUSH 40\t\t\tfunction modulo(uint256 a, uin...\n      MLOAD \t\t\tfunction modulo(uint256 a, uin...\n      DUP1 \t\t\tfunction modulo(uint256 a, uin...\n      SWAP2 \t\t\tfunction modulo(uint256 a, uin...\n      SUB \t\t\tfunction modulo(uint256 a, uin...\n      SWAP1 \t\t\tfunction modulo(uint256 a, uin...\n      RETURN \t\t\tfunction modulo(uint256 a, uin...\n    tag 7\t\t\tfunction divide(uint256 a, uin...\n      JUMPDEST \t\t\tfunction divide(uint256 a, uin...\n      PUSH [tag] 26\t\t\tfunction divide(uint256 a, uin...\n      PUSH 4\t\t\tfunction divide(uint256 a, uin...\n      DUP1 \t\t\tfunction divide(uint256 a, uin...\n      CALLDATASIZE \t\t\tfunction divide(uint256 a, uin...\n      SUB \t\t\tfunction divide(uint256 a, uin...\n      DUP2 \t\t\tfunction divide(uint256 a, uin...\n      ADD \t\t\tfunction divide(uint256 a, uin...\n      SWAP1 \t\t\tfunction divide(uint256 a, uin...\n      PUSH [tag] 27\t\t\tfunction divide(uint256 a, uin...\n      SWAP2 \t\t\tfunction divide(uint256 a, uin...\n      SWAP1 \t\t\tfunction divide(uint256 a, uin...\n      PUSH [tag] 10\t\t\tfunction divide(uint256 a, uin...\n      JUMP \t\t\tfunction divide(uint256 a, uin...\n    tag 27\t\t\tfunction divide(uint256 a, uin...\n      JUMPDEST \t\t\tfunction divide(uint256 a, uin...\n      PUSH [tag] 28\t\t\tfunction divide(uint256 a, uin...\n      JUMP \t\t\tfunction divide(uint256 a, uin...\n    tag 26\t\t\tfunction divide(uint256 a, uin...\n      JUMPDEST \t\t\tfunction divide(uint256 a, uin...\n      PUSH 40\t\t\tfunction divide(uint256 a, uin...\n      MLOAD \t\t\tfunction divide(uint256 a, uin...\n      PUSH [tag] 29\t\t\tfunction divide(uint256 a, uin...\n      SWAP2 \t\t\tfunction divide(uint256 a, uin...\n      SWAP1 \t\t\tfunction divide(uint256 a, uin...\n      PUSH [tag] 13\t\t\tfunction divide(uint256 a, uin...\n      JUMP \t\t\tfunction divide(uint256 a, uin...\n    tag 29\t\t\tfunction divide(uint256 a, uin...\n      JUMPDEST \t\t\tfunction divide(uint256 a, uin...\n      PUSH 40\t\t\tfunction divide(uint256 a, uin...\n      MLOAD \t\t\tfunction divide(uint256 a, uin...\n      DUP1 \t\t\tfunction divide(uint256 a, uin...\n      SWAP2 \t\t\tfunction divide(uint256 a, uin...\n      SUB \t\t\tfunction divide(uint256 a, uin...\n      SWAP1 \t\t\tfunction divide(uint256 a, uin...\n      RETURN \t\t\tfunction divide(uint256 a, uin...\n    tag 11\t\t\tfunction multiply(uint256 a, u...\n      JUMPDEST \t\t\tfunction multiply(uint256 a, u...\n      PUSH 0\t\t\tuint256\n      DUP2 \t\t\tb\n      DUP4 \t\t\ta\n      PUSH [tag] 31\t\t\ta * b\n      SWAP2 \t\t\ta * b\n      SWAP1 \t\t\ta * b\n      PUSH [tag] 32\t\t\ta * b\n      JUMP \t\t\ta * b\n    tag 31\t\t\ta * b\n      JUMPDEST \t\t\ta * b\n      SWAP1 \t\t\treturn a * b\n      POP \t\t\treturn a * b\n      SWAP3 \t\t\tfunction multiply(uint256 a, u...\n      SWAP2 \t\t\tfunction multiply(uint256 a, u...\n      POP \t\t\tfunction multiply(uint256 a, u...\n      POP \t\t\tfunction multiply(uint256 a, u...\n      JUMP \t\t\tfunction multiply(uint256 a, u...\n    tag 16\t\t\tfunction subtract(uint256 a, u...\n      JUMPDEST \t\t\tfunction subtract(uint256 a, u...\n      PUSH 0\t\t\tuint256\n      DUP2 \t\t\tb\n      DUP4 \t\t\ta\n      LT \t\t\ta >= b\n      ISZERO \t\t\ta >= b\n      PUSH [tag] 34\t\t\trequire(a >= b, \"Subtraction r...\n      JUMPI \t\t\trequire(a >= b, \"Subtraction r...\n      PUSH 40\t\t\trequire(a >= b, \"Subtraction r...\n      MLOAD \t\t\trequire(a >= b, \"Subtraction r...\n      PUSH 8C379A000000000000000000000000000000000000000000000000000000000\t\t\trequire(a >= b, \"Subtraction r...\n      DUP2 \t\t\trequire(a >= b, \"Subtraction r...\n      MSTORE \t\t\trequire(a >= b, \"Subtraction r...\n      PUSH 4\t\t\trequire(a >= b, \"Subtraction r...\n      ADD \t\t\trequire(a >= b, \"Subtraction r...\n      PUSH [tag] 35\t\t\trequire(a >= b, \"Subtraction r...\n      SWAP1 \t\t\trequire(a >= b, \"Subtraction r...\n      PUSH [tag] 36\t\t\trequire(a >= b, \"Subtraction r...\n      JUMP \t\t\trequire(a >= b, \"Subtraction r...\n    tag 35\t\t\trequire(a >= b, \"Subtraction r...\n      JUMPDEST \t\t\trequire(a >= b, \"Subtraction r...\n      PUSH 40\t\t\trequire(a >= b, \"Subtraction r...\n      MLOAD \t\t\trequire(a >= b, \"Subtraction r...\n      DUP1 \t\t\trequire(a >= b, \"Subtraction r...\n      SWAP2 \t\t\trequire(a >= b, \"Subtraction r...\n      SUB \t\t\trequire(a >= b, \"Subtraction r...\n      SWAP1 \t\t\trequire(a >= b, \"Subtraction r...\n      REVERT \t\t\trequire(a >= b, \"Subtraction r...\n    tag 34\t\t\trequire(a >= b, \"Subtraction r...\n      JUMPDEST \t\t\trequire(a >= b, \"Subtraction r...\n      DUP2 \t\t\tb\n      DUP4 \t\t\ta\n      PUSH [tag] 37\t\t\ta - b\n      SWAP2 \t\t\ta - b\n      SWAP1 \t\t\ta - b\n      PUSH [tag] 38\t\t\ta - b\n      JUMP \t\t\ta - b\n    tag 37\t\t\ta - b\n      JUMPDEST \t\t\ta - b\n      SWAP1 \t\t\treturn a - b\n      POP \t\t\treturn a - b\n      SWAP3 \t\t\tfunction subtract(uint256 a, u...\n      SWAP2 \t\t\tfunction subtract(uint256 a, u...\n      POP \t\t\tfunction subtract(uint256 a, u...\n      POP \t\t\tfunction subtract(uint256 a, u...\n      JUMP \t\t\tfunction subtract(uint256 a, u...\n    tag 20\t\t\tfunction add(uint256 a, uint25...\n      JUMPDEST \t\t\tfunction add(uint256 a, uint25...\n      PUSH 0\t\t\tuint256\n      DUP2 \t\t\tb\n      DUP4 \t\t\ta\n      PUSH [tag] 40\t\t\ta + b\n      SWAP2 \t\t\ta + b\n      SWAP1 \t\t\ta + b\n      PUSH [tag] 41\t\t\ta + b\n      JUMP \t\t\ta + b\n    tag 40\t\t\ta + b\n      JUMPDEST \t\t\ta + b\n      SWAP1 \t\t\treturn a + b\n      POP \t\t\treturn a + b\n      SWAP3 \t\t\tfunction add(uint256 a, uint25...\n      SWAP2 \t\t\tfunction add(uint256 a, uint25...\n      POP \t\t\tfunction add(uint256 a, uint25...\n      POP \t\t\tfunction add(uint256 a, uint25...\n      JUMP \t\t\tfunction add(uint256 a, uint25...\n    tag 24\t\t\tfunction modulo(uint256 a, uin...\n      JUMPDEST \t\t\tfunction modulo(uint256 a, uin...\n      PUSH 0\t\t\tuint256\n      DUP1 \t\t\t0\n      DUP3 \t\t\tb\n      SUB \t\t\tb != 0\n      PUSH [tag] 43\t\t\trequire(b != 0, \"Modulo by zer...\n      JUMPI \t\t\trequire(b != 0, \"Modulo by zer...\n      PUSH 40\t\t\trequire(b != 0, \"Modulo by zer...\n      MLOAD \t\t\trequire(b != 0, \"Modulo by zer...\n      PUSH 8C379A000000000000000000000000000000000000000000000000000000000\t\t\trequire(b != 0, \"Modulo by zer...\n      DUP2 \t\t\trequire(b != 0, \"Modulo by zer...\n      MSTORE \t\t\trequire(b != 0, \"Modulo by zer...\n      PUSH 4\t\t\trequire(b != 0, \"Modulo by zer...\n      ADD \t\t\trequire(b != 0, \"Modulo by zer...\n      PUSH [tag] 44\t\t\trequire(b != 0, \"Modulo by zer...\n      SWAP1 \t\t\trequire(b != 0, \"Modulo by zer...\n      PUSH [tag] 45\t\t\trequire(b != 0, \"Modulo by zer...\n      JUMP \t\t\trequire(b != 0, \"Modulo by zer...\n    tag 44\t\t\trequire(b != 0, \"Modulo by zer...\n      JUMPDEST \t\t\trequire(b != 0, \"Modulo by zer...\n      PUSH 40\t\t\trequire(b != 0, \"Modulo by zer...\n      MLOAD \t\t\trequire(b != 0, \"Modulo by zer...\n      DUP1 \t\t\trequire(b != 0, \"Modulo by zer...\n      SWAP2 \t\t\trequire(b != 0, \"Modulo by zer...\n      SUB \t\t\trequire(b != 0, \"Modulo by zer...\n      SWAP1 \t\t\trequire(b != 0, \"Modulo by zer...\n      REVERT \t\t\trequire(b != 0, \"Modulo by zer...\n    tag 43\t\t\trequire(b != 0, \"Modulo by zer...\n      JUMPDEST \t\t\trequire(b != 0, \"Modulo by zer...\n      DUP2 \t\t\tb\n      DUP4 \t\t\ta\n      PUSH [tag] 46\t\t\ta % b\n      SWAP2 \t\t\ta % b\n      SWAP1 \t\t\ta % b\n      PUSH [tag] 47\t\t\ta % b\n      JUMP \t\t\ta % b\n    tag 46\t\t\ta % b\n      JUMPDEST \t\t\ta % b\n      SWAP1 \t\t\treturn a % b\n      POP \t\t\treturn a % b\n      SWAP3 \t\t\tfunction modulo(uint256 a, uin...\n      SWAP2 \t\t\tfunction modulo(uint256 a, uin...\n      POP \t\t\tfunction modulo(uint256 a, uin...\n      POP \t\t\tfunction modulo(uint256 a, uin...\n      JUMP \t\t\tfunction modulo(uint256 a, uin...\n    tag 28\t\t\tfunction divide(uint256 a, uin...\n      JUMPDEST \t\t\tfunction divide(uint256 a, uin...\n      PUSH 0\t\t\tuint256\n      DUP1 \t\t\t0\n      DUP3 \t\t\tb\n      SUB \t\t\tb != 0\n      PUSH [tag] 49\t\t\trequire(b != 0, \"Division by z...\n      JUMPI \t\t\trequire(b != 0, \"Division by z...\n      PUSH 40\t\t\trequire(b != 0, \"Division by z...\n      MLOAD \t\t\trequire(b != 0, \"Division by z...\n      PUSH 8C379A000000000000000000000000000000000000000000000000000000000\t\t\trequire(b != 0, \"Division by z...\n      DUP2 \t\t\trequire(b != 0, \"Division by z...\n      MSTORE \t\t\trequire(b != 0, \"Division by z...\n      PUSH 4\t\t\trequire(b != 0, \"Division by z...\n      ADD \t\t\trequire(b != 0, \"Division by z...\n      PUSH [tag] 50\t\t\trequire(b != 0, \"Division by z...\n      SWAP1 \t\t\trequire(b != 0, \"Division by z...\n      PUSH [tag] 51\t\t\trequire(b != 0, \"Division by z...\n      JUMP \t\t\trequire(b != 0, \"Division by z...\n    tag 50\t\t\trequire(b != 0, \"Division by z...\n      JUMPDEST \t\t\trequire(b != 0, \"Division by z...\n      PUSH 40\t\t\trequire(b != 0, \"Division by z...\n      MLOAD \t\t\trequire(b != 0, \"Division by z...\n      DUP1 \t\t\trequire(b != 0, \"Division by z...\n      SWAP2 \t\t\trequire(b != 0, \"Division by z...\n      SUB \t\t\trequire(b != 0, \"Division by z...\n      SWAP1 \t\t\trequire(b != 0, \"Division by z...\n      REVERT \t\t\trequire(b != 0, \"Division by z...\n    tag 49\t\t\trequire(b != 0, \"Division by z...\n      JUMPDEST \t\t\trequire(b != 0, \"Division by z...\n      DUP2 \t\t\tb\n      DUP4 \t\t\ta\n      PUSH [tag] 52\t\t\ta / b\n      SWAP2 \t\t\ta / b\n      SWAP1 \t\t\ta / b\n      PUSH [tag] 53\t\t\ta / b\n      JUMP \t\t\ta / b\n    tag 52\t\t\ta / b\n      JUMPDEST \t\t\ta / b\n      SWAP1 \t\t\treturn a / b\n      POP \t\t\treturn a / b\n      SWAP3 \t\t\tfunction divide(uint256 a, uin...\n      SWAP2 \t\t\tfunction divide(uint256 a, uin...\n      POP \t\t\tfunction divide(uint256 a, uin...\n      POP \t\t\tfunction divide(uint256 a, uin...\n      JUMP \t\t\tfunction divide(uint256 a, uin...\n    tag 55\t\t\trations {\\n    // Function to ...\n      JUMPDEST \t\t\trations {\\n    // Function to ...\n      PUSH 0\t\t\t2\n      DUP1 \t\t\ti\n      REVERT \t\t\turns (uint25\n    tag 57\t\t\teturns (uint256) {\\n        re...\n      JUMPDEST \t\t\teturns (uint256) {\\n        re...\n      PUSH 0\t\t\t>= b, \"\n      DUP2 \t\t\tnot b\n      SWAP1 \t\t\t result cannot b\n      POP \t\t\t result cannot b\n      SWAP2 \t\t\teturns (uint256) {\\n        re...\n      SWAP1 \t\t\teturns (uint256) {\\n        re...\n      POP \t\t\teturns (uint256) {\\n        re...\n      JUMP \t\t\teturns (uint256) {\\n        re...\n    tag 58\t\t\t;\\n        return a - b;\\n    ...\n      JUMPDEST \t\t\t;\\n        return a - b;\\n    ...\n      PUSH [tag] 76\t\t\ts\\n    function multiply(\n      DUP2 \t\t\ttiply\n      PUSH [tag] 57\t\t\ts\\n    function multiply(\n      JUMP \t\t\ts\\n    function multiply(\n    tag 76\t\t\ts\\n    function multiply(\n      JUMPDEST \t\t\ts\\n    function multiply(\n      DUP2 \t\t\t numb\n      EQ \t\t\ttwo numbers\\n    function mult...\n      PUSH [tag] 77\t\t\t multiply two numbers\\n    fun...\n      JUMPI \t\t\t multiply two numbers\\n    fun...\n      PUSH 0\t\t\t2\n      DUP1 \t\t\ti\n      REVERT \t\t\t56 a, uint25\n    tag 77\t\t\t multiply two numbers\\n    fun...\n      JUMPDEST \t\t\t multiply two numbers\\n    fun...\n      POP \t\t\t;\\n        return a - b;\\n    ...\n      JUMP \t\t\t;\\n        return a - b;\\n    ...\n    tag 59\t\t\tre returns (uint256) {\\n      ...\n      JUMPDEST \t\t\tre returns (uint256) {\\n      ...\n      PUSH 0\t\t\t   }\\n\n      DUP2 \t\t\to numb\n      CALLDATALOAD \t\t\t to divide two numbe\n      SWAP1 \t\t\t Function to divide two numbe\n      POP \t\t\t Function to divide two numbe\n      PUSH [tag] 79\t\t\tnction divide(uint256 a, uint2...\n      DUP2 \t\t\tnt256\n      PUSH [tag] 58\t\t\tnction divide(uint256 a, uint2...\n      JUMP \t\t\tnction divide(uint256 a, uint2...\n    tag 79\t\t\tnction divide(uint256 a, uint2...\n      JUMPDEST \t\t\tnction divide(uint256 a, uint2...\n      SWAP3 \t\t\tre returns (uint256) {\\n      ...\n      SWAP2 \t\t\tre returns (uint256) {\\n      ...\n      POP \t\t\tre returns (uint256) {\\n      ...\n      POP \t\t\tre returns (uint256) {\\n      ...\n      JUMP \t\t\tre returns (uint256) {\\n      ...\n    tag 10\t\t\tre returns (uint256) {\\n      ...\n      JUMPDEST \t\t\tre returns (uint256) {\\n      ...\n      PUSH 0\t\t\t      \n      DUP1 \t\t\treturn\n      PUSH 40\t\t\tla\n      DUP4 \t\t\tion to ca\n      DUP6 \t\t\t // Fun\n      SUB \t\t\t\\n    // Function to cal\n      SLT \t\t\t    \\n    // Function to calcu...\n      ISZERO \t\t\t }\\n    \\n    // Function to c...\n      PUSH [tag] 81\t\t\t }\\n    \\n    // Function to c...\n      JUMPI \t\t\t }\\n    \\n    // Function to c...\n      PUSH [tag] 82\t\t\the remainder of division\\n    ...\n      PUSH [tag] 55\t\t\the remainder of division\\n    ...\n      JUMP \t\t\the remainder of division\\n    ...\n    tag 82\t\t\the remainder of division\\n    ...\n      JUMPDEST \t\t\the remainder of division\\n    ...\n    tag 81\t\t\t }\\n    \\n    // Function to c...\n      JUMPDEST \t\t\t }\\n    \\n    // Function to c...\n      PUSH 0\t\t\t0\n      PUSH [tag] 83\t\t\t     return a % b;\\n    }\\n}\\n\n      DUP6 \t\t\t\n      DUP3 \t\t\t\n      DUP7 \t\t\t}\\n\n      ADD \t\t\t  }\\n}\\n\n      PUSH [tag] 59\t\t\t     return a % b;\\n    }\\n}\\n\n      JUMP \t\t\t     return a % b;\\n    }\\n}\\n\n    tag 83\t\t\t     return a % b;\\n    }\\n}\\n\n      JUMPDEST \t\t\t     return a % b;\\n    }\\n}\\n\n      SWAP3 \t\t\tero\");\\n        return a % b;\\...\n      POP \t\t\tero\");\\n        return a % b;\\...\n      POP \t\t\tt256) {\\n        require(b != ...\n      PUSH 20\t\t\t\n      PUSH [tag] 84\t\t\t\n      DUP6 \t\t\t\n      DUP3 \t\t\t\n      DUP7 \t\t\t\n      ADD \t\t\t\n      PUSH [tag] 59\t\t\t\n      JUMP \t\t\t\n    tag 84\t\t\t\n      JUMPDEST \t\t\t\n      SWAP2 \t\t\t\n      POP \t\t\t\n      POP \t\t\t\n      SWAP3 \t\t\tre returns (uint256) {\\n      ...\n      POP \t\t\tre returns (uint256) {\\n      ...\n      SWAP3 \t\t\tre returns (uint256) {\\n      ...\n      SWAP1 \t\t\tre returns (uint256) {\\n      ...\n      POP \t\t\tre returns (uint256) {\\n      ...\n      JUMP \t\t\tre returns (uint256) {\\n      ...\n    tag 60\t\t\t\n      JUMPDEST \t\t\t\n      PUSH [tag] 86\t\t\t\n      DUP2 \t\t\t\n      PUSH [tag] 57\t\t\t\n      JUMP \t\t\t\n    tag 86\t\t\t\n      JUMPDEST \t\t\t\n      DUP3 \t\t\t\n      MSTORE \t\t\t\n      POP \t\t\t\n      POP \t\t\t\n      JUMP \t\t\t\n    tag 13\t\t\t\n      JUMPDEST \t\t\t\n      PUSH 0\t\t\t\n      PUSH 20\t\t\t\n      DUP3 \t\t\t\n      ADD \t\t\t\n      SWAP1 \t\t\t\n      POP \t\t\t\n      PUSH [tag] 88\t\t\t\n      PUSH 0\t\t\t\n      DUP4 \t\t\t\n      ADD \t\t\t\n      DUP5 \t\t\t\n      PUSH [tag] 60\t\t\t\n      JUMP \t\t\t\n    tag 88\t\t\t\n      JUMPDEST \t\t\t\n      SWAP3 \t\t\t\n      SWAP2 \t\t\t\n      POP \t\t\t\n      POP \t\t\t\n      JUMP \t\t\t\n    tag 61\t\t\t\n      JUMPDEST \t\t\t\n      PUSH 4E487B7100000000000000000000000000000000000000000000000000000000\t\t\t\n      PUSH 0\t\t\t\n      MSTORE \t\t\t\n      PUSH 11\t\t\t\n      PUSH 4\t\t\t\n      MSTORE \t\t\t\n      PUSH 24\t\t\t\n      PUSH 0\t\t\t\n      REVERT \t\t\t\n    tag 32\t\t\t\n      JUMPDEST \t\t\t\n      PUSH 0\t\t\t\n      PUSH [tag] 91\t\t\t\n      DUP3 \t\t\t\n      PUSH [tag] 57\t\t\t\n      JUMP \t\t\t\n    tag 91\t\t\t\n      JUMPDEST \t\t\t\n      SWAP2 \t\t\t\n      POP \t\t\t\n      PUSH [tag] 92\t\t\t\n      DUP4 \t\t\t\n      PUSH [tag] 57\t\t\t\n      JUMP \t\t\t\n    tag 92\t\t\t\n      JUMPDEST \t\t\t\n      SWAP3 \t\t\t\n      POP \t\t\t\n      DUP3 \t\t\t\n      DUP3 \t\t\t\n      MUL \t\t\t\n      PUSH [tag] 93\t\t\t\n      DUP2 \t\t\t\n      PUSH [tag] 57\t\t\t\n      JUMP \t\t\t\n    tag 93\t\t\t\n      JUMPDEST \t\t\t\n      SWAP2 \t\t\t\n      POP \t\t\t\n      DUP3 \t\t\t\n      DUP3 \t\t\t\n      DIV \t\t\t\n      DUP5 \t\t\t\n      EQ \t\t\t\n      DUP4 \t\t\t\n      ISZERO \t\t\t\n      OR \t\t\t\n      PUSH [tag] 94\t\t\t\n      JUMPI \t\t\t\n      PUSH [tag] 95\t\t\t\n      PUSH [tag] 61\t\t\t\n      JUMP \t\t\t\n    tag 95\t\t\t\n      JUMPDEST \t\t\t\n    tag 94\t\t\t\n      JUMPDEST \t\t\t\n      POP \t\t\t\n      SWAP3 \t\t\t\n      SWAP2 \t\t\t\n      POP \t\t\t\n      POP \t\t\t\n      JUMP \t\t\t\n    tag 62\t\t\t\n      JUMPDEST \t\t\t\n      PUSH 0\t\t\t\n      DUP3 \t\t\t\n      DUP3 \t\t\t\n      MSTORE \t\t\t\n      PUSH 20\t\t\t\n      DUP3 \t\t\t\n      ADD \t\t\t\n      SWAP1 \t\t\t\n      POP \t\t\t\n      SWAP3 \t\t\t\n      SWAP2 \t\t\t\n      POP \t\t\t\n      POP \t\t\t\n      JUMP \t\t\t\n    tag 63\t\t\t\n      JUMPDEST \t\t\t\n      PUSH 5375627472616374696F6E20726573756C742063616E6E6F74206265206E6567\t\t\t\n      PUSH 0\t\t\t\n      DUP3 \t\t\t\n      ADD \t\t\t\n      MSTORE \t\t\t\n      PUSH 6174697665000000000000000000000000000000000000000000000000000000\t\t\t\n      PUSH 20\t\t\t\n      DUP3 \t\t\t\n      ADD \t\t\t\n      MSTORE \t\t\t\n      POP \t\t\t\n      JUMP \t\t\t\n    tag 64\t\t\t\n      JUMPDEST \t\t\t\n      PUSH 0\t\t\t\n      PUSH [tag] 99\t\t\t\n      PUSH 25\t\t\t\n      DUP4 \t\t\t\n      PUSH [tag] 62\t\t\t\n      JUMP \t\t\t\n    tag 99\t\t\t\n      JUMPDEST \t\t\t\n      SWAP2 \t\t\t\n      POP \t\t\t\n      PUSH [tag] 100\t\t\t\n      DUP3 \t\t\t\n      PUSH [tag] 63\t\t\t\n      JUMP \t\t\t\n    tag 100\t\t\t\n      JUMPDEST \t\t\t\n      PUSH 40\t\t\t\n      DUP3 \t\t\t\n      ADD \t\t\t\n      SWAP1 \t\t\t\n      POP \t\t\t\n      SWAP2 \t\t\t\n      SWAP1 \t\t\t\n      POP \t\t\t\n      JUMP \t\t\t\n    tag 36\t\t\t\n      JUMPDEST \t\t\t\n      PUSH 0\t\t\t\n      PUSH 20\t\t\t\n      DUP3 \t\t\t\n      ADD \t\t\t\n      SWAP1 \t\t\t\n      POP \t\t\t\n      DUP2 \t\t\t\n      DUP2 \t\t\t\n      SUB \t\t\t\n      PUSH 0\t\t\t\n      DUP4 \t\t\t\n      ADD \t\t\t\n      MSTORE \t\t\t\n      PUSH [tag] 102\t\t\t\n      DUP2 \t\t\t\n      PUSH [tag] 64\t\t\t\n      JUMP \t\t\t\n    tag 102\t\t\t\n      JUMPDEST \t\t\t\n      SWAP1 \t\t\t\n      POP \t\t\t\n      SWAP2 \t\t\t\n      SWAP1 \t\t\t\n      POP \t\t\t\n      JUMP \t\t\t\n    tag 38\t\t\t\n      JUMPDEST \t\t\t\n      PUSH 0\t\t\t\n      PUSH [tag] 104\t\t\t\n      DUP3 \t\t\t\n      PUSH [tag] 57\t\t\t\n      JUMP \t\t\t\n    tag 104\t\t\t\n      JUMPDEST \t\t\t\n      SWAP2 \t\t\t\n      POP \t\t\t\n      PUSH [tag] 105\t\t\t\n      DUP4 \t\t\t\n      PUSH [tag] 57\t\t\t\n      JUMP \t\t\t\n    tag 105\t\t\t\n      JUMPDEST \t\t\t\n      SWAP3 \t\t\t\n      POP \t\t\t\n      DUP3 \t\t\t\n      DUP3 \t\t\t\n      SUB \t\t\t\n      SWAP1 \t\t\t\n      POP \t\t\t\n      DUP2 \t\t\t\n      DUP2 \t\t\t\n      GT \t\t\t\n      ISZERO \t\t\t\n      PUSH [tag] 106\t\t\t\n      JUMPI \t\t\t\n      PUSH [tag] 107\t\t\t\n      PUSH [tag] 61\t\t\t\n      JUMP \t\t\t\n    tag 107\t\t\t\n      JUMPDEST \t\t\t\n    tag 106\t\t\t\n      JUMPDEST \t\t\t\n      SWAP3 \t\t\t\n      SWAP2 \t\t\t\n      POP \t\t\t\n      POP \t\t\t\n      JUMP \t\t\t\n    tag 41\t\t\t\n      JUMPDEST \t\t\t\n      PUSH 0\t\t\t\n      PUSH [tag] 109\t\t\t\n      DUP3 \t\t\t\n      PUSH [tag] 57\t\t\t\n      JUMP \t\t\t\n    tag 109\t\t\t\n      JUMPDEST \t\t\t\n      SWAP2 \t\t\t\n      POP \t\t\t\n      PUSH [tag] 110\t\t\t\n      DUP4 \t\t\t\n      PUSH [tag] 57\t\t\t\n      JUMP \t\t\t\n    tag 110\t\t\t\n      JUMPDEST \t\t\t\n      SWAP3 \t\t\t\n      POP \t\t\t\n      DUP3 \t\t\t\n      DUP3 \t\t\t\n      ADD \t\t\t\n      SWAP1 \t\t\t\n      POP \t\t\t\n      DUP1 \t\t\t\n      DUP3 \t\t\t\n      GT \t\t\t\n      ISZERO \t\t\t\n      PUSH [tag] 111\t\t\t\n      JUMPI \t\t\t\n      PUSH [tag] 112\t\t\t\n      PUSH [tag] 61\t\t\t\n      JUMP \t\t\t\n    tag 112\t\t\t\n      JUMPDEST \t\t\t\n    tag 111\t\t\t\n      JUMPDEST \t\t\t\n      SWAP3 \t\t\t\n      SWAP2 \t\t\t\n      POP \t\t\t\n      POP \t\t\t\n      JUMP \t\t\t\n    tag 65\t\t\t\n      JUMPDEST \t\t\t\n      PUSH 4D6F64756C6F206279207A65726F000000000000000000000000000000000000\t\t\t\n      PUSH 0\t\t\t\n      DUP3 \t\t\t\n      ADD \t\t\t\n      MSTORE \t\t\t\n      POP \t\t\t\n      JUMP \t\t\t\n    tag 66\t\t\t\n      JUMPDEST \t\t\t\n      PUSH 0\t\t\t\n      PUSH [tag] 115\t\t\t\n      PUSH E\t\t\t\n      DUP4 \t\t\t\n      PUSH [tag] 62\t\t\t\n      JUMP \t\t\t\n    tag 115\t\t\t\n      JUMPDEST \t\t\t\n      SWAP2 \t\t\t\n      POP \t\t\t\n      PUSH [tag] 116\t\t\t\n      DUP3 \t\t\t\n      PUSH [tag] 65\t\t\t\n      JUMP \t\t\t\n    tag 116\t\t\t\n      JUMPDEST \t\t\t\n      PUSH 20\t\t\t\n      DUP3 \t\t\t\n      ADD \t\t\t\n      SWAP1 \t\t\t\n      POP \t\t\t\n      SWAP2 \t\t\t\n      SWAP1 \t\t\t\n      POP \t\t\t\n      JUMP \t\t\t\n    tag 45\t\t\t\n      JUMPDEST \t\t\t\n      PUSH 0\t\t\t\n      PUSH 20\t\t\t\n      DUP3 \t\t\t\n      ADD \t\t\t\n      SWAP1 \t\t\t\n      POP \t\t\t\n      DUP2 \t\t\t\n      DUP2 \t\t\t\n      SUB \t\t\t\n      PUSH 0\t\t\t\n      DUP4 \t\t\t\n      ADD \t\t\t\n      MSTORE \t\t\t\n      PUSH [tag] 118\t\t\t\n      DUP2 \t\t\t\n      PUSH [tag] 66\t\t\t\n      JUMP \t\t\t\n    tag 118\t\t\t\n      JUMPDEST \t\t\t\n      SWAP1 \t\t\t\n      POP \t\t\t\n      SWAP2 \t\t\t\n      SWAP1 \t\t\t\n      POP \t\t\t\n      JUMP \t\t\t\n    tag 67\t\t\t\n      JUMPDEST \t\t\t\n      PUSH 4E487B7100000000000000000000000000000000000000000000000000000000\t\t\t\n      PUSH 0\t\t\t\n      MSTORE \t\t\t\n      PUSH 12\t\t\t\n      PUSH 4\t\t\t\n      MSTORE \t\t\t\n      PUSH 24\t\t\t\n      PUSH 0\t\t\t\n      REVERT \t\t\t\n    tag 47\t\t\t\n      JUMPDEST \t\t\t\n      PUSH 0\t\t\t\n      PUSH [tag] 121\t\t\t\n      DUP3 \t\t\t\n      PUSH [tag] 57\t\t\t\n      JUMP \t\t\t\n    tag 121\t\t\t\n      JUMPDEST \t\t\t\n      SWAP2 \t\t\t\n      POP \t\t\t\n      PUSH [tag] 122\t\t\t\n      DUP4 \t\t\t\n      PUSH [tag] 57\t\t\t\n      JUMP \t\t\t\n    tag 122\t\t\t\n      JUMPDEST \t\t\t\n      SWAP3 \t\t\t\n      POP \t\t\t\n      DUP3 \t\t\t\n      PUSH [tag] 123\t\t\t\n      JUMPI \t\t\t\n      PUSH [tag] 124\t\t\t\n      PUSH [tag] 67\t\t\t\n      JUMP \t\t\t\n    tag 124\t\t\t\n      JUMPDEST \t\t\t\n    tag 123\t\t\t\n      JUMPDEST \t\t\t\n      DUP3 \t\t\t\n      DUP3 \t\t\t\n      MOD \t\t\t\n      SWAP1 \t\t\t\n      POP \t\t\t\n      SWAP3 \t\t\t\n      SWAP2 \t\t\t\n      POP \t\t\t\n      POP \t\t\t\n      JUMP \t\t\t\n    tag 68\t\t\t\n      JUMPDEST \t\t\t\n      PUSH 4469766973696F6E206279207A65726F00000000000000000000000000000000\t\t\t\n      PUSH 0\t\t\t\n      DUP3 \t\t\t\n      ADD \t\t\t\n      MSTORE \t\t\t\n      POP \t\t\t\n      JUMP \t\t\t\n    tag 69\t\t\t\n      JUMPDEST \t\t\t\n      PUSH 0\t\t\t\n      PUSH [tag] 127\t\t\t\n      PUSH 10\t\t\t\n      DUP4 \t\t\t\n      PUSH [tag] 62\t\t\t\n      JUMP \t\t\t\n    tag 127\t\t\t\n      JUMPDEST \t\t\t\n      SWAP2 \t\t\t\n      POP \t\t\t\n      PUSH [tag] 128\t\t\t\n      DUP3 \t\t\t\n      PUSH [tag] 68\t\t\t\n      JUMP \t\t\t\n    tag 128\t\t\t\n      JUMPDEST \t\t\t\n      PUSH 20\t\t\t\n      DUP3 \t\t\t\n      ADD \t\t\t\n      SWAP1 \t\t\t\n      POP \t\t\t\n      SWAP2 \t\t\t\n      SWAP1 \t\t\t\n      POP \t\t\t\n      JUMP \t\t\t\n    tag 51\t\t\t\n      JUMPDEST \t\t\t\n      PUSH 0\t\t\t\n      PUSH 20\t\t\t\n      DUP3 \t\t\t\n      ADD \t\t\t\n      SWAP1 \t\t\t\n      POP \t\t\t\n      DUP2 \t\t\t\n      DUP2 \t\t\t\n      SUB \t\t\t\n      PUSH 0\t\t\t\n      DUP4 \t\t\t\n      ADD \t\t\t\n      MSTORE \t\t\t\n      PUSH [tag] 130\t\t\t\n      DUP2 \t\t\t\n      PUSH [tag] 69\t\t\t\n      JUMP \t\t\t\n    tag 130\t\t\t\n      JUMPDEST \t\t\t\n      SWAP1 \t\t\t\n      POP \t\t\t\n      SWAP2 \t\t\t\n      SWAP1 \t\t\t\n      POP \t\t\t\n      JUMP \t\t\t\n    tag 53\t\t\t\n      JUMPDEST \t\t\t\n      PUSH 0\t\t\t\n      PUSH [tag] 132\t\t\t\n      DUP3 \t\t\t\n      PUSH [tag] 57\t\t\t\n      JUMP \t\t\t\n    tag 132\t\t\t\n      JUMPDEST \t\t\t\n      SWAP2 \t\t\t\n      POP \t\t\t\n      PUSH [tag] 133\t\t\t\n      DUP4 \t\t\t\n      PUSH [tag] 57\t\t\t\n      JUMP \t\t\t\n    tag 133\t\t\t\n      JUMPDEST \t\t\t\n      SWAP3 \t\t\t\n      POP \t\t\t\n      DUP3 \t\t\t\n      PUSH [tag] 134\t\t\t\n      JUMPI \t\t\t\n      PUSH [tag] 135\t\t\t\n      PUSH [tag] 67\t\t\t\n      JUMP \t\t\t\n    tag 135\t\t\t\n      JUMPDEST \t\t\t\n    tag 134\t\t\t\n      JUMPDEST \t\t\t\n      DUP3 \t\t\t\n      DUP3 \t\t\t\n      DIV \t\t\t\n      SWAP1 \t\t\t\n      POP \t\t\t\n      SWAP3 \t\t\t\n      SWAP2 \t\t\t\n      POP \t\t\t\n      POP \t\t\t\n      JUMP \t\t\t\n    .data\n"
}