{
	"compilerInput": "{\"language\":\"Solidity\",\"sources\":{\"contracts/HelloWorld1.sol\":{\"content\":\"// SPDX-License-Identifier: MIT\\npragma solidity >=0.6.12 <0.9.0;\\n\\ncontract ValueTypeDemo {\\n    // State variables\\n    uint256 public uintVariable;\\n    int256 public intVariable;\\n    address public addressVariable;\\n    bool public boolVariable;\\n    string public stringVariable;\\n    bytes32 public bytesVariable;\\n    \\n    // Constructor to initialize state variables\\n    constructor() {\\n        uintVariable = 10;\\n        intVariable = -5;\\n        addressVariable = msg.sender;\\n        boolVariable = true;\\n        stringVariable = \\\"Hello, World!\\\";\\n        bytesVariable = keccak256(abi.encodePacked(\\\"Solidity\\\"));\\n    }\\n    \\n    // Function to update uintVariable\\n    function updateUint(uint256 newValue) public {\\n        uintVariable = newValue;\\n    }\\n    \\n    // Function to update intVariable\\n    function updateInt(int256 newValue) public {\\n        intVariable = newValue;\\n    }\\n    \\n    // Function to update addressVariable\\n    function updateAddress(address newValue) public {\\n        addressVariable = newValue;\\n    }\\n    \\n    // Function to update boolVariable\\n    function updateBool(bool newValue) public {\\n        boolVariable = newValue;\\n    }\\n    \\n    // Function to update stringVariable\\n    function updateString(string memory newValue) public {\\n        stringVariable = newValue;\\n    }\\n    \\n    // Function to update bytesVariable\\n    function updateBytes(bytes32 newValue) public {\\n        bytesVariable = newValue;\\n    }\\n}\"}},\"settings\":{\"optimizer\":{\"enabled\":false,\"runs\":200},\"outputSelection\":{\"*\":{\"\":[\"ast\"],\"*\":[\"abi\",\"metadata\",\"devdoc\",\"userdoc\",\"storageLayout\",\"evm.legacyAssembly\",\"evm.bytecode\",\"evm.deployedBytecode\",\"evm.methodIdentifiers\",\"evm.gasEstimates\",\"evm.assembly\"]}},\"remappings\":[]}}",
	"name": "ValueTypeDemo",
	"bytecode": {
		"linkReferences": {},
		"object": "608060405234801561000f575f80fd5b50600a5f819055507ffffffffffffffffffffffffffffffffffffffffffffffffffffffffffffffffb6001819055503360025f6101000a81548173ffffffffffffffffffffffffffffffffffffffff021916908373ffffffffffffffffffffffffffffffffffffffff1602179055506001600260146101000a81548160ff0219169083151502179055506040518060400160405280600d81526020017f48656c6c6f2c20576f726c642100000000000000000000000000000000000000815250600390816100dd9190610348565b506040516020016100ed9061046b565b6040516020818303038152906040528051906020012060048190555061047f565b5f81519050919050565b7f4e487b71000000000000000000000000000000000000000000000000000000005f52604160045260245ffd5b7f4e487b71000000000000000000000000000000000000000000000000000000005f52602260045260245ffd5b5f600282049050600182168061018957607f821691505b60208210810361019c5761019b610145565b5b50919050565b5f819050815f5260205f209050919050565b5f6020601f8301049050919050565b5f82821b905092915050565b5f600883026101fe7fffffffffffffffffffffffffffffffffffffffffffffffffffffffffffffffff826101c3565b61020886836101c3565b95508019841693508086168417925050509392505050565b5f819050919050565b5f819050919050565b5f61024c61024761024284610220565b610229565b610220565b9050919050565b5f819050919050565b61026583610232565b61027961027182610253565b8484546101cf565b825550505050565b5f90565b61028d610281565b61029881848461025c565b505050565b5b818110156102bb576102b05f82610285565b60018101905061029e565b5050565b601f821115610300576102d1816101a2565b6102da846101b4565b810160208510156102e9578190505b6102fd6102f5856101b4565b83018261029d565b50505b505050565b5f82821c905092915050565b5f6103205f1984600802610305565b1980831691505092915050565b5f6103388383610311565b9150826002028217905092915050565b6103518261010e565b67ffffffffffffffff81111561036a57610369610118565b5b6103748254610172565b61037f8282856102bf565b5f60209050601f8311600181146103b0575f841561039e578287015190505b6103a8858261032d565b86555061040f565b601f1984166103be866101a2565b5f5b828110156103e5578489015182556001820191506020850194506020810190506103c0565b8683101561040257848901516103fe601f891682610311565b8355505b6001600288020188555050505b505050505050565b5f81905092915050565b7f536f6c69646974790000000000000000000000000000000000000000000000005f82015250565b5f610455600883610417565b915061046082610421565b600882019050919050565b5f61047582610449565b9150819050919050565b610b518061048c5f395ff3fe608060405234801561000f575f80fd5b50600436106100b2575f3560e01c8063820d0e491161006f578063820d0e4914610164578063adef6ca814610182578063c3ccf402146101a0578063c914955d146101bc578063de5477fd146101d8578063ed6d9096146101f6576100b2565b80630a56cb1d146100b6578063117b2467146100d25780631bd72f15146100f057806322ebbb361461010c5780632653fa2d1461012a5780634115b74414610148575b5f80fd5b6100d060048036038101906100cb91906103bb565b610212565b005b6100da61021c565b6040516100e79190610456565b60405180910390f35b61010a600480360381019061010591906104a9565b6102a8565b005b6101146102b2565b60405161012191906104e3565b60405180910390f35b6101326102b8565b60405161013f9190610514565b60405180910390f35b610162600480360381019061015d9190610562565b6102bd565b005b61016c6102da565b604051610179919061059c565b60405180910390f35b61018a6102e0565b60405161019791906105c4565b60405180910390f35b6101ba60048036038101906101b59190610709565b6102f3565b005b6101d660048036038101906101d1919061077a565b610306565b005b6101e061030f565b6040516101ed91906107e4565b60405180910390f35b610210600480360381019061020b9190610827565b610334565b005b8060048190555050565b600380546102299061087f565b80601f01602080910402602001604051908101604052809291908181526020018280546102559061087f565b80156102a05780601f10610277576101008083540402835291602001916102a0565b820191905f5260205f20905b81548152906001019060200180831161028357829003601f168201915b505050505081565b8060018190555050565b60045481565b5f5481565b80600260146101000a81548160ff02191690831515021790555050565b60015481565b600260149054906101000a900460ff1681565b80600390816103029190610a4c565b5050565b805f8190555050565b60025f9054906101000a900473ffffffffffffffffffffffffffffffffffffffff1681565b8060025f6101000a81548173ffffffffffffffffffffffffffffffffffffffff021916908373ffffffffffffffffffffffffffffffffffffffff16021790555050565b5f604051905090565b5f80fd5b5f80fd5b5f819050919050565b61039a81610388565b81146103a4575f80fd5b50565b5f813590506103b581610391565b92915050565b5f602082840312156103d0576103cf610380565b5b5f6103dd848285016103a7565b91505092915050565b5f81519050919050565b5f82825260208201905092915050565b8281835e5f83830152505050565b5f601f19601f8301169050919050565b5f610428826103e6565b61043281856103f0565b9350610442818560208601610400565b61044b8161040e565b840191505092915050565b5f6020820190508181035f83015261046e818461041e565b905092915050565b5f819050919050565b61048881610476565b8114610492575f80fd5b50565b5f813590506104a38161047f565b92915050565b5f602082840312156104be576104bd610380565b5b5f6104cb84828501610495565b91505092915050565b6104dd81610388565b82525050565b5f6020820190506104f65f8301846104d4565b92915050565b5f819050919050565b61050e816104fc565b82525050565b5f6020820190506105275f830184610505565b92915050565b5f8115159050919050565b6105418161052d565b811461054b575f80fd5b50565b5f8135905061055c81610538565b92915050565b5f6020828403121561057757610576610380565b5b5f6105848482850161054e565b91505092915050565b61059681610476565b82525050565b5f6020820190506105af5f83018461058d565b92915050565b6105be8161052d565b82525050565b5f6020820190506105d75f8301846105b5565b92915050565b5f80fd5b5f80fd5b7f4e487b71000000000000000000000000000000000000000000000000000000005f52604160045260245ffd5b61061b8261040e565b810181811067ffffffffffffffff8211171561063a576106396105e5565b5b80604052505050565b5f61064c610377565b90506106588282610612565b919050565b5f67ffffffffffffffff821115610677576106766105e5565b5b6106808261040e565b9050602081019050919050565b828183375f83830152505050565b5f6106ad6106a88461065d565b610643565b9050828152602081018484840111156106c9576106c86105e1565b5b6106d484828561068d565b509392505050565b5f82601f8301126106f0576106ef6105dd565b5b813561070084826020860161069b565b91505092915050565b5f6020828403121561071e5761071d610380565b5b5f82013567ffffffffffffffff81111561073b5761073a610384565b5b610747848285016106dc565b91505092915050565b610759816104fc565b8114610763575f80fd5b50565b5f8135905061077481610750565b92915050565b5f6020828403121561078f5761078e610380565b5b5f61079c84828501610766565b91505092915050565b5f73ffffffffffffffffffffffffffffffffffffffff82169050919050565b5f6107ce826107a5565b9050919050565b6107de816107c4565b82525050565b5f6020820190506107f75f8301846107d5565b92915050565b610806816107c4565b8114610810575f80fd5b50565b5f81359050610821816107fd565b92915050565b5f6020828403121561083c5761083b610380565b5b5f61084984828501610813565b91505092915050565b7f4e487b71000000000000000000000000000000000000000000000000000000005f52602260045260245ffd5b5f600282049050600182168061089657607f821691505b6020821081036108a9576108a8610852565b5b50919050565b5f819050815f5260205f209050919050565b5f6020601f8301049050919050565b5f82821b905092915050565b5f6008830261090b7fffffffffffffffffffffffffffffffffffffffffffffffffffffffffffffffff826108d0565b61091586836108d0565b95508019841693508086168417925050509392505050565b5f819050919050565b5f61095061094b610946846104fc565b61092d565b6104fc565b9050919050565b5f819050919050565b61096983610936565b61097d61097582610957565b8484546108dc565b825550505050565b5f90565b610991610985565b61099c818484610960565b505050565b5b818110156109bf576109b45f82610989565b6001810190506109a2565b5050565b601f821115610a04576109d5816108af565b6109de846108c1565b810160208510156109ed578190505b610a016109f9856108c1565b8301826109a1565b50505b505050565b5f82821c905092915050565b5f610a245f1984600802610a09565b1980831691505092915050565b5f610a3c8383610a15565b9150826002028217905092915050565b610a55826103e6565b67ffffffffffffffff811115610a6e57610a6d6105e5565b5b610a78825461087f565b610a838282856109c3565b5f60209050601f831160018114610ab4575f8415610aa2578287015190505b610aac8582610a31565b865550610b13565b601f198416610ac2866108af565b5f5b82811015610ae957848901518255600182019150602085019450602081019050610ac4565b86831015610b065784890151610b02601f891682610a15565b8355505b6001600288020188555050505b50505050505056fea2646970667358221220f5c97a18de1c8ba8daad454d917bc987a0e3b0b21411d75330f5f13cf5c56beb64736f6c63430008190033",
		"opcodes": "PUSH1 0x80 PUSH1 0x40 MSTORE CALLVALUE DUP1 ISZERO PUSH2 0xF JUMPI PUSH0 DUP1 REVERT JUMPDEST POP PUSH1 0xA PUSH0 DUP2 SWAP1 SSTORE POP PUSH32 0xFFFFFFFFFFFFFFFFFFFFFFFFFFFFFFFFFFFFFFFFFFFFFFFFFFFFFFFFFFFFFFFB PUSH1 0x1 DUP2 SWAP1 SSTORE POP CALLER PUSH1 0x2 PUSH0 PUSH2 0x100 EXP DUP2 SLOAD DUP2 PUSH20 0xFFFFFFFFFFFFFFFFFFFFFFFFFFFFFFFFFFFFFFFF MUL NOT AND SWAP1 DUP4 PUSH20 0xFFFFFFFFFFFFFFFFFFFFFFFFFFFFFFFFFFFFFFFF AND MUL OR SWAP1 SSTORE POP PUSH1 0x1 PUSH1 0x2 PUSH1 0x14 PUSH2 0x100 EXP DUP2 SLOAD DUP2 PUSH1 0xFF MUL NOT AND SWAP1 DUP4 ISZERO ISZERO MUL OR SWAP1 SSTORE POP PUSH1 0x40 MLOAD DUP1 PUSH1 0x40 ADD PUSH1 0x40 MSTORE DUP1 PUSH1 0xD DUP2 MSTORE PUSH1 0x20 ADD PUSH32 0x48656C6C6F2C20576F726C642100000000000000000000000000000000000000 DUP2 MSTORE POP PUSH1 0x3 SWAP1 DUP2 PUSH2 0xDD SWAP2 SWAP1 PUSH2 0x348 JUMP JUMPDEST POP PUSH1 0x40 MLOAD PUSH1 0x20 ADD PUSH2 0xED SWAP1 PUSH2 0x46B JUMP JUMPDEST PUSH1 0x40 MLOAD PUSH1 0x20 DUP2 DUP4 SUB SUB DUP2 MSTORE SWAP1 PUSH1 0x40 MSTORE DUP1 MLOAD SWAP1 PUSH1 0x20 ADD KECCAK256 PUSH1 0x4 DUP2 SWAP1 SSTORE POP PUSH2 0x47F JUMP JUMPDEST PUSH0 DUP2 MLOAD SWAP1 POP SWAP2 SWAP1 POP JUMP JUMPDEST PUSH32 0x4E487B7100000000000000000000000000000000000000000000000000000000 PUSH0 MSTORE PUSH1 0x41 PUSH1 0x4 MSTORE PUSH1 0x24 PUSH0 REVERT JUMPDEST PUSH32 0x4E487B7100000000000000000000000000000000000000000000000000000000 PUSH0 MSTORE PUSH1 0x22 PUSH1 0x4 MSTORE PUSH1 0x24 PUSH0 REVERT JUMPDEST PUSH0 PUSH1 0x2 DUP3 DIV SWAP1 POP PUSH1 0x1 DUP3 AND DUP1 PUSH2 0x189 JUMPI PUSH1 0x7F DUP3 AND SWAP2 POP JUMPDEST PUSH1 0x20 DUP3 LT DUP2 SUB PUSH2 0x19C JUMPI PUSH2 0x19B PUSH2 0x145 JUMP JUMPDEST JUMPDEST POP SWAP2 SWAP1 POP JUMP JUMPDEST PUSH0 DUP2 SWAP1 POP DUP2 PUSH0 MSTORE PUSH1 0x20 PUSH0 KECCAK256 SWAP1 POP SWAP2 SWAP1 POP JUMP JUMPDEST PUSH0 PUSH1 0x20 PUSH1 0x1F DUP4 ADD DIV SWAP1 POP SWAP2 SWAP1 POP JUMP JUMPDEST PUSH0 DUP3 DUP3 SHL SWAP1 POP SWAP3 SWAP2 POP POP JUMP JUMPDEST PUSH0 PUSH1 0x8 DUP4 MUL PUSH2 0x1FE PUSH32 0xFFFFFFFFFFFFFFFFFFFFFFFFFFFFFFFFFFFFFFFFFFFFFFFFFFFFFFFFFFFFFFFF DUP3 PUSH2 0x1C3 JUMP JUMPDEST PUSH2 0x208 DUP7 DUP4 PUSH2 0x1C3 JUMP JUMPDEST SWAP6 POP DUP1 NOT DUP5 AND SWAP4 POP DUP1 DUP7 AND DUP5 OR SWAP3 POP POP POP SWAP4 SWAP3 POP POP POP JUMP JUMPDEST PUSH0 DUP2 SWAP1 POP SWAP2 SWAP1 POP JUMP JUMPDEST PUSH0 DUP2 SWAP1 POP SWAP2 SWAP1 POP JUMP JUMPDEST PUSH0 PUSH2 0x24C PUSH2 0x247 PUSH2 0x242 DUP5 PUSH2 0x220 JUMP JUMPDEST PUSH2 0x229 JUMP JUMPDEST PUSH2 0x220 JUMP JUMPDEST SWAP1 POP SWAP2 SWAP1 POP JUMP JUMPDEST PUSH0 DUP2 SWAP1 POP SWAP2 SWAP1 POP JUMP JUMPDEST PUSH2 0x265 DUP4 PUSH2 0x232 JUMP JUMPDEST PUSH2 0x279 PUSH2 0x271 DUP3 PUSH2 0x253 JUMP JUMPDEST DUP5 DUP5 SLOAD PUSH2 0x1CF JUMP JUMPDEST DUP3 SSTORE POP POP POP POP JUMP JUMPDEST PUSH0 SWAP1 JUMP JUMPDEST PUSH2 0x28D PUSH2 0x281 JUMP JUMPDEST PUSH2 0x298 DUP2 DUP5 DUP5 PUSH2 0x25C JUMP JUMPDEST POP POP POP JUMP JUMPDEST JUMPDEST DUP2 DUP2 LT ISZERO PUSH2 0x2BB JUMPI PUSH2 0x2B0 PUSH0 DUP3 PUSH2 0x285 JUMP JUMPDEST PUSH1 0x1 DUP2 ADD SWAP1 POP PUSH2 0x29E JUMP JUMPDEST POP POP JUMP JUMPDEST PUSH1 0x1F DUP3 GT ISZERO PUSH2 0x300 JUMPI PUSH2 0x2D1 DUP2 PUSH2 0x1A2 JUMP JUMPDEST PUSH2 0x2DA DUP5 PUSH2 0x1B4 JUMP JUMPDEST DUP2 ADD PUSH1 0x20 DUP6 LT ISZERO PUSH2 0x2E9 JUMPI DUP2 SWAP1 POP JUMPDEST PUSH2 0x2FD PUSH2 0x2F5 DUP6 PUSH2 0x1B4 JUMP JUMPDEST DUP4 ADD DUP3 PUSH2 0x29D JUMP JUMPDEST POP POP JUMPDEST POP POP POP JUMP JUMPDEST PUSH0 DUP3 DUP3 SHR SWAP1 POP SWAP3 SWAP2 POP POP JUMP JUMPDEST PUSH0 PUSH2 0x320 PUSH0 NOT DUP5 PUSH1 0x8 MUL PUSH2 0x305 JUMP JUMPDEST NOT DUP1 DUP4 AND SWAP2 POP POP SWAP3 SWAP2 POP POP JUMP JUMPDEST PUSH0 PUSH2 0x338 DUP4 DUP4 PUSH2 0x311 JUMP JUMPDEST SWAP2 POP DUP3 PUSH1 0x2 MUL DUP3 OR SWAP1 POP SWAP3 SWAP2 POP POP JUMP JUMPDEST PUSH2 0x351 DUP3 PUSH2 0x10E JUMP JUMPDEST PUSH8 0xFFFFFFFFFFFFFFFF DUP2 GT ISZERO PUSH2 0x36A JUMPI PUSH2 0x369 PUSH2 0x118 JUMP JUMPDEST JUMPDEST PUSH2 0x374 DUP3 SLOAD PUSH2 0x172 JUMP JUMPDEST PUSH2 0x37F DUP3 DUP3 DUP6 PUSH2 0x2BF JUMP JUMPDEST PUSH0 PUSH1 0x20 SWAP1 POP PUSH1 0x1F DUP4 GT PUSH1 0x1 DUP2 EQ PUSH2 0x3B0 JUMPI PUSH0 DUP5 ISZERO PUSH2 0x39E JUMPI DUP3 DUP8 ADD MLOAD SWAP1 POP JUMPDEST PUSH2 0x3A8 DUP6 DUP3 PUSH2 0x32D JUMP JUMPDEST DUP7 SSTORE POP PUSH2 0x40F JUMP JUMPDEST PUSH1 0x1F NOT DUP5 AND PUSH2 0x3BE DUP7 PUSH2 0x1A2 JUMP JUMPDEST PUSH0 JUMPDEST DUP3 DUP2 LT ISZERO PUSH2 0x3E5 JUMPI DUP5 DUP10 ADD MLOAD DUP3 SSTORE PUSH1 0x1 DUP3 ADD SWAP2 POP PUSH1 0x20 DUP6 ADD SWAP5 POP PUSH1 0x20 DUP2 ADD SWAP1 POP PUSH2 0x3C0 JUMP JUMPDEST DUP7 DUP4 LT ISZERO PUSH2 0x402 JUMPI DUP5 DUP10 ADD MLOAD PUSH2 0x3FE PUSH1 0x1F DUP10 AND DUP3 PUSH2 0x311 JUMP JUMPDEST DUP4 SSTORE POP JUMPDEST PUSH1 0x1 PUSH1 0x2 DUP9 MUL ADD DUP9 SSTORE POP POP POP JUMPDEST POP POP POP POP POP POP JUMP JUMPDEST PUSH0 DUP2 SWAP1 POP SWAP3 SWAP2 POP POP JUMP JUMPDEST PUSH32 0x536F6C6964697479000000000000000000000000000000000000000000000000 PUSH0 DUP3 ADD MSTORE POP JUMP JUMPDEST PUSH0 PUSH2 0x455 PUSH1 0x8 DUP4 PUSH2 0x417 JUMP JUMPDEST SWAP2 POP PUSH2 0x460 DUP3 PUSH2 0x421 JUMP JUMPDEST PUSH1 0x8 DUP3 ADD SWAP1 POP SWAP2 SWAP1 POP JUMP JUMPDEST PUSH0 PUSH2 0x475 DUP3 PUSH2 0x449 JUMP JUMPDEST SWAP2 POP DUP2 SWAP1 POP SWAP2 SWAP1 POP JUMP JUMPDEST PUSH2 0xB51 DUP1 PUSH2 0x48C PUSH0 CODECOPY PUSH0 RETURN INVALID PUSH1 0x80 PUSH1 0x40 MSTORE CALLVALUE DUP1 ISZERO PUSH2 0xF JUMPI PUSH0 DUP1 REVERT JUMPDEST POP PUSH1 0x4 CALLDATASIZE LT PUSH2 0xB2 JUMPI PUSH0 CALLDATALOAD PUSH1 0xE0 SHR DUP1 PUSH4 0x820D0E49 GT PUSH2 0x6F JUMPI DUP1 PUSH4 0x820D0E49 EQ PUSH2 0x164 JUMPI DUP1 PUSH4 0xADEF6CA8 EQ PUSH2 0x182 JUMPI DUP1 PUSH4 0xC3CCF402 EQ PUSH2 0x1A0 JUMPI DUP1 PUSH4 0xC914955D EQ PUSH2 0x1BC JUMPI DUP1 PUSH4 0xDE5477FD EQ PUSH2 0x1D8 JUMPI DUP1 PUSH4 0xED6D9096 EQ PUSH2 0x1F6 JUMPI PUSH2 0xB2 JUMP JUMPDEST DUP1 PUSH4 0xA56CB1D EQ PUSH2 0xB6 JUMPI DUP1 PUSH4 0x117B2467 EQ PUSH2 0xD2 JUMPI DUP1 PUSH4 0x1BD72F15 EQ PUSH2 0xF0 JUMPI DUP1 PUSH4 0x22EBBB36 EQ PUSH2 0x10C JUMPI DUP1 PUSH4 0x2653FA2D EQ PUSH2 0x12A JUMPI DUP1 PUSH4 0x4115B744 EQ PUSH2 0x148 JUMPI JUMPDEST PUSH0 DUP1 REVERT JUMPDEST PUSH2 0xD0 PUSH1 0x4 DUP1 CALLDATASIZE SUB DUP2 ADD SWAP1 PUSH2 0xCB SWAP2 SWAP1 PUSH2 0x3BB JUMP JUMPDEST PUSH2 0x212 JUMP JUMPDEST STOP JUMPDEST PUSH2 0xDA PUSH2 0x21C JUMP JUMPDEST PUSH1 0x40 MLOAD PUSH2 0xE7 SWAP2 SWAP1 PUSH2 0x456 JUMP JUMPDEST PUSH1 0x40 MLOAD DUP1 SWAP2 SUB SWAP1 RETURN JUMPDEST PUSH2 0x10A PUSH1 0x4 DUP1 CALLDATASIZE SUB DUP2 ADD SWAP1 PUSH2 0x105 SWAP2 SWAP1 PUSH2 0x4A9 JUMP JUMPDEST PUSH2 0x2A8 JUMP JUMPDEST STOP JUMPDEST PUSH2 0x114 PUSH2 0x2B2 JUMP JUMPDEST PUSH1 0x40 MLOAD PUSH2 0x121 SWAP2 SWAP1 PUSH2 0x4E3 JUMP JUMPDEST PUSH1 0x40 MLOAD DUP1 SWAP2 SUB SWAP1 RETURN JUMPDEST PUSH2 0x132 PUSH2 0x2B8 JUMP JUMPDEST PUSH1 0x40 MLOAD PUSH2 0x13F SWAP2 SWAP1 PUSH2 0x514 JUMP JUMPDEST PUSH1 0x40 MLOAD DUP1 SWAP2 SUB SWAP1 RETURN JUMPDEST PUSH2 0x162 PUSH1 0x4 DUP1 CALLDATASIZE SUB DUP2 ADD SWAP1 PUSH2 0x15D SWAP2 SWAP1 PUSH2 0x562 JUMP JUMPDEST PUSH2 0x2BD JUMP JUMPDEST STOP JUMPDEST PUSH2 0x16C PUSH2 0x2DA JUMP JUMPDEST PUSH1 0x40 MLOAD PUSH2 0x179 SWAP2 SWAP1 PUSH2 0x59C JUMP JUMPDEST PUSH1 0x40 MLOAD DUP1 SWAP2 SUB SWAP1 RETURN JUMPDEST PUSH2 0x18A PUSH2 0x2E0 JUMP JUMPDEST PUSH1 0x40 MLOAD PUSH2 0x197 SWAP2 SWAP1 PUSH2 0x5C4 JUMP JUMPDEST PUSH1 0x40 MLOAD DUP1 SWAP2 SUB SWAP1 RETURN JUMPDEST PUSH2 0x1BA PUSH1 0x4 DUP1 CALLDATASIZE SUB DUP2 ADD SWAP1 PUSH2 0x1B5 SWAP2 SWAP1 PUSH2 0x709 JUMP JUMPDEST PUSH2 0x2F3 JUMP JUMPDEST STOP JUMPDEST PUSH2 0x1D6 PUSH1 0x4 DUP1 CALLDATASIZE SUB DUP2 ADD SWAP1 PUSH2 0x1D1 SWAP2 SWAP1 PUSH2 0x77A JUMP JUMPDEST PUSH2 0x306 JUMP JUMPDEST STOP JUMPDEST PUSH2 0x1E0 PUSH2 0x30F JUMP JUMPDEST PUSH1 0x40 MLOAD PUSH2 0x1ED SWAP2 SWAP1 PUSH2 0x7E4 JUMP JUMPDEST PUSH1 0x40 MLOAD DUP1 SWAP2 SUB SWAP1 RETURN JUMPDEST PUSH2 0x210 PUSH1 0x4 DUP1 CALLDATASIZE SUB DUP2 ADD SWAP1 PUSH2 0x20B SWAP2 SWAP1 PUSH2 0x827 JUMP JUMPDEST PUSH2 0x334 JUMP JUMPDEST STOP JUMPDEST DUP1 PUSH1 0x4 DUP2 SWAP1 SSTORE POP POP JUMP JUMPDEST PUSH1 0x3 DUP1 SLOAD PUSH2 0x229 SWAP1 PUSH2 0x87F JUMP JUMPDEST DUP1 PUSH1 0x1F ADD PUSH1 0x20 DUP1 SWAP2 DIV MUL PUSH1 0x20 ADD PUSH1 0x40 MLOAD SWAP1 DUP2 ADD PUSH1 0x40 MSTORE DUP1 SWAP3 SWAP2 SWAP1 DUP2 DUP2 MSTORE PUSH1 0x20 ADD DUP3 DUP1 SLOAD PUSH2 0x255 SWAP1 PUSH2 0x87F JUMP JUMPDEST DUP1 ISZERO PUSH2 0x2A0 JUMPI DUP1 PUSH1 0x1F LT PUSH2 0x277 JUMPI PUSH2 0x100 DUP1 DUP4 SLOAD DIV MUL DUP4 MSTORE SWAP2 PUSH1 0x20 ADD SWAP2 PUSH2 0x2A0 JUMP JUMPDEST DUP3 ADD SWAP2 SWAP1 PUSH0 MSTORE PUSH1 0x20 PUSH0 KECCAK256 SWAP1 JUMPDEST DUP2 SLOAD DUP2 MSTORE SWAP1 PUSH1 0x1 ADD SWAP1 PUSH1 0x20 ADD DUP1 DUP4 GT PUSH2 0x283 JUMPI DUP3 SWAP1 SUB PUSH1 0x1F AND DUP3 ADD SWAP2 JUMPDEST POP POP POP POP POP DUP2 JUMP JUMPDEST DUP1 PUSH1 0x1 DUP2 SWAP1 SSTORE POP POP JUMP JUMPDEST PUSH1 0x4 SLOAD DUP2 JUMP JUMPDEST PUSH0 SLOAD DUP2 JUMP JUMPDEST DUP1 PUSH1 0x2 PUSH1 0x14 PUSH2 0x100 EXP DUP2 SLOAD DUP2 PUSH1 0xFF MUL NOT AND SWAP1 DUP4 ISZERO ISZERO MUL OR SWAP1 SSTORE POP POP JUMP JUMPDEST PUSH1 0x1 SLOAD DUP2 JUMP JUMPDEST PUSH1 0x2 PUSH1 0x14 SWAP1 SLOAD SWAP1 PUSH2 0x100 EXP SWAP1 DIV PUSH1 0xFF AND DUP2 JUMP JUMPDEST DUP1 PUSH1 0x3 SWAP1 DUP2 PUSH2 0x302 SWAP2 SWAP1 PUSH2 0xA4C JUMP JUMPDEST POP POP JUMP JUMPDEST DUP1 PUSH0 DUP2 SWAP1 SSTORE POP POP JUMP JUMPDEST PUSH1 0x2 PUSH0 SWAP1 SLOAD SWAP1 PUSH2 0x100 EXP SWAP1 DIV PUSH20 0xFFFFFFFFFFFFFFFFFFFFFFFFFFFFFFFFFFFFFFFF AND DUP2 JUMP JUMPDEST DUP1 PUSH1 0x2 PUSH0 PUSH2 0x100 EXP DUP2 SLOAD DUP2 PUSH20 0xFFFFFFFFFFFFFFFFFFFFFFFFFFFFFFFFFFFFFFFF MUL NOT AND SWAP1 DUP4 PUSH20 0xFFFFFFFFFFFFFFFFFFFFFFFFFFFFFFFFFFFFFFFF AND MUL OR SWAP1 SSTORE POP POP JUMP JUMPDEST PUSH0 PUSH1 0x40 MLOAD SWAP1 POP SWAP1 JUMP JUMPDEST PUSH0 DUP1 REVERT JUMPDEST PUSH0 DUP1 REVERT JUMPDEST PUSH0 DUP2 SWAP1 POP SWAP2 SWAP1 POP JUMP JUMPDEST PUSH2 0x39A DUP2 PUSH2 0x388 JUMP JUMPDEST DUP2 EQ PUSH2 0x3A4 JUMPI PUSH0 DUP1 REVERT JUMPDEST POP JUMP JUMPDEST PUSH0 DUP2 CALLDATALOAD SWAP1 POP PUSH2 0x3B5 DUP2 PUSH2 0x391 JUMP JUMPDEST SWAP3 SWAP2 POP POP JUMP JUMPDEST PUSH0 PUSH1 0x20 DUP3 DUP5 SUB SLT ISZERO PUSH2 0x3D0 JUMPI PUSH2 0x3CF PUSH2 0x380 JUMP JUMPDEST JUMPDEST PUSH0 PUSH2 0x3DD DUP5 DUP3 DUP6 ADD PUSH2 0x3A7 JUMP JUMPDEST SWAP2 POP POP SWAP3 SWAP2 POP POP JUMP JUMPDEST PUSH0 DUP2 MLOAD SWAP1 POP SWAP2 SWAP1 POP JUMP JUMPDEST PUSH0 DUP3 DUP3 MSTORE PUSH1 0x20 DUP3 ADD SWAP1 POP SWAP3 SWAP2 POP POP JUMP JUMPDEST DUP3 DUP2 DUP4 MCOPY PUSH0 DUP4 DUP4 ADD MSTORE POP POP POP JUMP JUMPDEST PUSH0 PUSH1 0x1F NOT PUSH1 0x1F DUP4 ADD AND SWAP1 POP SWAP2 SWAP1 POP JUMP JUMPDEST PUSH0 PUSH2 0x428 DUP3 PUSH2 0x3E6 JUMP JUMPDEST PUSH2 0x432 DUP2 DUP6 PUSH2 0x3F0 JUMP JUMPDEST SWAP4 POP PUSH2 0x442 DUP2 DUP6 PUSH1 0x20 DUP7 ADD PUSH2 0x400 JUMP JUMPDEST PUSH2 0x44B DUP2 PUSH2 0x40E JUMP JUMPDEST DUP5 ADD SWAP2 POP POP SWAP3 SWAP2 POP POP JUMP JUMPDEST PUSH0 PUSH1 0x20 DUP3 ADD SWAP1 POP DUP2 DUP2 SUB PUSH0 DUP4 ADD MSTORE PUSH2 0x46E DUP2 DUP5 PUSH2 0x41E JUMP JUMPDEST SWAP1 POP SWAP3 SWAP2 POP POP JUMP JUMPDEST PUSH0 DUP2 SWAP1 POP SWAP2 SWAP1 POP JUMP JUMPDEST PUSH2 0x488 DUP2 PUSH2 0x476 JUMP JUMPDEST DUP2 EQ PUSH2 0x492 JUMPI PUSH0 DUP1 REVERT JUMPDEST POP JUMP JUMPDEST PUSH0 DUP2 CALLDATALOAD SWAP1 POP PUSH2 0x4A3 DUP2 PUSH2 0x47F JUMP JUMPDEST SWAP3 SWAP2 POP POP JUMP JUMPDEST PUSH0 PUSH1 0x20 DUP3 DUP5 SUB SLT ISZERO PUSH2 0x4BE JUMPI PUSH2 0x4BD PUSH2 0x380 JUMP JUMPDEST JUMPDEST PUSH0 PUSH2 0x4CB DUP5 DUP3 DUP6 ADD PUSH2 0x495 JUMP JUMPDEST SWAP2 POP POP SWAP3 SWAP2 POP POP JUMP JUMPDEST PUSH2 0x4DD DUP2 PUSH2 0x388 JUMP JUMPDEST DUP3 MSTORE POP POP JUMP JUMPDEST PUSH0 PUSH1 0x20 DUP3 ADD SWAP1 POP PUSH2 0x4F6 PUSH0 DUP4 ADD DUP5 PUSH2 0x4D4 JUMP JUMPDEST SWAP3 SWAP2 POP POP JUMP JUMPDEST PUSH0 DUP2 SWAP1 POP SWAP2 SWAP1 POP JUMP JUMPDEST PUSH2 0x50E DUP2 PUSH2 0x4FC JUMP JUMPDEST DUP3 MSTORE POP POP JUMP JUMPDEST PUSH0 PUSH1 0x20 DUP3 ADD SWAP1 POP PUSH2 0x527 PUSH0 DUP4 ADD DUP5 PUSH2 0x505 JUMP JUMPDEST SWAP3 SWAP2 POP POP JUMP JUMPDEST PUSH0 DUP2 ISZERO ISZERO SWAP1 POP SWAP2 SWAP1 POP JUMP JUMPDEST PUSH2 0x541 DUP2 PUSH2 0x52D JUMP JUMPDEST DUP2 EQ PUSH2 0x54B JUMPI PUSH0 DUP1 REVERT JUMPDEST POP JUMP JUMPDEST PUSH0 DUP2 CALLDATALOAD SWAP1 POP PUSH2 0x55C DUP2 PUSH2 0x538 JUMP JUMPDEST SWAP3 SWAP2 POP POP JUMP JUMPDEST PUSH0 PUSH1 0x20 DUP3 DUP5 SUB SLT ISZERO PUSH2 0x577 JUMPI PUSH2 0x576 PUSH2 0x380 JUMP JUMPDEST JUMPDEST PUSH0 PUSH2 0x584 DUP5 DUP3 DUP6 ADD PUSH2 0x54E JUMP JUMPDEST SWAP2 POP POP SWAP3 SWAP2 POP POP JUMP JUMPDEST PUSH2 0x596 DUP2 PUSH2 0x476 JUMP JUMPDEST DUP3 MSTORE POP POP JUMP JUMPDEST PUSH0 PUSH1 0x20 DUP3 ADD SWAP1 POP PUSH2 0x5AF PUSH0 DUP4 ADD DUP5 PUSH2 0x58D JUMP JUMPDEST SWAP3 SWAP2 POP POP JUMP JUMPDEST PUSH2 0x5BE DUP2 PUSH2 0x52D JUMP JUMPDEST DUP3 MSTORE POP POP JUMP JUMPDEST PUSH0 PUSH1 0x20 DUP3 ADD SWAP1 POP PUSH2 0x5D7 PUSH0 DUP4 ADD DUP5 PUSH2 0x5B5 JUMP JUMPDEST SWAP3 SWAP2 POP POP JUMP JUMPDEST PUSH0 DUP1 REVERT JUMPDEST PUSH0 DUP1 REVERT JUMPDEST PUSH32 0x4E487B7100000000000000000000000000000000000000000000000000000000 PUSH0 MSTORE PUSH1 0x41 PUSH1 0x4 MSTORE PUSH1 0x24 PUSH0 REVERT JUMPDEST PUSH2 0x61B DUP3 PUSH2 0x40E JUMP JUMPDEST DUP2 ADD DUP2 DUP2 LT PUSH8 0xFFFFFFFFFFFFFFFF DUP3 GT OR ISZERO PUSH2 0x63A JUMPI PUSH2 0x639 PUSH2 0x5E5 JUMP JUMPDEST JUMPDEST DUP1 PUSH1 0x40 MSTORE POP POP POP JUMP JUMPDEST PUSH0 PUSH2 0x64C PUSH2 0x377 JUMP JUMPDEST SWAP1 POP PUSH2 0x658 DUP3 DUP3 PUSH2 0x612 JUMP JUMPDEST SWAP2 SWAP1 POP JUMP JUMPDEST PUSH0 PUSH8 0xFFFFFFFFFFFFFFFF DUP3 GT ISZERO PUSH2 0x677 JUMPI PUSH2 0x676 PUSH2 0x5E5 JUMP JUMPDEST JUMPDEST PUSH2 0x680 DUP3 PUSH2 0x40E JUMP JUMPDEST SWAP1 POP PUSH1 0x20 DUP2 ADD SWAP1 POP SWAP2 SWAP1 POP JUMP JUMPDEST DUP3 DUP2 DUP4 CALLDATACOPY PUSH0 DUP4 DUP4 ADD MSTORE POP POP POP JUMP JUMPDEST PUSH0 PUSH2 0x6AD PUSH2 0x6A8 DUP5 PUSH2 0x65D JUMP JUMPDEST PUSH2 0x643 JUMP JUMPDEST SWAP1 POP DUP3 DUP2 MSTORE PUSH1 0x20 DUP2 ADD DUP5 DUP5 DUP5 ADD GT ISZERO PUSH2 0x6C9 JUMPI PUSH2 0x6C8 PUSH2 0x5E1 JUMP JUMPDEST JUMPDEST PUSH2 0x6D4 DUP5 DUP3 DUP6 PUSH2 0x68D JUMP JUMPDEST POP SWAP4 SWAP3 POP POP POP JUMP JUMPDEST PUSH0 DUP3 PUSH1 0x1F DUP4 ADD SLT PUSH2 0x6F0 JUMPI PUSH2 0x6EF PUSH2 0x5DD JUMP JUMPDEST JUMPDEST DUP2 CALLDATALOAD PUSH2 0x700 DUP5 DUP3 PUSH1 0x20 DUP7 ADD PUSH2 0x69B JUMP JUMPDEST SWAP2 POP POP SWAP3 SWAP2 POP POP JUMP JUMPDEST PUSH0 PUSH1 0x20 DUP3 DUP5 SUB SLT ISZERO PUSH2 0x71E JUMPI PUSH2 0x71D PUSH2 0x380 JUMP JUMPDEST JUMPDEST PUSH0 DUP3 ADD CALLDATALOAD PUSH8 0xFFFFFFFFFFFFFFFF DUP2 GT ISZERO PUSH2 0x73B JUMPI PUSH2 0x73A PUSH2 0x384 JUMP JUMPDEST JUMPDEST PUSH2 0x747 DUP5 DUP3 DUP6 ADD PUSH2 0x6DC JUMP JUMPDEST SWAP2 POP POP SWAP3 SWAP2 POP POP JUMP JUMPDEST PUSH2 0x759 DUP2 PUSH2 0x4FC JUMP JUMPDEST DUP2 EQ PUSH2 0x763 JUMPI PUSH0 DUP1 REVERT JUMPDEST POP JUMP JUMPDEST PUSH0 DUP2 CALLDATALOAD SWAP1 POP PUSH2 0x774 DUP2 PUSH2 0x750 JUMP JUMPDEST SWAP3 SWAP2 POP POP JUMP JUMPDEST PUSH0 PUSH1 0x20 DUP3 DUP5 SUB SLT ISZERO PUSH2 0x78F JUMPI PUSH2 0x78E PUSH2 0x380 JUMP JUMPDEST JUMPDEST PUSH0 PUSH2 0x79C DUP5 DUP3 DUP6 ADD PUSH2 0x766 JUMP JUMPDEST SWAP2 POP POP SWAP3 SWAP2 POP POP JUMP JUMPDEST PUSH0 PUSH20 0xFFFFFFFFFFFFFFFFFFFFFFFFFFFFFFFFFFFFFFFF DUP3 AND SWAP1 POP SWAP2 SWAP1 POP JUMP JUMPDEST PUSH0 PUSH2 0x7CE DUP3 PUSH2 0x7A5 JUMP JUMPDEST SWAP1 POP SWAP2 SWAP1 POP JUMP JUMPDEST PUSH2 0x7DE DUP2 PUSH2 0x7C4 JUMP JUMPDEST DUP3 MSTORE POP POP JUMP JUMPDEST PUSH0 PUSH1 0x20 DUP3 ADD SWAP1 POP PUSH2 0x7F7 PUSH0 DUP4 ADD DUP5 PUSH2 0x7D5 JUMP JUMPDEST SWAP3 SWAP2 POP POP JUMP JUMPDEST PUSH2 0x806 DUP2 PUSH2 0x7C4 JUMP JUMPDEST DUP2 EQ PUSH2 0x810 JUMPI PUSH0 DUP1 REVERT JUMPDEST POP JUMP JUMPDEST PUSH0 DUP2 CALLDATALOAD SWAP1 POP PUSH2 0x821 DUP2 PUSH2 0x7FD JUMP JUMPDEST SWAP3 SWAP2 POP POP JUMP JUMPDEST PUSH0 PUSH1 0x20 DUP3 DUP5 SUB SLT ISZERO PUSH2 0x83C JUMPI PUSH2 0x83B PUSH2 0x380 JUMP JUMPDEST JUMPDEST PUSH0 PUSH2 0x849 DUP5 DUP3 DUP6 ADD PUSH2 0x813 JUMP JUMPDEST SWAP2 POP POP SWAP3 SWAP2 POP POP JUMP JUMPDEST PUSH32 0x4E487B7100000000000000000000000000000000000000000000000000000000 PUSH0 MSTORE PUSH1 0x22 PUSH1 0x4 MSTORE PUSH1 0x24 PUSH0 REVERT JUMPDEST PUSH0 PUSH1 0x2 DUP3 DIV SWAP1 POP PUSH1 0x1 DUP3 AND DUP1 PUSH2 0x896 JUMPI PUSH1 0x7F DUP3 AND SWAP2 POP JUMPDEST PUSH1 0x20 DUP3 LT DUP2 SUB PUSH2 0x8A9 JUMPI PUSH2 0x8A8 PUSH2 0x852 JUMP JUMPDEST JUMPDEST POP SWAP2 SWAP1 POP JUMP JUMPDEST PUSH0 DUP2 SWAP1 POP DUP2 PUSH0 MSTORE PUSH1 0x20 PUSH0 KECCAK256 SWAP1 POP SWAP2 SWAP1 POP JUMP JUMPDEST PUSH0 PUSH1 0x20 PUSH1 0x1F DUP4 ADD DIV SWAP1 POP SWAP2 SWAP1 POP JUMP JUMPDEST PUSH0 DUP3 DUP3 SHL SWAP1 POP SWAP3 SWAP2 POP POP JUMP JUMPDEST PUSH0 PUSH1 0x8 DUP4 MUL PUSH2 0x90B PUSH32 0xFFFFFFFFFFFFFFFFFFFFFFFFFFFFFFFFFFFFFFFFFFFFFFFFFFFFFFFFFFFFFFFF DUP3 PUSH2 0x8D0 JUMP JUMPDEST PUSH2 0x915 DUP7 DUP4 PUSH2 0x8D0 JUMP JUMPDEST SWAP6 POP DUP1 NOT DUP5 AND SWAP4 POP DUP1 DUP7 AND DUP5 OR SWAP3 POP POP POP SWAP4 SWAP3 POP POP POP JUMP JUMPDEST PUSH0 DUP2 SWAP1 POP SWAP2 SWAP1 POP JUMP JUMPDEST PUSH0 PUSH2 0x950 PUSH2 0x94B PUSH2 0x946 DUP5 PUSH2 0x4FC JUMP JUMPDEST PUSH2 0x92D JUMP JUMPDEST PUSH2 0x4FC JUMP JUMPDEST SWAP1 POP SWAP2 SWAP1 POP JUMP JUMPDEST PUSH0 DUP2 SWAP1 POP SWAP2 SWAP1 POP JUMP JUMPDEST PUSH2 0x969 DUP4 PUSH2 0x936 JUMP JUMPDEST PUSH2 0x97D PUSH2 0x975 DUP3 PUSH2 0x957 JUMP JUMPDEST DUP5 DUP5 SLOAD PUSH2 0x8DC JUMP JUMPDEST DUP3 SSTORE POP POP POP POP JUMP JUMPDEST PUSH0 SWAP1 JUMP JUMPDEST PUSH2 0x991 PUSH2 0x985 JUMP JUMPDEST PUSH2 0x99C DUP2 DUP5 DUP5 PUSH2 0x960 JUMP JUMPDEST POP POP POP JUMP JUMPDEST JUMPDEST DUP2 DUP2 LT ISZERO PUSH2 0x9BF JUMPI PUSH2 0x9B4 PUSH0 DUP3 PUSH2 0x989 JUMP JUMPDEST PUSH1 0x1 DUP2 ADD SWAP1 POP PUSH2 0x9A2 JUMP JUMPDEST POP POP JUMP JUMPDEST PUSH1 0x1F DUP3 GT ISZERO PUSH2 0xA04 JUMPI PUSH2 0x9D5 DUP2 PUSH2 0x8AF JUMP JUMPDEST PUSH2 0x9DE DUP5 PUSH2 0x8C1 JUMP JUMPDEST DUP2 ADD PUSH1 0x20 DUP6 LT ISZERO PUSH2 0x9ED JUMPI DUP2 SWAP1 POP JUMPDEST PUSH2 0xA01 PUSH2 0x9F9 DUP6 PUSH2 0x8C1 JUMP JUMPDEST DUP4 ADD DUP3 PUSH2 0x9A1 JUMP JUMPDEST POP POP JUMPDEST POP POP POP JUMP JUMPDEST PUSH0 DUP3 DUP3 SHR SWAP1 POP SWAP3 SWAP2 POP POP JUMP JUMPDEST PUSH0 PUSH2 0xA24 PUSH0 NOT DUP5 PUSH1 0x8 MUL PUSH2 0xA09 JUMP JUMPDEST NOT DUP1 DUP4 AND SWAP2 POP POP SWAP3 SWAP2 POP POP JUMP JUMPDEST PUSH0 PUSH2 0xA3C DUP4 DUP4 PUSH2 0xA15 JUMP JUMPDEST SWAP2 POP DUP3 PUSH1 0x2 MUL DUP3 OR SWAP1 POP SWAP3 SWAP2 POP POP JUMP JUMPDEST PUSH2 0xA55 DUP3 PUSH2 0x3E6 JUMP JUMPDEST PUSH8 0xFFFFFFFFFFFFFFFF DUP2 GT ISZERO PUSH2 0xA6E JUMPI PUSH2 0xA6D PUSH2 0x5E5 JUMP JUMPDEST JUMPDEST PUSH2 0xA78 DUP3 SLOAD PUSH2 0x87F JUMP JUMPDEST PUSH2 0xA83 DUP3 DUP3 DUP6 PUSH2 0x9C3 JUMP JUMPDEST PUSH0 PUSH1 0x20 SWAP1 POP PUSH1 0x1F DUP4 GT PUSH1 0x1 DUP2 EQ PUSH2 0xAB4 JUMPI PUSH0 DUP5 ISZERO PUSH2 0xAA2 JUMPI DUP3 DUP8 ADD MLOAD SWAP1 POP JUMPDEST PUSH2 0xAAC DUP6 DUP3 PUSH2 0xA31 JUMP JUMPDEST DUP7 SSTORE POP PUSH2 0xB13 JUMP JUMPDEST PUSH1 0x1F NOT DUP5 AND PUSH2 0xAC2 DUP7 PUSH2 0x8AF JUMP JUMPDEST PUSH0 JUMPDEST DUP3 DUP2 LT ISZERO PUSH2 0xAE9 JUMPI DUP5 DUP10 ADD MLOAD DUP3 SSTORE PUSH1 0x1 DUP3 ADD SWAP2 POP PUSH1 0x20 DUP6 ADD SWAP5 POP PUSH1 0x20 DUP2 ADD SWAP1 POP PUSH2 0xAC4 JUMP JUMPDEST DUP7 DUP4 LT ISZERO PUSH2 0xB06 JUMPI DUP5 DUP10 ADD MLOAD PUSH2 0xB02 PUSH1 0x1F DUP10 AND DUP3 PUSH2 0xA15 JUMP JUMPDEST DUP4 SSTORE POP JUMPDEST PUSH1 0x1 PUSH1 0x2 DUP9 MUL ADD DUP9 SSTORE POP POP POP JUMPDEST POP POP POP POP POP POP JUMP INVALID LOG2 PUSH5 0x6970667358 0x22 SLT KECCAK256 CREATE2 0xC9 PUSH27 0x18DE1C8BA8DAAD454D917BC987A0E3B0B21411D75330F5F13CF5C5 PUSH12 0xEB64736F6C63430008190033 "
	},
	"abi": [
		{
			"inputs": [],
			"stateMutability": "nonpayable",
			"type": "constructor"
		},
		{
			"inputs": [],
			"name": "addressVariable",
			"outputs": [
				{
					"internalType": "address",
					"name": "",
					"type": "address"
				}
			],
			"stateMutability": "view",
			"type": "function"
		},
		{
			"inputs": [],
			"name": "boolVariable",
			"outputs": [
				{
					"internalType": "bool",
					"name": "",
					"type": "bool"
				}
			],
			"stateMutability": "view",
			"type": "function"
		},
		{
			"inputs": [],
			"name": "bytesVariable",
			"outputs": [
				{
					"internalType": "bytes32",
					"name": "",
					"type": "bytes32"
				}
			],
			"stateMutability": "view",
			"type": "function"
		},
		{
			"inputs": [],
			"name": "intVariable",
			"outputs": [
				{
					"internalType": "int256",
					"name": "",
					"type": "int256"
				}
			],
			"stateMutability": "view",
			"type": "function"
		},
		{
			"inputs": [],
			"name": "stringVariable",
			"outputs": [
				{
					"internalType": "string",
					"name": "",
					"type": "string"
				}
			],
			"stateMutability": "view",
			"type": "function"
		},
		{
			"inputs": [],
			"name": "uintVariable",
			"outputs": [
				{
					"internalType": "uint256",
					"name": "",
					"type": "uint256"
				}
			],
			"stateMutability": "view",
			"type": "function"
		},
		{
			"inputs": [
				{
					"internalType": "address",
					"name": "newValue",
					"type": "address"
				}
			],
			"name": "updateAddress",
			"outputs": [],
			"stateMutability": "nonpayable",
			"type": "function"
		},
		{
			"inputs": [
				{
					"internalType": "bool",
					"name": "newValue",
					"type": "bool"
				}
			],
			"name": "updateBool",
			"outputs": [],
			"stateMutability": "nonpayable",
			"type": "function"
		},
		{
			"inputs": [
				{
					"internalType": "bytes32",
					"name": "newValue",
					"type": "bytes32"
				}
			],
			"name": "updateBytes",
			"outputs": [],
			"stateMutability": "nonpayable",
			"type": "function"
		},
		{
			"inputs": [
				{
					"internalType": "int256",
					"name": "newValue",
					"type": "int256"
				}
			],
			"name": "updateInt",
			"outputs": [],
			"stateMutability": "nonpayable",
			"type": "function"
		},
		{
			"inputs": [
				{
					"internalType": "string",
					"name": "newValue",
					"type": "string"
				}
			],
			"name": "updateString",
			"outputs": [],
			"stateMutability": "nonpayable",
			"type": "function"
		},
		{
			"inputs": [
				{
					"internalType": "uint256",
					"name": "newValue",
					"type": "uint256"
				}
			],
			"name": "updateUint",
			"outputs": [],
			"stateMutability": "nonpayable",
			"type": "function"
		}
	],
	"storageLayout": {
		"storage": [
			{
				"astId": 3,
				"contract": "contracts/HelloWorld1.sol:ValueTypeDemo",
				"label": "uintVariable",
				"offset": 0,
				"slot": "0",
				"type": "t_uint256"
			},
			{
				"astId": 5,
				"contract": "contracts/HelloWorld1.sol:ValueTypeDemo",
				"label": "intVariable",
				"offset": 0,
				"slot": "1",
				"type": "t_int256"
			},
			{
				"astId": 7,
				"contract": "contracts/HelloWorld1.sol:ValueTypeDemo",
				"label": "addressVariable",
				"offset": 0,
				"slot": "2",
				"type": "t_address"
			},
			{
				"astId": 9,
				"contract": "contracts/HelloWorld1.sol:ValueTypeDemo",
				"label": "boolVariable",
				"offset": 20,
				"slot": "2",
				"type": "t_bool"
			},
			{
				"astId": 11,
				"contract": "contracts/HelloWorld1.sol:ValueTypeDemo",
				"label": "stringVariable",
				"offset": 0,
				"slot": "3",
				"type": "t_string_storage"
			},
			{
				"astId": 13,
				"contract": "contracts/HelloWorld1.sol:ValueTypeDemo",
				"label": "bytesVariable",
				"offset": 0,
				"slot": "4",
				"type": "t_bytes32"
			}
		],
		"types": {
			"t_address": {
				"encoding": "inplace",
				"label": "address",
				"numberOfBytes": "20"
			},
			"t_bool": {
				"encoding": "inplace",
				"label": "bool",
				"numberOfBytes": "1"
			},
			"t_bytes32": {
				"encoding": "inplace",
				"label": "bytes32",
				"numberOfBytes": "32"
			},
			"t_int256": {
				"encoding": "inplace",
				"label": "int256",
				"numberOfBytes": "32"
			},
			"t_string_storage": {
				"encoding": "bytes",
				"label": "string",
				"numberOfBytes": "32"
			},
			"t_uint256": {
				"encoding": "inplace",
				"label": "uint256",
				"numberOfBytes": "32"
			}
		}
	},
	"web3Deploy": "var valuetypedemoContract = new web3.eth.Contract([{\"inputs\":[],\"stateMutability\":\"nonpayable\",\"type\":\"constructor\"},{\"inputs\":[],\"name\":\"addressVariable\",\"outputs\":[{\"internalType\":\"address\",\"name\":\"\",\"type\":\"address\"}],\"stateMutability\":\"view\",\"type\":\"function\"},{\"inputs\":[],\"name\":\"boolVariable\",\"outputs\":[{\"internalType\":\"bool\",\"name\":\"\",\"type\":\"bool\"}],\"stateMutability\":\"view\",\"type\":\"function\"},{\"inputs\":[],\"name\":\"bytesVariable\",\"outputs\":[{\"internalType\":\"bytes32\",\"name\":\"\",\"type\":\"bytes32\"}],\"stateMutability\":\"view\",\"type\":\"function\"},{\"inputs\":[],\"name\":\"intVariable\",\"outputs\":[{\"internalType\":\"int256\",\"name\":\"\",\"type\":\"int256\"}],\"stateMutability\":\"view\",\"type\":\"function\"},{\"inputs\":[],\"name\":\"stringVariable\",\"outputs\":[{\"internalType\":\"string\",\"name\":\"\",\"type\":\"string\"}],\"stateMutability\":\"view\",\"type\":\"function\"},{\"inputs\":[],\"name\":\"uintVariable\",\"outputs\":[{\"internalType\":\"uint256\",\"name\":\"\",\"type\":\"uint256\"}],\"stateMutability\":\"view\",\"type\":\"function\"},{\"inputs\":[{\"internalType\":\"address\",\"name\":\"newValue\",\"type\":\"address\"}],\"name\":\"updateAddress\",\"outputs\":[],\"stateMutability\":\"nonpayable\",\"type\":\"function\"},{\"inputs\":[{\"internalType\":\"bool\",\"name\":\"newValue\",\"type\":\"bool\"}],\"name\":\"updateBool\",\"outputs\":[],\"stateMutability\":\"nonpayable\",\"type\":\"function\"},{\"inputs\":[{\"internalType\":\"bytes32\",\"name\":\"newValue\",\"type\":\"bytes32\"}],\"name\":\"updateBytes\",\"outputs\":[],\"stateMutability\":\"nonpayable\",\"type\":\"function\"},{\"inputs\":[{\"internalType\":\"int256\",\"name\":\"newValue\",\"type\":\"int256\"}],\"name\":\"updateInt\",\"outputs\":[],\"stateMutability\":\"nonpayable\",\"type\":\"function\"},{\"inputs\":[{\"internalType\":\"string\",\"name\":\"newValue\",\"type\":\"string\"}],\"name\":\"updateString\",\"outputs\":[],\"stateMutability\":\"nonpayable\",\"type\":\"function\"},{\"inputs\":[{\"internalType\":\"uint256\",\"name\":\"newValue\",\"type\":\"uint256\"}],\"name\":\"updateUint\",\"outputs\":[],\"stateMutability\":\"nonpayable\",\"type\":\"function\"}]);\nvar valuetypedemo = valuetypedemoContract.deploy({\n     data: '0x608060405234801561000f575f80fd5b50600a5f819055507ffffffffffffffffffffffffffffffffffffffffffffffffffffffffffffffffb6001819055503360025f6101000a81548173ffffffffffffffffffffffffffffffffffffffff021916908373ffffffffffffffffffffffffffffffffffffffff1602179055506001600260146101000a81548160ff0219169083151502179055506040518060400160405280600d81526020017f48656c6c6f2c20576f726c642100000000000000000000000000000000000000815250600390816100dd9190610348565b506040516020016100ed9061046b565b6040516020818303038152906040528051906020012060048190555061047f565b5f81519050919050565b7f4e487b71000000000000000000000000000000000000000000000000000000005f52604160045260245ffd5b7f4e487b71000000000000000000000000000000000000000000000000000000005f52602260045260245ffd5b5f600282049050600182168061018957607f821691505b60208210810361019c5761019b610145565b5b50919050565b5f819050815f5260205f209050919050565b5f6020601f8301049050919050565b5f82821b905092915050565b5f600883026101fe7fffffffffffffffffffffffffffffffffffffffffffffffffffffffffffffffff826101c3565b61020886836101c3565b95508019841693508086168417925050509392505050565b5f819050919050565b5f819050919050565b5f61024c61024761024284610220565b610229565b610220565b9050919050565b5f819050919050565b61026583610232565b61027961027182610253565b8484546101cf565b825550505050565b5f90565b61028d610281565b61029881848461025c565b505050565b5b818110156102bb576102b05f82610285565b60018101905061029e565b5050565b601f821115610300576102d1816101a2565b6102da846101b4565b810160208510156102e9578190505b6102fd6102f5856101b4565b83018261029d565b50505b505050565b5f82821c905092915050565b5f6103205f1984600802610305565b1980831691505092915050565b5f6103388383610311565b9150826002028217905092915050565b6103518261010e565b67ffffffffffffffff81111561036a57610369610118565b5b6103748254610172565b61037f8282856102bf565b5f60209050601f8311600181146103b0575f841561039e578287015190505b6103a8858261032d565b86555061040f565b601f1984166103be866101a2565b5f5b828110156103e5578489015182556001820191506020850194506020810190506103c0565b8683101561040257848901516103fe601f891682610311565b8355505b6001600288020188555050505b505050505050565b5f81905092915050565b7f536f6c69646974790000000000000000000000000000000000000000000000005f82015250565b5f610455600883610417565b915061046082610421565b600882019050919050565b5f61047582610449565b9150819050919050565b610b518061048c5f395ff3fe608060405234801561000f575f80fd5b50600436106100b2575f3560e01c8063820d0e491161006f578063820d0e4914610164578063adef6ca814610182578063c3ccf402146101a0578063c914955d146101bc578063de5477fd146101d8578063ed6d9096146101f6576100b2565b80630a56cb1d146100b6578063117b2467146100d25780631bd72f15146100f057806322ebbb361461010c5780632653fa2d1461012a5780634115b74414610148575b5f80fd5b6100d060048036038101906100cb91906103bb565b610212565b005b6100da61021c565b6040516100e79190610456565b60405180910390f35b61010a600480360381019061010591906104a9565b6102a8565b005b6101146102b2565b60405161012191906104e3565b60405180910390f35b6101326102b8565b60405161013f9190610514565b60405180910390f35b610162600480360381019061015d9190610562565b6102bd565b005b61016c6102da565b604051610179919061059c565b60405180910390f35b61018a6102e0565b60405161019791906105c4565b60405180910390f35b6101ba60048036038101906101b59190610709565b6102f3565b005b6101d660048036038101906101d1919061077a565b610306565b005b6101e061030f565b6040516101ed91906107e4565b60405180910390f35b610210600480360381019061020b9190610827565b610334565b005b8060048190555050565b600380546102299061087f565b80601f01602080910402602001604051908101604052809291908181526020018280546102559061087f565b80156102a05780601f10610277576101008083540402835291602001916102a0565b820191905f5260205f20905b81548152906001019060200180831161028357829003601f168201915b505050505081565b8060018190555050565b60045481565b5f5481565b80600260146101000a81548160ff02191690831515021790555050565b60015481565b600260149054906101000a900460ff1681565b80600390816103029190610a4c565b5050565b805f8190555050565b60025f9054906101000a900473ffffffffffffffffffffffffffffffffffffffff1681565b8060025f6101000a81548173ffffffffffffffffffffffffffffffffffffffff021916908373ffffffffffffffffffffffffffffffffffffffff16021790555050565b5f604051905090565b5f80fd5b5f80fd5b5f819050919050565b61039a81610388565b81146103a4575f80fd5b50565b5f813590506103b581610391565b92915050565b5f602082840312156103d0576103cf610380565b5b5f6103dd848285016103a7565b91505092915050565b5f81519050919050565b5f82825260208201905092915050565b8281835e5f83830152505050565b5f601f19601f8301169050919050565b5f610428826103e6565b61043281856103f0565b9350610442818560208601610400565b61044b8161040e565b840191505092915050565b5f6020820190508181035f83015261046e818461041e565b905092915050565b5f819050919050565b61048881610476565b8114610492575f80fd5b50565b5f813590506104a38161047f565b92915050565b5f602082840312156104be576104bd610380565b5b5f6104cb84828501610495565b91505092915050565b6104dd81610388565b82525050565b5f6020820190506104f65f8301846104d4565b92915050565b5f819050919050565b61050e816104fc565b82525050565b5f6020820190506105275f830184610505565b92915050565b5f8115159050919050565b6105418161052d565b811461054b575f80fd5b50565b5f8135905061055c81610538565b92915050565b5f6020828403121561057757610576610380565b5b5f6105848482850161054e565b91505092915050565b61059681610476565b82525050565b5f6020820190506105af5f83018461058d565b92915050565b6105be8161052d565b82525050565b5f6020820190506105d75f8301846105b5565b92915050565b5f80fd5b5f80fd5b7f4e487b71000000000000000000000000000000000000000000000000000000005f52604160045260245ffd5b61061b8261040e565b810181811067ffffffffffffffff8211171561063a576106396105e5565b5b80604052505050565b5f61064c610377565b90506106588282610612565b919050565b5f67ffffffffffffffff821115610677576106766105e5565b5b6106808261040e565b9050602081019050919050565b828183375f83830152505050565b5f6106ad6106a88461065d565b610643565b9050828152602081018484840111156106c9576106c86105e1565b5b6106d484828561068d565b509392505050565b5f82601f8301126106f0576106ef6105dd565b5b813561070084826020860161069b565b91505092915050565b5f6020828403121561071e5761071d610380565b5b5f82013567ffffffffffffffff81111561073b5761073a610384565b5b610747848285016106dc565b91505092915050565b610759816104fc565b8114610763575f80fd5b50565b5f8135905061077481610750565b92915050565b5f6020828403121561078f5761078e610380565b5b5f61079c84828501610766565b91505092915050565b5f73ffffffffffffffffffffffffffffffffffffffff82169050919050565b5f6107ce826107a5565b9050919050565b6107de816107c4565b82525050565b5f6020820190506107f75f8301846107d5565b92915050565b610806816107c4565b8114610810575f80fd5b50565b5f81359050610821816107fd565b92915050565b5f6020828403121561083c5761083b610380565b5b5f61084984828501610813565b91505092915050565b7f4e487b71000000000000000000000000000000000000000000000000000000005f52602260045260245ffd5b5f600282049050600182168061089657607f821691505b6020821081036108a9576108a8610852565b5b50919050565b5f819050815f5260205f209050919050565b5f6020601f8301049050919050565b5f82821b905092915050565b5f6008830261090b7fffffffffffffffffffffffffffffffffffffffffffffffffffffffffffffffff826108d0565b61091586836108d0565b95508019841693508086168417925050509392505050565b5f819050919050565b5f61095061094b610946846104fc565b61092d565b6104fc565b9050919050565b5f819050919050565b61096983610936565b61097d61097582610957565b8484546108dc565b825550505050565b5f90565b610991610985565b61099c818484610960565b505050565b5b818110156109bf576109b45f82610989565b6001810190506109a2565b5050565b601f821115610a04576109d5816108af565b6109de846108c1565b810160208510156109ed578190505b610a016109f9856108c1565b8301826109a1565b50505b505050565b5f82821c905092915050565b5f610a245f1984600802610a09565b1980831691505092915050565b5f610a3c8383610a15565b9150826002028217905092915050565b610a55826103e6565b67ffffffffffffffff811115610a6e57610a6d6105e5565b5b610a78825461087f565b610a838282856109c3565b5f60209050601f831160018114610ab4575f8415610aa2578287015190505b610aac8582610a31565b865550610b13565b601f198416610ac2866108af565b5f5b82811015610ae957848901518255600182019150602085019450602081019050610ac4565b86831015610b065784890151610b02601f891682610a15565b8355505b6001600288020188555050505b50505050505056fea2646970667358221220f5c97a18de1c8ba8daad454d917bc987a0e3b0b21411d75330f5f13cf5c56beb64736f6c63430008190033', \n     arguments: [\n     ]\n}).send({\n     from: web3.eth.accounts[0], \n     gas: '4700000'\n   }, function (e, contract){\n    console.log(e, contract);\n    if (typeof contract.address !== 'undefined') {\n         console.log('Contract mined! address: ' + contract.address + ' transactionHash: ' + contract.transactionHash);\n    }\n })",
	"functionHashes": {
		"de5477fd": "addressVariable()",
		"adef6ca8": "boolVariable()",
		"22ebbb36": "bytesVariable()",
		"820d0e49": "intVariable()",
		"117b2467": "stringVariable()",
		"2653fa2d": "uintVariable()",
		"ed6d9096": "updateAddress(address)",
		"4115b744": "updateBool(bool)",
		"0a56cb1d": "updateBytes(bytes32)",
		"1bd72f15": "updateInt(int256)",
		"c3ccf402": "updateString(string)",
		"c914955d": "updateUint(uint256)"
	},
	"gasEstimates": {
		"Creation": {
			"codeDepositCost": "579400",
			"executionCost": "infinite",
			"totalCost": "infinite"
		},
		"External": {
			"addressVariable()": "2596",
			"boolVariable()": "2539",
			"bytesVariable()": "2492",
			"intVariable()": "2425",
			"stringVariable()": "infinite",
			"uintVariable()": "2513",
			"updateAddress(address)": "24825",
			"updateBool(bool)": "24835",
			"updateBytes(bytes32)": "22516",
			"updateInt(int256)": "22560",
			"updateString(string)": "infinite",
			"updateUint(uint256)": "22580"
		}
	},
	"devdoc": {
		"kind": "dev",
		"methods": {},
		"version": 1
	},
	"userdoc": {
		"kind": "user",
		"methods": {},
		"version": 1
	},
	"Runtime Bytecode": {
		"immutableReferences": {},
		"linkReferences": {},
		"object": "608060405234801561000f575f80fd5b50600436106100b2575f3560e01c8063820d0e491161006f578063820d0e4914610164578063adef6ca814610182578063c3ccf402146101a0578063c914955d146101bc578063de5477fd146101d8578063ed6d9096146101f6576100b2565b80630a56cb1d146100b6578063117b2467146100d25780631bd72f15146100f057806322ebbb361461010c5780632653fa2d1461012a5780634115b74414610148575b5f80fd5b6100d060048036038101906100cb91906103bb565b610212565b005b6100da61021c565b6040516100e79190610456565b60405180910390f35b61010a600480360381019061010591906104a9565b6102a8565b005b6101146102b2565b60405161012191906104e3565b60405180910390f35b6101326102b8565b60405161013f9190610514565b60405180910390f35b610162600480360381019061015d9190610562565b6102bd565b005b61016c6102da565b604051610179919061059c565b60405180910390f35b61018a6102e0565b60405161019791906105c4565b60405180910390f35b6101ba60048036038101906101b59190610709565b6102f3565b005b6101d660048036038101906101d1919061077a565b610306565b005b6101e061030f565b6040516101ed91906107e4565b60405180910390f35b610210600480360381019061020b9190610827565b610334565b005b8060048190555050565b600380546102299061087f565b80601f01602080910402602001604051908101604052809291908181526020018280546102559061087f565b80156102a05780601f10610277576101008083540402835291602001916102a0565b820191905f5260205f20905b81548152906001019060200180831161028357829003601f168201915b505050505081565b8060018190555050565b60045481565b5f5481565b80600260146101000a81548160ff02191690831515021790555050565b60015481565b600260149054906101000a900460ff1681565b80600390816103029190610a4c565b5050565b805f8190555050565b60025f9054906101000a900473ffffffffffffffffffffffffffffffffffffffff1681565b8060025f6101000a81548173ffffffffffffffffffffffffffffffffffffffff021916908373ffffffffffffffffffffffffffffffffffffffff16021790555050565b5f604051905090565b5f80fd5b5f80fd5b5f819050919050565b61039a81610388565b81146103a4575f80fd5b50565b5f813590506103b581610391565b92915050565b5f602082840312156103d0576103cf610380565b5b5f6103dd848285016103a7565b91505092915050565b5f81519050919050565b5f82825260208201905092915050565b8281835e5f83830152505050565b5f601f19601f8301169050919050565b5f610428826103e6565b61043281856103f0565b9350610442818560208601610400565b61044b8161040e565b840191505092915050565b5f6020820190508181035f83015261046e818461041e565b905092915050565b5f819050919050565b61048881610476565b8114610492575f80fd5b50565b5f813590506104a38161047f565b92915050565b5f602082840312156104be576104bd610380565b5b5f6104cb84828501610495565b91505092915050565b6104dd81610388565b82525050565b5f6020820190506104f65f8301846104d4565b92915050565b5f819050919050565b61050e816104fc565b82525050565b5f6020820190506105275f830184610505565b92915050565b5f8115159050919050565b6105418161052d565b811461054b575f80fd5b50565b5f8135905061055c81610538565b92915050565b5f6020828403121561057757610576610380565b5b5f6105848482850161054e565b91505092915050565b61059681610476565b82525050565b5f6020820190506105af5f83018461058d565b92915050565b6105be8161052d565b82525050565b5f6020820190506105d75f8301846105b5565b92915050565b5f80fd5b5f80fd5b7f4e487b71000000000000000000000000000000000000000000000000000000005f52604160045260245ffd5b61061b8261040e565b810181811067ffffffffffffffff8211171561063a576106396105e5565b5b80604052505050565b5f61064c610377565b90506106588282610612565b919050565b5f67ffffffffffffffff821115610677576106766105e5565b5b6106808261040e565b9050602081019050919050565b828183375f83830152505050565b5f6106ad6106a88461065d565b610643565b9050828152602081018484840111156106c9576106c86105e1565b5b6106d484828561068d565b509392505050565b5f82601f8301126106f0576106ef6105dd565b5b813561070084826020860161069b565b91505092915050565b5f6020828403121561071e5761071d610380565b5b5f82013567ffffffffffffffff81111561073b5761073a610384565b5b610747848285016106dc565b91505092915050565b610759816104fc565b8114610763575f80fd5b50565b5f8135905061077481610750565b92915050565b5f6020828403121561078f5761078e610380565b5b5f61079c84828501610766565b91505092915050565b5f73ffffffffffffffffffffffffffffffffffffffff82169050919050565b5f6107ce826107a5565b9050919050565b6107de816107c4565b82525050565b5f6020820190506107f75f8301846107d5565b92915050565b610806816107c4565b8114610810575f80fd5b50565b5f81359050610821816107fd565b92915050565b5f6020828403121561083c5761083b610380565b5b5f61084984828501610813565b91505092915050565b7f4e487b71000000000000000000000000000000000000000000000000000000005f52602260045260245ffd5b5f600282049050600182168061089657607f821691505b6020821081036108a9576108a8610852565b5b50919050565b5f819050815f5260205f209050919050565b5f6020601f8301049050919050565b5f82821b905092915050565b5f6008830261090b7fffffffffffffffffffffffffffffffffffffffffffffffffffffffffffffffff826108d0565b61091586836108d0565b95508019841693508086168417925050509392505050565b5f819050919050565b5f61095061094b610946846104fc565b61092d565b6104fc565b9050919050565b5f819050919050565b61096983610936565b61097d61097582610957565b8484546108dc565b825550505050565b5f90565b610991610985565b61099c818484610960565b505050565b5b818110156109bf576109b45f82610989565b6001810190506109a2565b5050565b601f821115610a04576109d5816108af565b6109de846108c1565b810160208510156109ed578190505b610a016109f9856108c1565b8301826109a1565b50505b505050565b5f82821c905092915050565b5f610a245f1984600802610a09565b1980831691505092915050565b5f610a3c8383610a15565b9150826002028217905092915050565b610a55826103e6565b67ffffffffffffffff811115610a6e57610a6d6105e5565b5b610a78825461087f565b610a838282856109c3565b5f60209050601f831160018114610ab4575f8415610aa2578287015190505b610aac8582610a31565b865550610b13565b601f198416610ac2866108af565b5f5b82811015610ae957848901518255600182019150602085019450602081019050610ac4565b86831015610b065784890151610b02601f891682610a15565b8355505b6001600288020188555050505b50505050505056fea2646970667358221220f5c97a18de1c8ba8daad454d917bc987a0e3b0b21411d75330f5f13cf5c56beb64736f6c63430008190033",
		"opcodes": "PUSH1 0x80 PUSH1 0x40 MSTORE CALLVALUE DUP1 ISZERO PUSH2 0xF JUMPI PUSH0 DUP1 REVERT JUMPDEST POP PUSH1 0x4 CALLDATASIZE LT PUSH2 0xB2 JUMPI PUSH0 CALLDATALOAD PUSH1 0xE0 SHR DUP1 PUSH4 0x820D0E49 GT PUSH2 0x6F JUMPI DUP1 PUSH4 0x820D0E49 EQ PUSH2 0x164 JUMPI DUP1 PUSH4 0xADEF6CA8 EQ PUSH2 0x182 JUMPI DUP1 PUSH4 0xC3CCF402 EQ PUSH2 0x1A0 JUMPI DUP1 PUSH4 0xC914955D EQ PUSH2 0x1BC JUMPI DUP1 PUSH4 0xDE5477FD EQ PUSH2 0x1D8 JUMPI DUP1 PUSH4 0xED6D9096 EQ PUSH2 0x1F6 JUMPI PUSH2 0xB2 JUMP JUMPDEST DUP1 PUSH4 0xA56CB1D EQ PUSH2 0xB6 JUMPI DUP1 PUSH4 0x117B2467 EQ PUSH2 0xD2 JUMPI DUP1 PUSH4 0x1BD72F15 EQ PUSH2 0xF0 JUMPI DUP1 PUSH4 0x22EBBB36 EQ PUSH2 0x10C JUMPI DUP1 PUSH4 0x2653FA2D EQ PUSH2 0x12A JUMPI DUP1 PUSH4 0x4115B744 EQ PUSH2 0x148 JUMPI JUMPDEST PUSH0 DUP1 REVERT JUMPDEST PUSH2 0xD0 PUSH1 0x4 DUP1 CALLDATASIZE SUB DUP2 ADD SWAP1 PUSH2 0xCB SWAP2 SWAP1 PUSH2 0x3BB JUMP JUMPDEST PUSH2 0x212 JUMP JUMPDEST STOP JUMPDEST PUSH2 0xDA PUSH2 0x21C JUMP JUMPDEST PUSH1 0x40 MLOAD PUSH2 0xE7 SWAP2 SWAP1 PUSH2 0x456 JUMP JUMPDEST PUSH1 0x40 MLOAD DUP1 SWAP2 SUB SWAP1 RETURN JUMPDEST PUSH2 0x10A PUSH1 0x4 DUP1 CALLDATASIZE SUB DUP2 ADD SWAP1 PUSH2 0x105 SWAP2 SWAP1 PUSH2 0x4A9 JUMP JUMPDEST PUSH2 0x2A8 JUMP JUMPDEST STOP JUMPDEST PUSH2 0x114 PUSH2 0x2B2 JUMP JUMPDEST PUSH1 0x40 MLOAD PUSH2 0x121 SWAP2 SWAP1 PUSH2 0x4E3 JUMP JUMPDEST PUSH1 0x40 MLOAD DUP1 SWAP2 SUB SWAP1 RETURN JUMPDEST PUSH2 0x132 PUSH2 0x2B8 JUMP JUMPDEST PUSH1 0x40 MLOAD PUSH2 0x13F SWAP2 SWAP1 PUSH2 0x514 JUMP JUMPDEST PUSH1 0x40 MLOAD DUP1 SWAP2 SUB SWAP1 RETURN JUMPDEST PUSH2 0x162 PUSH1 0x4 DUP1 CALLDATASIZE SUB DUP2 ADD SWAP1 PUSH2 0x15D SWAP2 SWAP1 PUSH2 0x562 JUMP JUMPDEST PUSH2 0x2BD JUMP JUMPDEST STOP JUMPDEST PUSH2 0x16C PUSH2 0x2DA JUMP JUMPDEST PUSH1 0x40 MLOAD PUSH2 0x179 SWAP2 SWAP1 PUSH2 0x59C JUMP JUMPDEST PUSH1 0x40 MLOAD DUP1 SWAP2 SUB SWAP1 RETURN JUMPDEST PUSH2 0x18A PUSH2 0x2E0 JUMP JUMPDEST PUSH1 0x40 MLOAD PUSH2 0x197 SWAP2 SWAP1 PUSH2 0x5C4 JUMP JUMPDEST PUSH1 0x40 MLOAD DUP1 SWAP2 SUB SWAP1 RETURN JUMPDEST PUSH2 0x1BA PUSH1 0x4 DUP1 CALLDATASIZE SUB DUP2 ADD SWAP1 PUSH2 0x1B5 SWAP2 SWAP1 PUSH2 0x709 JUMP JUMPDEST PUSH2 0x2F3 JUMP JUMPDEST STOP JUMPDEST PUSH2 0x1D6 PUSH1 0x4 DUP1 CALLDATASIZE SUB DUP2 ADD SWAP1 PUSH2 0x1D1 SWAP2 SWAP1 PUSH2 0x77A JUMP JUMPDEST PUSH2 0x306 JUMP JUMPDEST STOP JUMPDEST PUSH2 0x1E0 PUSH2 0x30F JUMP JUMPDEST PUSH1 0x40 MLOAD PUSH2 0x1ED SWAP2 SWAP1 PUSH2 0x7E4 JUMP JUMPDEST PUSH1 0x40 MLOAD DUP1 SWAP2 SUB SWAP1 RETURN JUMPDEST PUSH2 0x210 PUSH1 0x4 DUP1 CALLDATASIZE SUB DUP2 ADD SWAP1 PUSH2 0x20B SWAP2 SWAP1 PUSH2 0x827 JUMP JUMPDEST PUSH2 0x334 JUMP JUMPDEST STOP JUMPDEST DUP1 PUSH1 0x4 DUP2 SWAP1 SSTORE POP POP JUMP JUMPDEST PUSH1 0x3 DUP1 SLOAD PUSH2 0x229 SWAP1 PUSH2 0x87F JUMP JUMPDEST DUP1 PUSH1 0x1F ADD PUSH1 0x20 DUP1 SWAP2 DIV MUL PUSH1 0x20 ADD PUSH1 0x40 MLOAD SWAP1 DUP2 ADD PUSH1 0x40 MSTORE DUP1 SWAP3 SWAP2 SWAP1 DUP2 DUP2 MSTORE PUSH1 0x20 ADD DUP3 DUP1 SLOAD PUSH2 0x255 SWAP1 PUSH2 0x87F JUMP JUMPDEST DUP1 ISZERO PUSH2 0x2A0 JUMPI DUP1 PUSH1 0x1F LT PUSH2 0x277 JUMPI PUSH2 0x100 DUP1 DUP4 SLOAD DIV MUL DUP4 MSTORE SWAP2 PUSH1 0x20 ADD SWAP2 PUSH2 0x2A0 JUMP JUMPDEST DUP3 ADD SWAP2 SWAP1 PUSH0 MSTORE PUSH1 0x20 PUSH0 KECCAK256 SWAP1 JUMPDEST DUP2 SLOAD DUP2 MSTORE SWAP1 PUSH1 0x1 ADD SWAP1 PUSH1 0x20 ADD DUP1 DUP4 GT PUSH2 0x283 JUMPI DUP3 SWAP1 SUB PUSH1 0x1F AND DUP3 ADD SWAP2 JUMPDEST POP POP POP POP POP DUP2 JUMP JUMPDEST DUP1 PUSH1 0x1 DUP2 SWAP1 SSTORE POP POP JUMP JUMPDEST PUSH1 0x4 SLOAD DUP2 JUMP JUMPDEST PUSH0 SLOAD DUP2 JUMP JUMPDEST DUP1 PUSH1 0x2 PUSH1 0x14 PUSH2 0x100 EXP DUP2 SLOAD DUP2 PUSH1 0xFF MUL NOT AND SWAP1 DUP4 ISZERO ISZERO MUL OR SWAP1 SSTORE POP POP JUMP JUMPDEST PUSH1 0x1 SLOAD DUP2 JUMP JUMPDEST PUSH1 0x2 PUSH1 0x14 SWAP1 SLOAD SWAP1 PUSH2 0x100 EXP SWAP1 DIV PUSH1 0xFF AND DUP2 JUMP JUMPDEST DUP1 PUSH1 0x3 SWAP1 DUP2 PUSH2 0x302 SWAP2 SWAP1 PUSH2 0xA4C JUMP JUMPDEST POP POP JUMP JUMPDEST DUP1 PUSH0 DUP2 SWAP1 SSTORE POP POP JUMP JUMPDEST PUSH1 0x2 PUSH0 SWAP1 SLOAD SWAP1 PUSH2 0x100 EXP SWAP1 DIV PUSH20 0xFFFFFFFFFFFFFFFFFFFFFFFFFFFFFFFFFFFFFFFF AND DUP2 JUMP JUMPDEST DUP1 PUSH1 0x2 PUSH0 PUSH2 0x100 EXP DUP2 SLOAD DUP2 PUSH20 0xFFFFFFFFFFFFFFFFFFFFFFFFFFFFFFFFFFFFFFFF MUL NOT AND SWAP1 DUP4 PUSH20 0xFFFFFFFFFFFFFFFFFFFFFFFFFFFFFFFFFFFFFFFF AND MUL OR SWAP1 SSTORE POP POP JUMP JUMPDEST PUSH0 PUSH1 0x40 MLOAD SWAP1 POP SWAP1 JUMP JUMPDEST PUSH0 DUP1 REVERT JUMPDEST PUSH0 DUP1 REVERT JUMPDEST PUSH0 DUP2 SWAP1 POP SWAP2 SWAP1 POP JUMP JUMPDEST PUSH2 0x39A DUP2 PUSH2 0x388 JUMP JUMPDEST DUP2 EQ PUSH2 0x3A4 JUMPI PUSH0 DUP1 REVERT JUMPDEST POP JUMP JUMPDEST PUSH0 DUP2 CALLDATALOAD SWAP1 POP PUSH2 0x3B5 DUP2 PUSH2 0x391 JUMP JUMPDEST SWAP3 SWAP2 POP POP JUMP JUMPDEST PUSH0 PUSH1 0x20 DUP3 DUP5 SUB SLT ISZERO PUSH2 0x3D0 JUMPI PUSH2 0x3CF PUSH2 0x380 JUMP JUMPDEST JUMPDEST PUSH0 PUSH2 0x3DD DUP5 DUP3 DUP6 ADD PUSH2 0x3A7 JUMP JUMPDEST SWAP2 POP POP SWAP3 SWAP2 POP POP JUMP JUMPDEST PUSH0 DUP2 MLOAD SWAP1 POP SWAP2 SWAP1 POP JUMP JUMPDEST PUSH0 DUP3 DUP3 MSTORE PUSH1 0x20 DUP3 ADD SWAP1 POP SWAP3 SWAP2 POP POP JUMP JUMPDEST DUP3 DUP2 DUP4 MCOPY PUSH0 DUP4 DUP4 ADD MSTORE POP POP POP JUMP JUMPDEST PUSH0 PUSH1 0x1F NOT PUSH1 0x1F DUP4 ADD AND SWAP1 POP SWAP2 SWAP1 POP JUMP JUMPDEST PUSH0 PUSH2 0x428 DUP3 PUSH2 0x3E6 JUMP JUMPDEST PUSH2 0x432 DUP2 DUP6 PUSH2 0x3F0 JUMP JUMPDEST SWAP4 POP PUSH2 0x442 DUP2 DUP6 PUSH1 0x20 DUP7 ADD PUSH2 0x400 JUMP JUMPDEST PUSH2 0x44B DUP2 PUSH2 0x40E JUMP JUMPDEST DUP5 ADD SWAP2 POP POP SWAP3 SWAP2 POP POP JUMP JUMPDEST PUSH0 PUSH1 0x20 DUP3 ADD SWAP1 POP DUP2 DUP2 SUB PUSH0 DUP4 ADD MSTORE PUSH2 0x46E DUP2 DUP5 PUSH2 0x41E JUMP JUMPDEST SWAP1 POP SWAP3 SWAP2 POP POP JUMP JUMPDEST PUSH0 DUP2 SWAP1 POP SWAP2 SWAP1 POP JUMP JUMPDEST PUSH2 0x488 DUP2 PUSH2 0x476 JUMP JUMPDEST DUP2 EQ PUSH2 0x492 JUMPI PUSH0 DUP1 REVERT JUMPDEST POP JUMP JUMPDEST PUSH0 DUP2 CALLDATALOAD SWAP1 POP PUSH2 0x4A3 DUP2 PUSH2 0x47F JUMP JUMPDEST SWAP3 SWAP2 POP POP JUMP JUMPDEST PUSH0 PUSH1 0x20 DUP3 DUP5 SUB SLT ISZERO PUSH2 0x4BE JUMPI PUSH2 0x4BD PUSH2 0x380 JUMP JUMPDEST JUMPDEST PUSH0 PUSH2 0x4CB DUP5 DUP3 DUP6 ADD PUSH2 0x495 JUMP JUMPDEST SWAP2 POP POP SWAP3 SWAP2 POP POP JUMP JUMPDEST PUSH2 0x4DD DUP2 PUSH2 0x388 JUMP JUMPDEST DUP3 MSTORE POP POP JUMP JUMPDEST PUSH0 PUSH1 0x20 DUP3 ADD SWAP1 POP PUSH2 0x4F6 PUSH0 DUP4 ADD DUP5 PUSH2 0x4D4 JUMP JUMPDEST SWAP3 SWAP2 POP POP JUMP JUMPDEST PUSH0 DUP2 SWAP1 POP SWAP2 SWAP1 POP JUMP JUMPDEST PUSH2 0x50E DUP2 PUSH2 0x4FC JUMP JUMPDEST DUP3 MSTORE POP POP JUMP JUMPDEST PUSH0 PUSH1 0x20 DUP3 ADD SWAP1 POP PUSH2 0x527 PUSH0 DUP4 ADD DUP5 PUSH2 0x505 JUMP JUMPDEST SWAP3 SWAP2 POP POP JUMP JUMPDEST PUSH0 DUP2 ISZERO ISZERO SWAP1 POP SWAP2 SWAP1 POP JUMP JUMPDEST PUSH2 0x541 DUP2 PUSH2 0x52D JUMP JUMPDEST DUP2 EQ PUSH2 0x54B JUMPI PUSH0 DUP1 REVERT JUMPDEST POP JUMP JUMPDEST PUSH0 DUP2 CALLDATALOAD SWAP1 POP PUSH2 0x55C DUP2 PUSH2 0x538 JUMP JUMPDEST SWAP3 SWAP2 POP POP JUMP JUMPDEST PUSH0 PUSH1 0x20 DUP3 DUP5 SUB SLT ISZERO PUSH2 0x577 JUMPI PUSH2 0x576 PUSH2 0x380 JUMP JUMPDEST JUMPDEST PUSH0 PUSH2 0x584 DUP5 DUP3 DUP6 ADD PUSH2 0x54E JUMP JUMPDEST SWAP2 POP POP SWAP3 SWAP2 POP POP JUMP JUMPDEST PUSH2 0x596 DUP2 PUSH2 0x476 JUMP JUMPDEST DUP3 MSTORE POP POP JUMP JUMPDEST PUSH0 PUSH1 0x20 DUP3 ADD SWAP1 POP PUSH2 0x5AF PUSH0 DUP4 ADD DUP5 PUSH2 0x58D JUMP JUMPDEST SWAP3 SWAP2 POP POP JUMP JUMPDEST PUSH2 0x5BE DUP2 PUSH2 0x52D JUMP JUMPDEST DUP3 MSTORE POP POP JUMP JUMPDEST PUSH0 PUSH1 0x20 DUP3 ADD SWAP1 POP PUSH2 0x5D7 PUSH0 DUP4 ADD DUP5 PUSH2 0x5B5 JUMP JUMPDEST SWAP3 SWAP2 POP POP JUMP JUMPDEST PUSH0 DUP1 REVERT JUMPDEST PUSH0 DUP1 REVERT JUMPDEST PUSH32 0x4E487B7100000000000000000000000000000000000000000000000000000000 PUSH0 MSTORE PUSH1 0x41 PUSH1 0x4 MSTORE PUSH1 0x24 PUSH0 REVERT JUMPDEST PUSH2 0x61B DUP3 PUSH2 0x40E JUMP JUMPDEST DUP2 ADD DUP2 DUP2 LT PUSH8 0xFFFFFFFFFFFFFFFF DUP3 GT OR ISZERO PUSH2 0x63A JUMPI PUSH2 0x639 PUSH2 0x5E5 JUMP JUMPDEST JUMPDEST DUP1 PUSH1 0x40 MSTORE POP POP POP JUMP JUMPDEST PUSH0 PUSH2 0x64C PUSH2 0x377 JUMP JUMPDEST SWAP1 POP PUSH2 0x658 DUP3 DUP3 PUSH2 0x612 JUMP JUMPDEST SWAP2 SWAP1 POP JUMP JUMPDEST PUSH0 PUSH8 0xFFFFFFFFFFFFFFFF DUP3 GT ISZERO PUSH2 0x677 JUMPI PUSH2 0x676 PUSH2 0x5E5 JUMP JUMPDEST JUMPDEST PUSH2 0x680 DUP3 PUSH2 0x40E JUMP JUMPDEST SWAP1 POP PUSH1 0x20 DUP2 ADD SWAP1 POP SWAP2 SWAP1 POP JUMP JUMPDEST DUP3 DUP2 DUP4 CALLDATACOPY PUSH0 DUP4 DUP4 ADD MSTORE POP POP POP JUMP JUMPDEST PUSH0 PUSH2 0x6AD PUSH2 0x6A8 DUP5 PUSH2 0x65D JUMP JUMPDEST PUSH2 0x643 JUMP JUMPDEST SWAP1 POP DUP3 DUP2 MSTORE PUSH1 0x20 DUP2 ADD DUP5 DUP5 DUP5 ADD GT ISZERO PUSH2 0x6C9 JUMPI PUSH2 0x6C8 PUSH2 0x5E1 JUMP JUMPDEST JUMPDEST PUSH2 0x6D4 DUP5 DUP3 DUP6 PUSH2 0x68D JUMP JUMPDEST POP SWAP4 SWAP3 POP POP POP JUMP JUMPDEST PUSH0 DUP3 PUSH1 0x1F DUP4 ADD SLT PUSH2 0x6F0 JUMPI PUSH2 0x6EF PUSH2 0x5DD JUMP JUMPDEST JUMPDEST DUP2 CALLDATALOAD PUSH2 0x700 DUP5 DUP3 PUSH1 0x20 DUP7 ADD PUSH2 0x69B JUMP JUMPDEST SWAP2 POP POP SWAP3 SWAP2 POP POP JUMP JUMPDEST PUSH0 PUSH1 0x20 DUP3 DUP5 SUB SLT ISZERO PUSH2 0x71E JUMPI PUSH2 0x71D PUSH2 0x380 JUMP JUMPDEST JUMPDEST PUSH0 DUP3 ADD CALLDATALOAD PUSH8 0xFFFFFFFFFFFFFFFF DUP2 GT ISZERO PUSH2 0x73B JUMPI PUSH2 0x73A PUSH2 0x384 JUMP JUMPDEST JUMPDEST PUSH2 0x747 DUP5 DUP3 DUP6 ADD PUSH2 0x6DC JUMP JUMPDEST SWAP2 POP POP SWAP3 SWAP2 POP POP JUMP JUMPDEST PUSH2 0x759 DUP2 PUSH2 0x4FC JUMP JUMPDEST DUP2 EQ PUSH2 0x763 JUMPI PUSH0 DUP1 REVERT JUMPDEST POP JUMP JUMPDEST PUSH0 DUP2 CALLDATALOAD SWAP1 POP PUSH2 0x774 DUP2 PUSH2 0x750 JUMP JUMPDEST SWAP3 SWAP2 POP POP JUMP JUMPDEST PUSH0 PUSH1 0x20 DUP3 DUP5 SUB SLT ISZERO PUSH2 0x78F JUMPI PUSH2 0x78E PUSH2 0x380 JUMP JUMPDEST JUMPDEST PUSH0 PUSH2 0x79C DUP5 DUP3 DUP6 ADD PUSH2 0x766 JUMP JUMPDEST SWAP2 POP POP SWAP3 SWAP2 POP POP JUMP JUMPDEST PUSH0 PUSH20 0xFFFFFFFFFFFFFFFFFFFFFFFFFFFFFFFFFFFFFFFF DUP3 AND SWAP1 POP SWAP2 SWAP1 POP JUMP JUMPDEST PUSH0 PUSH2 0x7CE DUP3 PUSH2 0x7A5 JUMP JUMPDEST SWAP1 POP SWAP2 SWAP1 POP JUMP JUMPDEST PUSH2 0x7DE DUP2 PUSH2 0x7C4 JUMP JUMPDEST DUP3 MSTORE POP POP JUMP JUMPDEST PUSH0 PUSH1 0x20 DUP3 ADD SWAP1 POP PUSH2 0x7F7 PUSH0 DUP4 ADD DUP5 PUSH2 0x7D5 JUMP JUMPDEST SWAP3 SWAP2 POP POP JUMP JUMPDEST PUSH2 0x806 DUP2 PUSH2 0x7C4 JUMP JUMPDEST DUP2 EQ PUSH2 0x810 JUMPI PUSH0 DUP1 REVERT JUMPDEST POP JUMP JUMPDEST PUSH0 DUP2 CALLDATALOAD SWAP1 POP PUSH2 0x821 DUP2 PUSH2 0x7FD JUMP JUMPDEST SWAP3 SWAP2 POP POP JUMP JUMPDEST PUSH0 PUSH1 0x20 DUP3 DUP5 SUB SLT ISZERO PUSH2 0x83C JUMPI PUSH2 0x83B PUSH2 0x380 JUMP JUMPDEST JUMPDEST PUSH0 PUSH2 0x849 DUP5 DUP3 DUP6 ADD PUSH2 0x813 JUMP JUMPDEST SWAP2 POP POP SWAP3 SWAP2 POP POP JUMP JUMPDEST PUSH32 0x4E487B7100000000000000000000000000000000000000000000000000000000 PUSH0 MSTORE PUSH1 0x22 PUSH1 0x4 MSTORE PUSH1 0x24 PUSH0 REVERT JUMPDEST PUSH0 PUSH1 0x2 DUP3 DIV SWAP1 POP PUSH1 0x1 DUP3 AND DUP1 PUSH2 0x896 JUMPI PUSH1 0x7F DUP3 AND SWAP2 POP JUMPDEST PUSH1 0x20 DUP3 LT DUP2 SUB PUSH2 0x8A9 JUMPI PUSH2 0x8A8 PUSH2 0x852 JUMP JUMPDEST JUMPDEST POP SWAP2 SWAP1 POP JUMP JUMPDEST PUSH0 DUP2 SWAP1 POP DUP2 PUSH0 MSTORE PUSH1 0x20 PUSH0 KECCAK256 SWAP1 POP SWAP2 SWAP1 POP JUMP JUMPDEST PUSH0 PUSH1 0x20 PUSH1 0x1F DUP4 ADD DIV SWAP1 POP SWAP2 SWAP1 POP JUMP JUMPDEST PUSH0 DUP3 DUP3 SHL SWAP1 POP SWAP3 SWAP2 POP POP JUMP JUMPDEST PUSH0 PUSH1 0x8 DUP4 MUL PUSH2 0x90B PUSH32 0xFFFFFFFFFFFFFFFFFFFFFFFFFFFFFFFFFFFFFFFFFFFFFFFFFFFFFFFFFFFFFFFF DUP3 PUSH2 0x8D0 JUMP JUMPDEST PUSH2 0x915 DUP7 DUP4 PUSH2 0x8D0 JUMP JUMPDEST SWAP6 POP DUP1 NOT DUP5 AND SWAP4 POP DUP1 DUP7 AND DUP5 OR SWAP3 POP POP POP SWAP4 SWAP3 POP POP POP JUMP JUMPDEST PUSH0 DUP2 SWAP1 POP SWAP2 SWAP1 POP JUMP JUMPDEST PUSH0 PUSH2 0x950 PUSH2 0x94B PUSH2 0x946 DUP5 PUSH2 0x4FC JUMP JUMPDEST PUSH2 0x92D JUMP JUMPDEST PUSH2 0x4FC JUMP JUMPDEST SWAP1 POP SWAP2 SWAP1 POP JUMP JUMPDEST PUSH0 DUP2 SWAP1 POP SWAP2 SWAP1 POP JUMP JUMPDEST PUSH2 0x969 DUP4 PUSH2 0x936 JUMP JUMPDEST PUSH2 0x97D PUSH2 0x975 DUP3 PUSH2 0x957 JUMP JUMPDEST DUP5 DUP5 SLOAD PUSH2 0x8DC JUMP JUMPDEST DUP3 SSTORE POP POP POP POP JUMP JUMPDEST PUSH0 SWAP1 JUMP JUMPDEST PUSH2 0x991 PUSH2 0x985 JUMP JUMPDEST PUSH2 0x99C DUP2 DUP5 DUP5 PUSH2 0x960 JUMP JUMPDEST POP POP POP JUMP JUMPDEST JUMPDEST DUP2 DUP2 LT ISZERO PUSH2 0x9BF JUMPI PUSH2 0x9B4 PUSH0 DUP3 PUSH2 0x989 JUMP JUMPDEST PUSH1 0x1 DUP2 ADD SWAP1 POP PUSH2 0x9A2 JUMP JUMPDEST POP POP JUMP JUMPDEST PUSH1 0x1F DUP3 GT ISZERO PUSH2 0xA04 JUMPI PUSH2 0x9D5 DUP2 PUSH2 0x8AF JUMP JUMPDEST PUSH2 0x9DE DUP5 PUSH2 0x8C1 JUMP JUMPDEST DUP2 ADD PUSH1 0x20 DUP6 LT ISZERO PUSH2 0x9ED JUMPI DUP2 SWAP1 POP JUMPDEST PUSH2 0xA01 PUSH2 0x9F9 DUP6 PUSH2 0x8C1 JUMP JUMPDEST DUP4 ADD DUP3 PUSH2 0x9A1 JUMP JUMPDEST POP POP JUMPDEST POP POP POP JUMP JUMPDEST PUSH0 DUP3 DUP3 SHR SWAP1 POP SWAP3 SWAP2 POP POP JUMP JUMPDEST PUSH0 PUSH2 0xA24 PUSH0 NOT DUP5 PUSH1 0x8 MUL PUSH2 0xA09 JUMP JUMPDEST NOT DUP1 DUP4 AND SWAP2 POP POP SWAP3 SWAP2 POP POP JUMP JUMPDEST PUSH0 PUSH2 0xA3C DUP4 DUP4 PUSH2 0xA15 JUMP JUMPDEST SWAP2 POP DUP3 PUSH1 0x2 MUL DUP3 OR SWAP1 POP SWAP3 SWAP2 POP POP JUMP JUMPDEST PUSH2 0xA55 DUP3 PUSH2 0x3E6 JUMP JUMPDEST PUSH8 0xFFFFFFFFFFFFFFFF DUP2 GT ISZERO PUSH2 0xA6E JUMPI PUSH2 0xA6D PUSH2 0x5E5 JUMP JUMPDEST JUMPDEST PUSH2 0xA78 DUP3 SLOAD PUSH2 0x87F JUMP JUMPDEST PUSH2 0xA83 DUP3 DUP3 DUP6 PUSH2 0x9C3 JUMP JUMPDEST PUSH0 PUSH1 0x20 SWAP1 POP PUSH1 0x1F DUP4 GT PUSH1 0x1 DUP2 EQ PUSH2 0xAB4 JUMPI PUSH0 DUP5 ISZERO PUSH2 0xAA2 JUMPI DUP3 DUP8 ADD MLOAD SWAP1 POP JUMPDEST PUSH2 0xAAC DUP6 DUP3 PUSH2 0xA31 JUMP JUMPDEST DUP7 SSTORE POP PUSH2 0xB13 JUMP JUMPDEST PUSH1 0x1F NOT DUP5 AND PUSH2 0xAC2 DUP7 PUSH2 0x8AF JUMP JUMPDEST PUSH0 JUMPDEST DUP3 DUP2 LT ISZERO PUSH2 0xAE9 JUMPI DUP5 DUP10 ADD MLOAD DUP3 SSTORE PUSH1 0x1 DUP3 ADD SWAP2 POP PUSH1 0x20 DUP6 ADD SWAP5 POP PUSH1 0x20 DUP2 ADD SWAP1 POP PUSH2 0xAC4 JUMP JUMPDEST DUP7 DUP4 LT ISZERO PUSH2 0xB06 JUMPI DUP5 DUP10 ADD MLOAD PUSH2 0xB02 PUSH1 0x1F DUP10 AND DUP3 PUSH2 0xA15 JUMP JUMPDEST DUP4 SSTORE POP JUMPDEST PUSH1 0x1 PUSH1 0x2 DUP9 MUL ADD DUP9 SSTORE POP POP POP JUMPDEST POP POP POP POP POP POP JUMP INVALID LOG2 PUSH5 0x6970667358 0x22 SLT KECCAK256 CREATE2 0xC9 PUSH27 0x18DE1C8BA8DAAD454D917BC987A0E3B0B21411D75330F5F13CF5C5 PUSH12 0xEB64736F6C63430008190033 "
	},
	"Assembly": ".code\n  PUSH 80\t\t\tcontract ValueTypeDemo {\\n    ...\n  PUSH 40\t\t\tcontract ValueTypeDemo {\\n    ...\n  MSTORE \t\t\tcontract ValueTypeDemo {\\n    ...\n  CALLVALUE \t\t\tconstructor() {\\n        uintV...\n  DUP1 \t\t\tconstructor() {\\n        uintV...\n  ISZERO \t\t\tconstructor() {\\n        uintV...\n  PUSH [tag] 1\t\t\tconstructor() {\\n        uintV...\n  JUMPI \t\t\tconstructor() {\\n        uintV...\n  PUSH 0\t\t\tconstructor() {\\n        uintV...\n  DUP1 \t\t\tconstructor() {\\n        uintV...\n  REVERT \t\t\tconstructor() {\\n        uintV...\ntag 1\t\t\tconstructor() {\\n        uintV...\n  JUMPDEST \t\t\tconstructor() {\\n        uintV...\n  POP \t\t\tconstructor() {\\n        uintV...\n  PUSH A\t\t\t10\n  PUSH 0\t\t\tuintVariable\n  DUP2 \t\t\tuintVariable = 10\n  SWAP1 \t\t\tuintVariable = 10\n  SSTORE \t\t\tuintVariable = 10\n  POP \t\t\tuintVariable = 10\n  PUSH FFFFFFFFFFFFFFFFFFFFFFFFFFFFFFFFFFFFFFFFFFFFFFFFFFFFFFFFFFFFFFFB\t\t\t-5\n  PUSH 1\t\t\tintVariable\n  DUP2 \t\t\tintVariable = -5\n  SWAP1 \t\t\tintVariable = -5\n  SSTORE \t\t\tintVariable = -5\n  POP \t\t\tintVariable = -5\n  CALLER \t\t\tmsg.sender\n  PUSH 2\t\t\taddressVariable\n  PUSH 0\t\t\taddressVariable\n  PUSH 100\t\t\taddressVariable = msg.sender\n  EXP \t\t\taddressVariable = msg.sender\n  DUP2 \t\t\taddressVariable = msg.sender\n  SLOAD \t\t\taddressVariable = msg.sender\n  DUP2 \t\t\taddressVariable = msg.sender\n  PUSH FFFFFFFFFFFFFFFFFFFFFFFFFFFFFFFFFFFFFFFF\t\t\taddressVariable = msg.sender\n  MUL \t\t\taddressVariable = msg.sender\n  NOT \t\t\taddressVariable = msg.sender\n  AND \t\t\taddressVariable = msg.sender\n  SWAP1 \t\t\taddressVariable = msg.sender\n  DUP4 \t\t\taddressVariable = msg.sender\n  PUSH FFFFFFFFFFFFFFFFFFFFFFFFFFFFFFFFFFFFFFFF\t\t\taddressVariable = msg.sender\n  AND \t\t\taddressVariable = msg.sender\n  MUL \t\t\taddressVariable = msg.sender\n  OR \t\t\taddressVariable = msg.sender\n  SWAP1 \t\t\taddressVariable = msg.sender\n  SSTORE \t\t\taddressVariable = msg.sender\n  POP \t\t\taddressVariable = msg.sender\n  PUSH 1\t\t\ttrue\n  PUSH 2\t\t\tboolVariable\n  PUSH 14\t\t\tboolVariable\n  PUSH 100\t\t\tboolVariable = true\n  EXP \t\t\tboolVariable = true\n  DUP2 \t\t\tboolVariable = true\n  SLOAD \t\t\tboolVariable = true\n  DUP2 \t\t\tboolVariable = true\n  PUSH FF\t\t\tboolVariable = true\n  MUL \t\t\tboolVariable = true\n  NOT \t\t\tboolVariable = true\n  AND \t\t\tboolVariable = true\n  SWAP1 \t\t\tboolVariable = true\n  DUP4 \t\t\tboolVariable = true\n  ISZERO \t\t\tboolVariable = true\n  ISZERO \t\t\tboolVariable = true\n  MUL \t\t\tboolVariable = true\n  OR \t\t\tboolVariable = true\n  SWAP1 \t\t\tboolVariable = true\n  SSTORE \t\t\tboolVariable = true\n  POP \t\t\tboolVariable = true\n  PUSH 40\t\t\tstringVariable = \"Hello, World...\n  MLOAD \t\t\tstringVariable = \"Hello, World...\n  DUP1 \t\t\tstringVariable = \"Hello, World...\n  PUSH 40\t\t\tstringVariable = \"Hello, World...\n  ADD \t\t\tstringVariable = \"Hello, World...\n  PUSH 40\t\t\tstringVariable = \"Hello, World...\n  MSTORE \t\t\tstringVariable = \"Hello, World...\n  DUP1 \t\t\tstringVariable = \"Hello, World...\n  PUSH D\t\t\tstringVariable = \"Hello, World...\n  DUP2 \t\t\tstringVariable = \"Hello, World...\n  MSTORE \t\t\tstringVariable = \"Hello, World...\n  PUSH 20\t\t\tstringVariable = \"Hello, World...\n  ADD \t\t\tstringVariable = \"Hello, World...\n  PUSH 48656C6C6F2C20576F726C642100000000000000000000000000000000000000\t\t\tstringVariable = \"Hello, World...\n  DUP2 \t\t\tstringVariable = \"Hello, World...\n  MSTORE \t\t\tstringVariable = \"Hello, World...\n  POP \t\t\tstringVariable = \"Hello, World...\n  PUSH 3\t\t\tstringVariable\n  SWAP1 \t\t\tstringVariable = \"Hello, World...\n  DUP2 \t\t\tstringVariable = \"Hello, World...\n  PUSH [tag] 4\t\t\tstringVariable = \"Hello, World...\n  SWAP2 \t\t\tstringVariable = \"Hello, World...\n  SWAP1 \t\t\tstringVariable = \"Hello, World...\n  PUSH [tag] 5\t\t\tstringVariable = \"Hello, World...\n  JUMP \t\t\tstringVariable = \"Hello, World...\ntag 4\t\t\tstringVariable = \"Hello, World...\n  JUMPDEST \t\t\tstringVariable = \"Hello, World...\n  POP \t\t\tstringVariable = \"Hello, World...\n  PUSH 40\t\t\tabi.encodePacked(\"Solidity\")\n  MLOAD \t\t\tabi.encodePacked(\"Solidity\")\n  PUSH 20\t\t\tabi.encodePacked(\"Solidity\")\n  ADD \t\t\tabi.encodePacked(\"Solidity\")\n  PUSH [tag] 6\t\t\tabi.encodePacked(\"Solidity\")\n  SWAP1 \t\t\tabi.encodePacked(\"Solidity\")\n  PUSH [tag] 7\t\t\tabi.encodePacked(\"Solidity\")\n  JUMP \t\t\tabi.encodePacked(\"Solidity\")\ntag 6\t\t\tabi.encodePacked(\"Solidity\")\n  JUMPDEST \t\t\tabi.encodePacked(\"Solidity\")\n  PUSH 40\t\t\tabi.encodePacked(\"Solidity\")\n  MLOAD \t\t\tabi.encodePacked(\"Solidity\")\n  PUSH 20\t\t\tabi.encodePacked(\"Solidity\")\n  DUP2 \t\t\tabi.encodePacked(\"Solidity\")\n  DUP4 \t\t\tabi.encodePacked(\"Solidity\")\n  SUB \t\t\tabi.encodePacked(\"Solidity\")\n  SUB \t\t\tabi.encodePacked(\"Solidity\")\n  DUP2 \t\t\tabi.encodePacked(\"Solidity\")\n  MSTORE \t\t\tabi.encodePacked(\"Solidity\")\n  SWAP1 \t\t\tabi.encodePacked(\"Solidity\")\n  PUSH 40\t\t\tabi.encodePacked(\"Solidity\")\n  MSTORE \t\t\tabi.encodePacked(\"Solidity\")\n  DUP1 \t\t\tkeccak256(abi.encodePacked(\"So...\n  MLOAD \t\t\tkeccak256(abi.encodePacked(\"So...\n  SWAP1 \t\t\tkeccak256(abi.encodePacked(\"So...\n  PUSH 20\t\t\tkeccak256(abi.encodePacked(\"So...\n  ADD \t\t\tkeccak256(abi.encodePacked(\"So...\n  KECCAK256 \t\t\tkeccak256(abi.encodePacked(\"So...\n  PUSH 4\t\t\tbytesVariable\n  DUP2 \t\t\tbytesVariable = keccak256(abi....\n  SWAP1 \t\t\tbytesVariable = keccak256(abi....\n  SSTORE \t\t\tbytesVariable = keccak256(abi....\n  POP \t\t\tbytesVariable = keccak256(abi....\n  PUSH [tag] 8\t\t\tcontract ValueTypeDemo {\\n    ...\n  JUMP \t\t\tcontract ValueTypeDemo {\\n    ...\ntag 9\t\t\t-License-Identifier: MIT\\nprag...\n  JUMPDEST \t\t\t-License-Identifier: MIT\\nprag...\n  PUSH 0\t\t\t.9.0;\\n\n  DUP2 \t\t\t  // \n  MLOAD \t\t\to {\\n    // S\n  SWAP1 \t\t\tlueTypeDemo {\\n    // S\n  POP \t\t\tlueTypeDemo {\\n    // S\n  SWAP2 \t\t\t-License-Identifier: MIT\\nprag...\n  SWAP1 \t\t\t-License-Identifier: MIT\\nprag...\n  POP \t\t\t-License-Identifier: MIT\\nprag...\n  JUMP \t\t\t-License-Identifier: MIT\\nprag...\ntag 10\t\t\ts\\n    uint256 public uintVari...\n  JUMPDEST \t\t\ts\\n    uint256 public uintVari...\n  PUSH 4E487B7100000000000000000000000000000000000000000000000000000000\t\t\tblic intVariable;\\n    address...\n  PUSH 0\t\t\t \n  MSTORE \t\t\t int256 public intVariable;\\n ...\n  PUSH 41\t\t\tblic\n  PUSH 4\t\t\t \n  MSTORE \t\t\t string public \n  PUSH 24\t\t\t byt\n  PUSH 0\t\t\t \n  REVERT \t\t\tiable;\\n    byte\ntag 11\t\t\tytesVariable;\\n    \\n    // Co...\n  JUMPDEST \t\t\tytesVariable;\\n    \\n    // Co...\n  PUSH 4E487B7100000000000000000000000000000000000000000000000000000000\t\t\tize state variables\\n    const...\n  PUSH 0\t\t\ti\n  MSTORE \t\t\tto initialize state variables\\...\n  PUSH 22\t\t\t    \n  PUSH 4\t\t\t \n  MSTORE \t\t\t= -5;\\n        a\n  PUSH 24\t\t\tg.se\n  PUSH 0\t\t\t \n  REVERT \t\t\tiable = msg.sen\ntag 12\t\t\t boolVariable = true;\\n       ...\n  JUMPDEST \t\t\t boolVariable = true;\\n       ...\n  PUSH 0\t\t\t = \"He\n  PUSH 2\t\t\ta\n  DUP3 \t\t\tesVa\n  DIV \t\t\t bytesVariab\n  SWAP1 \t\t\t\";\\n        bytesVariab\n  POP \t\t\t\";\\n        bytesVariab\n  PUSH 1\t\t\t\\n\n  DUP3 \t\t\tty\")\n  AND \t\t\tlidity\"));\\n \n  DUP1 \t\t\tnction to update u\n  PUSH [tag] 37\t\t\t\\n    // Function to update ui...\n  JUMPI \t\t\t\\n    // Function to update ui...\n  PUSH 7F\t\t\tnt25\n  DUP3 \t\t\teUint(\n  AND \t\t\tpdateUint(uint256\n  SWAP2 \t\t\tfunction updateUint(uint256\n  POP \t\t\tfunction updateUint(uint256\ntag 37\t\t\t\\n    // Function to update ui...\n  JUMPDEST \t\t\t\\n    // Function to update ui...\n  PUSH 20\t\t\t}\\n\n  DUP3 \t\t\tue;\\n  \n  LT \t\t\tValue;\\n    }\\n \n  DUP2 \t\t\t  uintVariable = n\n  SUB \t\t\t     uintVariable = newValue;\\...\n  PUSH [tag] 38\t\t\t        uintVariable = newValu...\n  JUMPI \t\t\t        uintVariable = newValu...\n  PUSH [tag] 39\t\t\tion to update intV\n  PUSH [tag] 11\t\t\tion to update intV\n  JUMP \t\t\tion to update intV\ntag 39\t\t\tion to update intV\n  JUMPDEST \t\t\tion to update intV\ntag 38\t\t\t        uintVariable = newValu...\n  JUMPDEST \t\t\t        uintVariable = newValu...\n  POP \t\t\tlo, World!\";\\n        bytesVar...\n  SWAP2 \t\t\t boolVariable = true;\\n       ...\n  SWAP1 \t\t\t boolVariable = true;\\n       ...\n  POP \t\t\t boolVariable = true;\\n       ...\n  JUMP \t\t\t boolVariable = true;\\n       ...\ntag 13\t\t\tpdateInt(int256 newValue) publ...\n  JUMPDEST \t\t\tpdateInt(int256 newValue) publ...\n  PUSH 0\t\t\tiabl\n  DUP2 \t\t\t\\n  \n  SWAP1 \t\t\te;\\n    }\\n  \n  POP \t\t\te;\\n    }\\n  \n  DUP2 \t\t\to u\n  PUSH 0\t\t\tn\n  MSTORE \t\t\tFunction to up\n  PUSH 20\t\t\tion \n  PUSH 0\t\t\tn\n  KECCAK256 \t\t\tble\\n    function u\n  SWAP1 \t\t\tessVariable\\n    function u\n  POP \t\t\tessVariable\\n    function u\n  SWAP2 \t\t\tpdateInt(int256 newValue) publ...\n  SWAP1 \t\t\tpdateInt(int256 newValue) publ...\n  POP \t\t\tpdateInt(int256 newValue) publ...\n  JUMP \t\t\tpdateInt(int256 newValue) publ...\ntag 14\t\t\taddress newValue) public {\\n  ...\n  JUMPDEST \t\t\taddress newValue) public {\\n  ...\n  PUSH 0\t\t\tdressV\n  PUSH 20\t\t\tct\n  PUSH 1F\t\t\t/ \n  DUP4 \t\t\t \\n   \n  ADD \t\t\t\\n    \\n    // F\n  DIV \t\t\t   }\\n    \\n    // Functi\n  SWAP1 \t\t\tewValue;\\n    }\\n    \\n    // ...\n  POP \t\t\tewValue;\\n    }\\n    \\n    // ...\n  SWAP2 \t\t\taddress newValue) public {\\n  ...\n  SWAP1 \t\t\taddress newValue) public {\\n  ...\n  POP \t\t\taddress newValue) public {\\n  ...\n  JUMP \t\t\taddress newValue) public {\\n  ...\ntag 15\t\t\t boolVariable\\n    function up...\n  JUMPDEST \t\t\t boolVariable\\n    function up...\n  PUSH 0\t\t\tewValue)\n  DUP3 \t\t\t\\n    \n  DUP3 \t\t\tValu\n  SHL \t\t\t newValue;\\n    }\n  SWAP1 \t\t\t       boolVariable = newValue...\n  POP \t\t\t       boolVariable = newValue...\n  SWAP3 \t\t\t boolVariable\\n    function up...\n  SWAP2 \t\t\t boolVariable\\n    function up...\n  POP \t\t\t boolVariable\\n    function up...\n  POP \t\t\t boolVariable\\n    function up...\n  JUMP \t\t\t boolVariable\\n    function up...\ntag 16\t\t\tFunction to update stringVaria...\n  JUMPDEST \t\t\tFunction to update stringVaria...\n  PUSH 0\t\t\tmory n\n  PUSH 8\t\t\te\n  DUP4 \t\t\tVariable =\n  MUL \t\t\tringVariable = new\n  PUSH [tag] 44\t\t\t // Function to update bytesVa...\n  PUSH FFFFFFFFFFFFFFFFFFFFFFFFFFFFFFFFFFFFFFFFFFFFFFFFFFFFFFFFFFFFFFFF\t\t\triable\\n    function updateByt...\n  DUP3 \t\t\tate bytes\n  PUSH [tag] 15\t\t\t // Function to update bytesVa...\n  JUMP \t\t\t // Function to update bytesVa...\ntag 44\t\t\t // Function to update bytesVa...\n  JUMPDEST \t\t\t // Function to update bytesVa...\n  PUSH [tag] 45\t\t\tlue;\\n    }\\n}\n  DUP7 \t\t\t\n  DUP4 \t\t\t\n  PUSH [tag] 15\t\t\tlue;\\n    }\\n}\n  JUMP \t\t\tlue;\\n    }\\n}\ntag 45\t\t\tlue;\\n    }\\n}\n  JUMPDEST \t\t\tlue;\\n    }\\n}\n  SWAP6 \t\t\table = newValue;\\n    }\\n}\n  POP \t\t\table = newValue;\\n    }\\n}\n  DUP1 \t\t\t\n  NOT \t\t\t\n  DUP5 \t\t\t\n  AND \t\t\t\n  SWAP4 \t\t\t\n  POP \t\t\t\n  DUP1 \t\t\t\n  DUP7 \t\t\t\n  AND \t\t\t\n  DUP5 \t\t\t\n  OR \t\t\t\n  SWAP3 \t\t\t\n  POP \t\t\t\n  POP \t\t\twValue) public {\\n        stri...\n  POP \t\t\twValue) public {\\n        stri...\n  SWAP4 \t\t\tFunction to update stringVaria...\n  SWAP3 \t\t\tFunction to update stringVaria...\n  POP \t\t\tFunction to update stringVaria...\n  POP \t\t\tFunction to update stringVaria...\n  POP \t\t\tFunction to update stringVaria...\n  JUMP \t\t\tFunction to update stringVaria...\ntag 17\t\t\t\n  JUMPDEST \t\t\t\n  PUSH 0\t\t\t\n  DUP2 \t\t\t\n  SWAP1 \t\t\t\n  POP \t\t\t\n  SWAP2 \t\t\t\n  SWAP1 \t\t\t\n  POP \t\t\t\n  JUMP \t\t\t\ntag 18\t\t\t\n  JUMPDEST \t\t\t\n  PUSH 0\t\t\t\n  DUP2 \t\t\t\n  SWAP1 \t\t\t\n  POP \t\t\t\n  SWAP2 \t\t\t\n  SWAP1 \t\t\t\n  POP \t\t\t\n  JUMP \t\t\t\ntag 19\t\t\t\n  JUMPDEST \t\t\t\n  PUSH 0\t\t\t\n  PUSH [tag] 49\t\t\t\n  PUSH [tag] 50\t\t\t\n  PUSH [tag] 51\t\t\t\n  DUP5 \t\t\t\n  PUSH [tag] 17\t\t\t\n  JUMP \t\t\t\ntag 51\t\t\t\n  JUMPDEST \t\t\t\n  PUSH [tag] 18\t\t\t\n  JUMP \t\t\t\ntag 50\t\t\t\n  JUMPDEST \t\t\t\n  PUSH [tag] 17\t\t\t\n  JUMP \t\t\t\ntag 49\t\t\t\n  JUMPDEST \t\t\t\n  SWAP1 \t\t\t\n  POP \t\t\t\n  SWAP2 \t\t\t\n  SWAP1 \t\t\t\n  POP \t\t\t\n  JUMP \t\t\t\ntag 20\t\t\t\n  JUMPDEST \t\t\t\n  PUSH 0\t\t\t\n  DUP2 \t\t\t\n  SWAP1 \t\t\t\n  POP \t\t\t\n  SWAP2 \t\t\t\n  SWAP1 \t\t\t\n  POP \t\t\t\n  JUMP \t\t\t\ntag 21\t\t\t\n  JUMPDEST \t\t\t\n  PUSH [tag] 54\t\t\t\n  DUP4 \t\t\t\n  PUSH [tag] 19\t\t\t\n  JUMP \t\t\t\ntag 54\t\t\t\n  JUMPDEST \t\t\t\n  PUSH [tag] 55\t\t\t\n  PUSH [tag] 56\t\t\t\n  DUP3 \t\t\t\n  PUSH [tag] 20\t\t\t\n  JUMP \t\t\t\ntag 56\t\t\t\n  JUMPDEST \t\t\t\n  DUP5 \t\t\t\n  DUP5 \t\t\t\n  SLOAD \t\t\t\n  PUSH [tag] 16\t\t\t\n  JUMP \t\t\t\ntag 55\t\t\t\n  JUMPDEST \t\t\t\n  DUP3 \t\t\t\n  SSTORE \t\t\t\n  POP \t\t\t\n  POP \t\t\t\n  POP \t\t\t\n  POP \t\t\t\n  JUMP \t\t\t\ntag 22\t\t\t\n  JUMPDEST \t\t\t\n  PUSH 0\t\t\t\n  SWAP1 \t\t\t\n  JUMP \t\t\t\ntag 23\t\t\t\n  JUMPDEST \t\t\t\n  PUSH [tag] 59\t\t\t\n  PUSH [tag] 22\t\t\t\n  JUMP \t\t\t\ntag 59\t\t\t\n  JUMPDEST \t\t\t\n  PUSH [tag] 60\t\t\t\n  DUP2 \t\t\t\n  DUP5 \t\t\t\n  DUP5 \t\t\t\n  PUSH [tag] 21\t\t\t\n  JUMP \t\t\t\ntag 60\t\t\t\n  JUMPDEST \t\t\t\n  POP \t\t\t\n  POP \t\t\t\n  POP \t\t\t\n  JUMP \t\t\t\ntag 24\t\t\t\n  JUMPDEST \t\t\t\ntag 62\t\t\t\n  JUMPDEST \t\t\t\n  DUP2 \t\t\t\n  DUP2 \t\t\t\n  LT \t\t\t\n  ISZERO \t\t\t\n  PUSH [tag] 64\t\t\t\n  JUMPI \t\t\t\n  PUSH [tag] 65\t\t\t\n  PUSH 0\t\t\t\n  DUP3 \t\t\t\n  PUSH [tag] 23\t\t\t\n  JUMP \t\t\t\ntag 65\t\t\t\n  JUMPDEST \t\t\t\n  PUSH 1\t\t\t\n  DUP2 \t\t\t\n  ADD \t\t\t\n  SWAP1 \t\t\t\n  POP \t\t\t\n  PUSH [tag] 62\t\t\t\n  JUMP \t\t\t\ntag 64\t\t\t\n  JUMPDEST \t\t\t\n  POP \t\t\t\n  POP \t\t\t\n  JUMP \t\t\t\ntag 25\t\t\t\n  JUMPDEST \t\t\t\n  PUSH 1F\t\t\t\n  DUP3 \t\t\t\n  GT \t\t\t\n  ISZERO \t\t\t\n  PUSH [tag] 67\t\t\t\n  JUMPI \t\t\t\n  PUSH [tag] 68\t\t\t\n  DUP2 \t\t\t\n  PUSH [tag] 13\t\t\t\n  JUMP \t\t\t\ntag 68\t\t\t\n  JUMPDEST \t\t\t\n  PUSH [tag] 69\t\t\t\n  DUP5 \t\t\t\n  PUSH [tag] 14\t\t\t\n  JUMP \t\t\t\ntag 69\t\t\t\n  JUMPDEST \t\t\t\n  DUP2 \t\t\t\n  ADD \t\t\t\n  PUSH 20\t\t\t\n  DUP6 \t\t\t\n  LT \t\t\t\n  ISZERO \t\t\t\n  PUSH [tag] 70\t\t\t\n  JUMPI \t\t\t\n  DUP2 \t\t\t\n  SWAP1 \t\t\t\n  POP \t\t\t\ntag 70\t\t\t\n  JUMPDEST \t\t\t\n  PUSH [tag] 71\t\t\t\n  PUSH [tag] 72\t\t\t\n  DUP6 \t\t\t\n  PUSH [tag] 14\t\t\t\n  JUMP \t\t\t\ntag 72\t\t\t\n  JUMPDEST \t\t\t\n  DUP4 \t\t\t\n  ADD \t\t\t\n  DUP3 \t\t\t\n  PUSH [tag] 24\t\t\t\n  JUMP \t\t\t\ntag 71\t\t\t\n  JUMPDEST \t\t\t\n  POP \t\t\t\n  POP \t\t\t\ntag 67\t\t\t\n  JUMPDEST \t\t\t\n  POP \t\t\t\n  POP \t\t\t\n  POP \t\t\t\n  JUMP \t\t\t\ntag 26\t\t\t\n  JUMPDEST \t\t\t\n  PUSH 0\t\t\t\n  DUP3 \t\t\t\n  DUP3 \t\t\t\n  SHR \t\t\t\n  SWAP1 \t\t\t\n  POP \t\t\t\n  SWAP3 \t\t\t\n  SWAP2 \t\t\t\n  POP \t\t\t\n  POP \t\t\t\n  JUMP \t\t\t\ntag 27\t\t\t\n  JUMPDEST \t\t\t\n  PUSH 0\t\t\t\n  PUSH [tag] 75\t\t\t\n  PUSH 0\t\t\t\n  NOT \t\t\t\n  DUP5 \t\t\t\n  PUSH 8\t\t\t\n  MUL \t\t\t\n  PUSH [tag] 26\t\t\t\n  JUMP \t\t\t\ntag 75\t\t\t\n  JUMPDEST \t\t\t\n  NOT \t\t\t\n  DUP1 \t\t\t\n  DUP4 \t\t\t\n  AND \t\t\t\n  SWAP2 \t\t\t\n  POP \t\t\t\n  POP \t\t\t\n  SWAP3 \t\t\t\n  SWAP2 \t\t\t\n  POP \t\t\t\n  POP \t\t\t\n  JUMP \t\t\t\ntag 28\t\t\t\n  JUMPDEST \t\t\t\n  PUSH 0\t\t\t\n  PUSH [tag] 77\t\t\t\n  DUP4 \t\t\t\n  DUP4 \t\t\t\n  PUSH [tag] 27\t\t\t\n  JUMP \t\t\t\ntag 77\t\t\t\n  JUMPDEST \t\t\t\n  SWAP2 \t\t\t\n  POP \t\t\t\n  DUP3 \t\t\t\n  PUSH 2\t\t\t\n  MUL \t\t\t\n  DUP3 \t\t\t\n  OR \t\t\t\n  SWAP1 \t\t\t\n  POP \t\t\t\n  SWAP3 \t\t\t\n  SWAP2 \t\t\t\n  POP \t\t\t\n  POP \t\t\t\n  JUMP \t\t\t\ntag 5\t\t\t\n  JUMPDEST \t\t\t\n  PUSH [tag] 79\t\t\t\n  DUP3 \t\t\t\n  PUSH [tag] 9\t\t\t\n  JUMP \t\t\t\ntag 79\t\t\t\n  JUMPDEST \t\t\t\n  PUSH FFFFFFFFFFFFFFFF\t\t\t\n  DUP2 \t\t\t\n  GT \t\t\t\n  ISZERO \t\t\t\n  PUSH [tag] 80\t\t\t\n  JUMPI \t\t\t\n  PUSH [tag] 81\t\t\t\n  PUSH [tag] 10\t\t\t\n  JUMP \t\t\t\ntag 81\t\t\t\n  JUMPDEST \t\t\t\ntag 80\t\t\t\n  JUMPDEST \t\t\t\n  PUSH [tag] 82\t\t\t\n  DUP3 \t\t\t\n  SLOAD \t\t\t\n  PUSH [tag] 12\t\t\t\n  JUMP \t\t\t\ntag 82\t\t\t\n  JUMPDEST \t\t\t\n  PUSH [tag] 83\t\t\t\n  DUP3 \t\t\t\n  DUP3 \t\t\t\n  DUP6 \t\t\t\n  PUSH [tag] 25\t\t\t\n  JUMP \t\t\t\ntag 83\t\t\t\n  JUMPDEST \t\t\t\n  PUSH 0\t\t\t\n  PUSH 20\t\t\t\n  SWAP1 \t\t\t\n  POP \t\t\t\n  PUSH 1F\t\t\t\n  DUP4 \t\t\t\n  GT \t\t\t\n  PUSH 1\t\t\t\n  DUP2 \t\t\t\n  EQ \t\t\t\n  PUSH [tag] 85\t\t\t\n  JUMPI \t\t\t\n  PUSH 0\t\t\t\n  DUP5 \t\t\t\n  ISZERO \t\t\t\n  PUSH [tag] 86\t\t\t\n  JUMPI \t\t\t\n  DUP3 \t\t\t\n  DUP8 \t\t\t\n  ADD \t\t\t\n  MLOAD \t\t\t\n  SWAP1 \t\t\t\n  POP \t\t\t\ntag 86\t\t\t\n  JUMPDEST \t\t\t\n  PUSH [tag] 87\t\t\t\n  DUP6 \t\t\t\n  DUP3 \t\t\t\n  PUSH [tag] 28\t\t\t\n  JUMP \t\t\t\ntag 87\t\t\t\n  JUMPDEST \t\t\t\n  DUP7 \t\t\t\n  SSTORE \t\t\t\n  POP \t\t\t\n  PUSH [tag] 84\t\t\t\n  JUMP \t\t\t\ntag 85\t\t\t\n  JUMPDEST \t\t\t\n  PUSH 1F\t\t\t\n  NOT \t\t\t\n  DUP5 \t\t\t\n  AND \t\t\t\n  PUSH [tag] 88\t\t\t\n  DUP7 \t\t\t\n  PUSH [tag] 13\t\t\t\n  JUMP \t\t\t\ntag 88\t\t\t\n  JUMPDEST \t\t\t\n  PUSH 0\t\t\t\ntag 89\t\t\t\n  JUMPDEST \t\t\t\n  DUP3 \t\t\t\n  DUP2 \t\t\t\n  LT \t\t\t\n  ISZERO \t\t\t\n  PUSH [tag] 91\t\t\t\n  JUMPI \t\t\t\n  DUP5 \t\t\t\n  DUP10 \t\t\t\n  ADD \t\t\t\n  MLOAD \t\t\t\n  DUP3 \t\t\t\n  SSTORE \t\t\t\n  PUSH 1\t\t\t\n  DUP3 \t\t\t\n  ADD \t\t\t\n  SWAP2 \t\t\t\n  POP \t\t\t\n  PUSH 20\t\t\t\n  DUP6 \t\t\t\n  ADD \t\t\t\n  SWAP5 \t\t\t\n  POP \t\t\t\n  PUSH 20\t\t\t\n  DUP2 \t\t\t\n  ADD \t\t\t\n  SWAP1 \t\t\t\n  POP \t\t\t\n  PUSH [tag] 89\t\t\t\n  JUMP \t\t\t\ntag 91\t\t\t\n  JUMPDEST \t\t\t\n  DUP7 \t\t\t\n  DUP4 \t\t\t\n  LT \t\t\t\n  ISZERO \t\t\t\n  PUSH [tag] 92\t\t\t\n  JUMPI \t\t\t\n  DUP5 \t\t\t\n  DUP10 \t\t\t\n  ADD \t\t\t\n  MLOAD \t\t\t\n  PUSH [tag] 93\t\t\t\n  PUSH 1F\t\t\t\n  DUP10 \t\t\t\n  AND \t\t\t\n  DUP3 \t\t\t\n  PUSH [tag] 27\t\t\t\n  JUMP \t\t\t\ntag 93\t\t\t\n  JUMPDEST \t\t\t\n  DUP4 \t\t\t\n  SSTORE \t\t\t\n  POP \t\t\t\ntag 92\t\t\t\n  JUMPDEST \t\t\t\n  PUSH 1\t\t\t\n  PUSH 2\t\t\t\n  DUP9 \t\t\t\n  MUL \t\t\t\n  ADD \t\t\t\n  DUP9 \t\t\t\n  SSTORE \t\t\t\n  POP \t\t\t\n  POP \t\t\t\n  POP \t\t\t\ntag 84\t\t\t\n  JUMPDEST \t\t\t\n  POP \t\t\t\n  POP \t\t\t\n  POP \t\t\t\n  POP \t\t\t\n  POP \t\t\t\n  POP \t\t\t\n  JUMP \t\t\t\ntag 29\t\t\t\n  JUMPDEST \t\t\t\n  PUSH 0\t\t\t\n  DUP2 \t\t\t\n  SWAP1 \t\t\t\n  POP \t\t\t\n  SWAP3 \t\t\t\n  SWAP2 \t\t\t\n  POP \t\t\t\n  POP \t\t\t\n  JUMP \t\t\t\ntag 30\t\t\t\n  JUMPDEST \t\t\t\n  PUSH 536F6C6964697479000000000000000000000000000000000000000000000000\t\t\t\n  PUSH 0\t\t\t\n  DUP3 \t\t\t\n  ADD \t\t\t\n  MSTORE \t\t\t\n  POP \t\t\t\n  JUMP \t\t\t\ntag 31\t\t\t\n  JUMPDEST \t\t\t\n  PUSH 0\t\t\t\n  PUSH [tag] 97\t\t\t\n  PUSH 8\t\t\t\n  DUP4 \t\t\t\n  PUSH [tag] 29\t\t\t\n  JUMP \t\t\t\ntag 97\t\t\t\n  JUMPDEST \t\t\t\n  SWAP2 \t\t\t\n  POP \t\t\t\n  PUSH [tag] 98\t\t\t\n  DUP3 \t\t\t\n  PUSH [tag] 30\t\t\t\n  JUMP \t\t\t\ntag 98\t\t\t\n  JUMPDEST \t\t\t\n  PUSH 8\t\t\t\n  DUP3 \t\t\t\n  ADD \t\t\t\n  SWAP1 \t\t\t\n  POP \t\t\t\n  SWAP2 \t\t\t\n  SWAP1 \t\t\t\n  POP \t\t\t\n  JUMP \t\t\t\ntag 7\t\t\t\n  JUMPDEST \t\t\t\n  PUSH 0\t\t\t\n  PUSH [tag] 100\t\t\t\n  DUP3 \t\t\t\n  PUSH [tag] 31\t\t\t\n  JUMP \t\t\t\ntag 100\t\t\t\n  JUMPDEST \t\t\t\n  SWAP2 \t\t\t\n  POP \t\t\t\n  DUP2 \t\t\t\n  SWAP1 \t\t\t\n  POP \t\t\t\n  SWAP2 \t\t\t\n  SWAP1 \t\t\t\n  POP \t\t\t\n  JUMP \t\t\t\ntag 8\t\t\tcontract ValueTypeDemo {\\n    ...\n  JUMPDEST \t\t\tcontract ValueTypeDemo {\\n    ...\n  PUSH #[$] 0000000000000000000000000000000000000000000000000000000000000000\t\t\tcontract ValueTypeDemo {\\n    ...\n  DUP1 \t\t\tcontract ValueTypeDemo {\\n    ...\n  PUSH [$] 0000000000000000000000000000000000000000000000000000000000000000\t\t\tcontract ValueTypeDemo {\\n    ...\n  PUSH 0\t\t\tcontract ValueTypeDemo {\\n    ...\n  CODECOPY \t\t\tcontract ValueTypeDemo {\\n    ...\n  PUSH 0\t\t\tcontract ValueTypeDemo {\\n    ...\n  RETURN \t\t\tcontract ValueTypeDemo {\\n    ...\n.data\n  0:\n    .code\n      PUSH 80\t\t\tcontract ValueTypeDemo {\\n    ...\n      PUSH 40\t\t\tcontract ValueTypeDemo {\\n    ...\n      MSTORE \t\t\tcontract ValueTypeDemo {\\n    ...\n      CALLVALUE \t\t\tcontract ValueTypeDemo {\\n    ...\n      DUP1 \t\t\tcontract ValueTypeDemo {\\n    ...\n      ISZERO \t\t\tcontract ValueTypeDemo {\\n    ...\n      PUSH [tag] 1\t\t\tcontract ValueTypeDemo {\\n    ...\n      JUMPI \t\t\tcontract ValueTypeDemo {\\n    ...\n      PUSH 0\t\t\tcontract ValueTypeDemo {\\n    ...\n      DUP1 \t\t\tcontract ValueTypeDemo {\\n    ...\n      REVERT \t\t\tcontract ValueTypeDemo {\\n    ...\n    tag 1\t\t\tcontract ValueTypeDemo {\\n    ...\n      JUMPDEST \t\t\tcontract ValueTypeDemo {\\n    ...\n      POP \t\t\tcontract ValueTypeDemo {\\n    ...\n      PUSH 4\t\t\tcontract ValueTypeDemo {\\n    ...\n      CALLDATASIZE \t\t\tcontract ValueTypeDemo {\\n    ...\n      LT \t\t\tcontract ValueTypeDemo {\\n    ...\n      PUSH [tag] 2\t\t\tcontract ValueTypeDemo {\\n    ...\n      JUMPI \t\t\tcontract ValueTypeDemo {\\n    ...\n      PUSH 0\t\t\tcontract ValueTypeDemo {\\n    ...\n      CALLDATALOAD \t\t\tcontract ValueTypeDemo {\\n    ...\n      PUSH E0\t\t\tcontract ValueTypeDemo {\\n    ...\n      SHR \t\t\tcontract ValueTypeDemo {\\n    ...\n      DUP1 \t\t\tcontract ValueTypeDemo {\\n    ...\n      PUSH 820D0E49\t\t\tcontract ValueTypeDemo {\\n    ...\n      GT \t\t\tcontract ValueTypeDemo {\\n    ...\n      PUSH [tag] 15\t\t\tcontract ValueTypeDemo {\\n    ...\n      JUMPI \t\t\tcontract ValueTypeDemo {\\n    ...\n      DUP1 \t\t\tcontract ValueTypeDemo {\\n    ...\n      PUSH 820D0E49\t\t\tcontract ValueTypeDemo {\\n    ...\n      EQ \t\t\tcontract ValueTypeDemo {\\n    ...\n      PUSH [tag] 9\t\t\tcontract ValueTypeDemo {\\n    ...\n      JUMPI \t\t\tcontract ValueTypeDemo {\\n    ...\n      DUP1 \t\t\tcontract ValueTypeDemo {\\n    ...\n      PUSH ADEF6CA8\t\t\tcontract ValueTypeDemo {\\n    ...\n      EQ \t\t\tcontract ValueTypeDemo {\\n    ...\n      PUSH [tag] 10\t\t\tcontract ValueTypeDemo {\\n    ...\n      JUMPI \t\t\tcontract ValueTypeDemo {\\n    ...\n      DUP1 \t\t\tcontract ValueTypeDemo {\\n    ...\n      PUSH C3CCF402\t\t\tcontract ValueTypeDemo {\\n    ...\n      EQ \t\t\tcontract ValueTypeDemo {\\n    ...\n      PUSH [tag] 11\t\t\tcontract ValueTypeDemo {\\n    ...\n      JUMPI \t\t\tcontract ValueTypeDemo {\\n    ...\n      DUP1 \t\t\tcontract ValueTypeDemo {\\n    ...\n      PUSH C914955D\t\t\tcontract ValueTypeDemo {\\n    ...\n      EQ \t\t\tcontract ValueTypeDemo {\\n    ...\n      PUSH [tag] 12\t\t\tcontract ValueTypeDemo {\\n    ...\n      JUMPI \t\t\tcontract ValueTypeDemo {\\n    ...\n      DUP1 \t\t\tcontract ValueTypeDemo {\\n    ...\n      PUSH DE5477FD\t\t\tcontract ValueTypeDemo {\\n    ...\n      EQ \t\t\tcontract ValueTypeDemo {\\n    ...\n      PUSH [tag] 13\t\t\tcontract ValueTypeDemo {\\n    ...\n      JUMPI \t\t\tcontract ValueTypeDemo {\\n    ...\n      DUP1 \t\t\tcontract ValueTypeDemo {\\n    ...\n      PUSH ED6D9096\t\t\tcontract ValueTypeDemo {\\n    ...\n      EQ \t\t\tcontract ValueTypeDemo {\\n    ...\n      PUSH [tag] 14\t\t\tcontract ValueTypeDemo {\\n    ...\n      JUMPI \t\t\tcontract ValueTypeDemo {\\n    ...\n      PUSH [tag] 2\t\t\tcontract ValueTypeDemo {\\n    ...\n      JUMP \t\t\tcontract ValueTypeDemo {\\n    ...\n    tag 15\t\t\tcontract ValueTypeDemo {\\n    ...\n      JUMPDEST \t\t\tcontract ValueTypeDemo {\\n    ...\n      DUP1 \t\t\tcontract ValueTypeDemo {\\n    ...\n      PUSH A56CB1D\t\t\tcontract ValueTypeDemo {\\n    ...\n      EQ \t\t\tcontract ValueTypeDemo {\\n    ...\n      PUSH [tag] 3\t\t\tcontract ValueTypeDemo {\\n    ...\n      JUMPI \t\t\tcontract ValueTypeDemo {\\n    ...\n      DUP1 \t\t\tcontract ValueTypeDemo {\\n    ...\n      PUSH 117B2467\t\t\tcontract ValueTypeDemo {\\n    ...\n      EQ \t\t\tcontract ValueTypeDemo {\\n    ...\n      PUSH [tag] 4\t\t\tcontract ValueTypeDemo {\\n    ...\n      JUMPI \t\t\tcontract ValueTypeDemo {\\n    ...\n      DUP1 \t\t\tcontract ValueTypeDemo {\\n    ...\n      PUSH 1BD72F15\t\t\tcontract ValueTypeDemo {\\n    ...\n      EQ \t\t\tcontract ValueTypeDemo {\\n    ...\n      PUSH [tag] 5\t\t\tcontract ValueTypeDemo {\\n    ...\n      JUMPI \t\t\tcontract ValueTypeDemo {\\n    ...\n      DUP1 \t\t\tcontract ValueTypeDemo {\\n    ...\n      PUSH 22EBBB36\t\t\tcontract ValueTypeDemo {\\n    ...\n      EQ \t\t\tcontract ValueTypeDemo {\\n    ...\n      PUSH [tag] 6\t\t\tcontract ValueTypeDemo {\\n    ...\n      JUMPI \t\t\tcontract ValueTypeDemo {\\n    ...\n      DUP1 \t\t\tcontract ValueTypeDemo {\\n    ...\n      PUSH 2653FA2D\t\t\tcontract ValueTypeDemo {\\n    ...\n      EQ \t\t\tcontract ValueTypeDemo {\\n    ...\n      PUSH [tag] 7\t\t\tcontract ValueTypeDemo {\\n    ...\n      JUMPI \t\t\tcontract ValueTypeDemo {\\n    ...\n      DUP1 \t\t\tcontract ValueTypeDemo {\\n    ...\n      PUSH 4115B744\t\t\tcontract ValueTypeDemo {\\n    ...\n      EQ \t\t\tcontract ValueTypeDemo {\\n    ...\n      PUSH [tag] 8\t\t\tcontract ValueTypeDemo {\\n    ...\n      JUMPI \t\t\tcontract ValueTypeDemo {\\n    ...\n    tag 2\t\t\tcontract ValueTypeDemo {\\n    ...\n      JUMPDEST \t\t\tcontract ValueTypeDemo {\\n    ...\n      PUSH 0\t\t\tcontract ValueTypeDemo {\\n    ...\n      DUP1 \t\t\tcontract ValueTypeDemo {\\n    ...\n      REVERT \t\t\tcontract ValueTypeDemo {\\n    ...\n    tag 3\t\t\tfunction updateBytes(bytes32 n...\n      JUMPDEST \t\t\tfunction updateBytes(bytes32 n...\n      PUSH [tag] 16\t\t\tfunction updateBytes(bytes32 n...\n      PUSH 4\t\t\tfunction updateBytes(bytes32 n...\n      DUP1 \t\t\tfunction updateBytes(bytes32 n...\n      CALLDATASIZE \t\t\tfunction updateBytes(bytes32 n...\n      SUB \t\t\tfunction updateBytes(bytes32 n...\n      DUP2 \t\t\tfunction updateBytes(bytes32 n...\n      ADD \t\t\tfunction updateBytes(bytes32 n...\n      SWAP1 \t\t\tfunction updateBytes(bytes32 n...\n      PUSH [tag] 17\t\t\tfunction updateBytes(bytes32 n...\n      SWAP2 \t\t\tfunction updateBytes(bytes32 n...\n      SWAP1 \t\t\tfunction updateBytes(bytes32 n...\n      PUSH [tag] 18\t\t\tfunction updateBytes(bytes32 n...\n      JUMP \t\t\tfunction updateBytes(bytes32 n...\n    tag 17\t\t\tfunction updateBytes(bytes32 n...\n      JUMPDEST \t\t\tfunction updateBytes(bytes32 n...\n      PUSH [tag] 19\t\t\tfunction updateBytes(bytes32 n...\n      JUMP \t\t\tfunction updateBytes(bytes32 n...\n    tag 16\t\t\tfunction updateBytes(bytes32 n...\n      JUMPDEST \t\t\tfunction updateBytes(bytes32 n...\n      STOP \t\t\tfunction updateBytes(bytes32 n...\n    tag 4\t\t\tstring public stringVariable\n      JUMPDEST \t\t\tstring public stringVariable\n      PUSH [tag] 20\t\t\tstring public stringVariable\n      PUSH [tag] 21\t\t\tstring public stringVariable\n      JUMP \t\t\tstring public stringVariable\n    tag 20\t\t\tstring public stringVariable\n      JUMPDEST \t\t\tstring public stringVariable\n      PUSH 40\t\t\tstring public stringVariable\n      MLOAD \t\t\tstring public stringVariable\n      PUSH [tag] 22\t\t\tstring public stringVariable\n      SWAP2 \t\t\tstring public stringVariable\n      SWAP1 \t\t\tstring public stringVariable\n      PUSH [tag] 23\t\t\tstring public stringVariable\n      JUMP \t\t\tstring public stringVariable\n    tag 22\t\t\tstring public stringVariable\n      JUMPDEST \t\t\tstring public stringVariable\n      PUSH 40\t\t\tstring public stringVariable\n      MLOAD \t\t\tstring public stringVariable\n      DUP1 \t\t\tstring public stringVariable\n      SWAP2 \t\t\tstring public stringVariable\n      SUB \t\t\tstring public stringVariable\n      SWAP1 \t\t\tstring public stringVariable\n      RETURN \t\t\tstring public stringVariable\n    tag 5\t\t\tfunction updateInt(int256 newV...\n      JUMPDEST \t\t\tfunction updateInt(int256 newV...\n      PUSH [tag] 24\t\t\tfunction updateInt(int256 newV...\n      PUSH 4\t\t\tfunction updateInt(int256 newV...\n      DUP1 \t\t\tfunction updateInt(int256 newV...\n      CALLDATASIZE \t\t\tfunction updateInt(int256 newV...\n      SUB \t\t\tfunction updateInt(int256 newV...\n      DUP2 \t\t\tfunction updateInt(int256 newV...\n      ADD \t\t\tfunction updateInt(int256 newV...\n      SWAP1 \t\t\tfunction updateInt(int256 newV...\n      PUSH [tag] 25\t\t\tfunction updateInt(int256 newV...\n      SWAP2 \t\t\tfunction updateInt(int256 newV...\n      SWAP1 \t\t\tfunction updateInt(int256 newV...\n      PUSH [tag] 26\t\t\tfunction updateInt(int256 newV...\n      JUMP \t\t\tfunction updateInt(int256 newV...\n    tag 25\t\t\tfunction updateInt(int256 newV...\n      JUMPDEST \t\t\tfunction updateInt(int256 newV...\n      PUSH [tag] 27\t\t\tfunction updateInt(int256 newV...\n      JUMP \t\t\tfunction updateInt(int256 newV...\n    tag 24\t\t\tfunction updateInt(int256 newV...\n      JUMPDEST \t\t\tfunction updateInt(int256 newV...\n      STOP \t\t\tfunction updateInt(int256 newV...\n    tag 6\t\t\tbytes32 public bytesVariable\n      JUMPDEST \t\t\tbytes32 public bytesVariable\n      PUSH [tag] 28\t\t\tbytes32 public bytesVariable\n      PUSH [tag] 29\t\t\tbytes32 public bytesVariable\n      JUMP \t\t\tbytes32 public bytesVariable\n    tag 28\t\t\tbytes32 public bytesVariable\n      JUMPDEST \t\t\tbytes32 public bytesVariable\n      PUSH 40\t\t\tbytes32 public bytesVariable\n      MLOAD \t\t\tbytes32 public bytesVariable\n      PUSH [tag] 30\t\t\tbytes32 public bytesVariable\n      SWAP2 \t\t\tbytes32 public bytesVariable\n      SWAP1 \t\t\tbytes32 public bytesVariable\n      PUSH [tag] 31\t\t\tbytes32 public bytesVariable\n      JUMP \t\t\tbytes32 public bytesVariable\n    tag 30\t\t\tbytes32 public bytesVariable\n      JUMPDEST \t\t\tbytes32 public bytesVariable\n      PUSH 40\t\t\tbytes32 public bytesVariable\n      MLOAD \t\t\tbytes32 public bytesVariable\n      DUP1 \t\t\tbytes32 public bytesVariable\n      SWAP2 \t\t\tbytes32 public bytesVariable\n      SUB \t\t\tbytes32 public bytesVariable\n      SWAP1 \t\t\tbytes32 public bytesVariable\n      RETURN \t\t\tbytes32 public bytesVariable\n    tag 7\t\t\tuint256 public uintVariable\n      JUMPDEST \t\t\tuint256 public uintVariable\n      PUSH [tag] 32\t\t\tuint256 public uintVariable\n      PUSH [tag] 33\t\t\tuint256 public uintVariable\n      JUMP \t\t\tuint256 public uintVariable\n    tag 32\t\t\tuint256 public uintVariable\n      JUMPDEST \t\t\tuint256 public uintVariable\n      PUSH 40\t\t\tuint256 public uintVariable\n      MLOAD \t\t\tuint256 public uintVariable\n      PUSH [tag] 34\t\t\tuint256 public uintVariable\n      SWAP2 \t\t\tuint256 public uintVariable\n      SWAP1 \t\t\tuint256 public uintVariable\n      PUSH [tag] 35\t\t\tuint256 public uintVariable\n      JUMP \t\t\tuint256 public uintVariable\n    tag 34\t\t\tuint256 public uintVariable\n      JUMPDEST \t\t\tuint256 public uintVariable\n      PUSH 40\t\t\tuint256 public uintVariable\n      MLOAD \t\t\tuint256 public uintVariable\n      DUP1 \t\t\tuint256 public uintVariable\n      SWAP2 \t\t\tuint256 public uintVariable\n      SUB \t\t\tuint256 public uintVariable\n      SWAP1 \t\t\tuint256 public uintVariable\n      RETURN \t\t\tuint256 public uintVariable\n    tag 8\t\t\tfunction updateBool(bool newVa...\n      JUMPDEST \t\t\tfunction updateBool(bool newVa...\n      PUSH [tag] 36\t\t\tfunction updateBool(bool newVa...\n      PUSH 4\t\t\tfunction updateBool(bool newVa...\n      DUP1 \t\t\tfunction updateBool(bool newVa...\n      CALLDATASIZE \t\t\tfunction updateBool(bool newVa...\n      SUB \t\t\tfunction updateBool(bool newVa...\n      DUP2 \t\t\tfunction updateBool(bool newVa...\n      ADD \t\t\tfunction updateBool(bool newVa...\n      SWAP1 \t\t\tfunction updateBool(bool newVa...\n      PUSH [tag] 37\t\t\tfunction updateBool(bool newVa...\n      SWAP2 \t\t\tfunction updateBool(bool newVa...\n      SWAP1 \t\t\tfunction updateBool(bool newVa...\n      PUSH [tag] 38\t\t\tfunction updateBool(bool newVa...\n      JUMP \t\t\tfunction updateBool(bool newVa...\n    tag 37\t\t\tfunction updateBool(bool newVa...\n      JUMPDEST \t\t\tfunction updateBool(bool newVa...\n      PUSH [tag] 39\t\t\tfunction updateBool(bool newVa...\n      JUMP \t\t\tfunction updateBool(bool newVa...\n    tag 36\t\t\tfunction updateBool(bool newVa...\n      JUMPDEST \t\t\tfunction updateBool(bool newVa...\n      STOP \t\t\tfunction updateBool(bool newVa...\n    tag 9\t\t\tint256 public intVariable\n      JUMPDEST \t\t\tint256 public intVariable\n      PUSH [tag] 40\t\t\tint256 public intVariable\n      PUSH [tag] 41\t\t\tint256 public intVariable\n      JUMP \t\t\tint256 public intVariable\n    tag 40\t\t\tint256 public intVariable\n      JUMPDEST \t\t\tint256 public intVariable\n      PUSH 40\t\t\tint256 public intVariable\n      MLOAD \t\t\tint256 public intVariable\n      PUSH [tag] 42\t\t\tint256 public intVariable\n      SWAP2 \t\t\tint256 public intVariable\n      SWAP1 \t\t\tint256 public intVariable\n      PUSH [tag] 43\t\t\tint256 public intVariable\n      JUMP \t\t\tint256 public intVariable\n    tag 42\t\t\tint256 public intVariable\n      JUMPDEST \t\t\tint256 public intVariable\n      PUSH 40\t\t\tint256 public intVariable\n      MLOAD \t\t\tint256 public intVariable\n      DUP1 \t\t\tint256 public intVariable\n      SWAP2 \t\t\tint256 public intVariable\n      SUB \t\t\tint256 public intVariable\n      SWAP1 \t\t\tint256 public intVariable\n      RETURN \t\t\tint256 public intVariable\n    tag 10\t\t\tbool public boolVariable\n      JUMPDEST \t\t\tbool public boolVariable\n      PUSH [tag] 44\t\t\tbool public boolVariable\n      PUSH [tag] 45\t\t\tbool public boolVariable\n      JUMP \t\t\tbool public boolVariable\n    tag 44\t\t\tbool public boolVariable\n      JUMPDEST \t\t\tbool public boolVariable\n      PUSH 40\t\t\tbool public boolVariable\n      MLOAD \t\t\tbool public boolVariable\n      PUSH [tag] 46\t\t\tbool public boolVariable\n      SWAP2 \t\t\tbool public boolVariable\n      SWAP1 \t\t\tbool public boolVariable\n      PUSH [tag] 47\t\t\tbool public boolVariable\n      JUMP \t\t\tbool public boolVariable\n    tag 46\t\t\tbool public boolVariable\n      JUMPDEST \t\t\tbool public boolVariable\n      PUSH 40\t\t\tbool public boolVariable\n      MLOAD \t\t\tbool public boolVariable\n      DUP1 \t\t\tbool public boolVariable\n      SWAP2 \t\t\tbool public boolVariable\n      SUB \t\t\tbool public boolVariable\n      SWAP1 \t\t\tbool public boolVariable\n      RETURN \t\t\tbool public boolVariable\n    tag 11\t\t\tfunction updateString(string m...\n      JUMPDEST \t\t\tfunction updateString(string m...\n      PUSH [tag] 48\t\t\tfunction updateString(string m...\n      PUSH 4\t\t\tfunction updateString(string m...\n      DUP1 \t\t\tfunction updateString(string m...\n      CALLDATASIZE \t\t\tfunction updateString(string m...\n      SUB \t\t\tfunction updateString(string m...\n      DUP2 \t\t\tfunction updateString(string m...\n      ADD \t\t\tfunction updateString(string m...\n      SWAP1 \t\t\tfunction updateString(string m...\n      PUSH [tag] 49\t\t\tfunction updateString(string m...\n      SWAP2 \t\t\tfunction updateString(string m...\n      SWAP1 \t\t\tfunction updateString(string m...\n      PUSH [tag] 50\t\t\tfunction updateString(string m...\n      JUMP \t\t\tfunction updateString(string m...\n    tag 49\t\t\tfunction updateString(string m...\n      JUMPDEST \t\t\tfunction updateString(string m...\n      PUSH [tag] 51\t\t\tfunction updateString(string m...\n      JUMP \t\t\tfunction updateString(string m...\n    tag 48\t\t\tfunction updateString(string m...\n      JUMPDEST \t\t\tfunction updateString(string m...\n      STOP \t\t\tfunction updateString(string m...\n    tag 12\t\t\tfunction updateUint(uint256 ne...\n      JUMPDEST \t\t\tfunction updateUint(uint256 ne...\n      PUSH [tag] 52\t\t\tfunction updateUint(uint256 ne...\n      PUSH 4\t\t\tfunction updateUint(uint256 ne...\n      DUP1 \t\t\tfunction updateUint(uint256 ne...\n      CALLDATASIZE \t\t\tfunction updateUint(uint256 ne...\n      SUB \t\t\tfunction updateUint(uint256 ne...\n      DUP2 \t\t\tfunction updateUint(uint256 ne...\n      ADD \t\t\tfunction updateUint(uint256 ne...\n      SWAP1 \t\t\tfunction updateUint(uint256 ne...\n      PUSH [tag] 53\t\t\tfunction updateUint(uint256 ne...\n      SWAP2 \t\t\tfunction updateUint(uint256 ne...\n      SWAP1 \t\t\tfunction updateUint(uint256 ne...\n      PUSH [tag] 54\t\t\tfunction updateUint(uint256 ne...\n      JUMP \t\t\tfunction updateUint(uint256 ne...\n    tag 53\t\t\tfunction updateUint(uint256 ne...\n      JUMPDEST \t\t\tfunction updateUint(uint256 ne...\n      PUSH [tag] 55\t\t\tfunction updateUint(uint256 ne...\n      JUMP \t\t\tfunction updateUint(uint256 ne...\n    tag 52\t\t\tfunction updateUint(uint256 ne...\n      JUMPDEST \t\t\tfunction updateUint(uint256 ne...\n      STOP \t\t\tfunction updateUint(uint256 ne...\n    tag 13\t\t\taddress public addressVariable\n      JUMPDEST \t\t\taddress public addressVariable\n      PUSH [tag] 56\t\t\taddress public addressVariable\n      PUSH [tag] 57\t\t\taddress public addressVariable\n      JUMP \t\t\taddress public addressVariable\n    tag 56\t\t\taddress public addressVariable\n      JUMPDEST \t\t\taddress public addressVariable\n      PUSH 40\t\t\taddress public addressVariable\n      MLOAD \t\t\taddress public addressVariable\n      PUSH [tag] 58\t\t\taddress public addressVariable\n      SWAP2 \t\t\taddress public addressVariable\n      SWAP1 \t\t\taddress public addressVariable\n      PUSH [tag] 59\t\t\taddress public addressVariable\n      JUMP \t\t\taddress public addressVariable\n    tag 58\t\t\taddress public addressVariable\n      JUMPDEST \t\t\taddress public addressVariable\n      PUSH 40\t\t\taddress public addressVariable\n      MLOAD \t\t\taddress public addressVariable\n      DUP1 \t\t\taddress public addressVariable\n      SWAP2 \t\t\taddress public addressVariable\n      SUB \t\t\taddress public addressVariable\n      SWAP1 \t\t\taddress public addressVariable\n      RETURN \t\t\taddress public addressVariable\n    tag 14\t\t\tfunction updateAddress(address...\n      JUMPDEST \t\t\tfunction updateAddress(address...\n      PUSH [tag] 60\t\t\tfunction updateAddress(address...\n      PUSH 4\t\t\tfunction updateAddress(address...\n      DUP1 \t\t\tfunction updateAddress(address...\n      CALLDATASIZE \t\t\tfunction updateAddress(address...\n      SUB \t\t\tfunction updateAddress(address...\n      DUP2 \t\t\tfunction updateAddress(address...\n      ADD \t\t\tfunction updateAddress(address...\n      SWAP1 \t\t\tfunction updateAddress(address...\n      PUSH [tag] 61\t\t\tfunction updateAddress(address...\n      SWAP2 \t\t\tfunction updateAddress(address...\n      SWAP1 \t\t\tfunction updateAddress(address...\n      PUSH [tag] 62\t\t\tfunction updateAddress(address...\n      JUMP \t\t\tfunction updateAddress(address...\n    tag 61\t\t\tfunction updateAddress(address...\n      JUMPDEST \t\t\tfunction updateAddress(address...\n      PUSH [tag] 63\t\t\tfunction updateAddress(address...\n      JUMP \t\t\tfunction updateAddress(address...\n    tag 60\t\t\tfunction updateAddress(address...\n      JUMPDEST \t\t\tfunction updateAddress(address...\n      STOP \t\t\tfunction updateAddress(address...\n    tag 19\t\t\tfunction updateBytes(bytes32 n...\n      JUMPDEST \t\t\tfunction updateBytes(bytes32 n...\n      DUP1 \t\t\tnewValue\n      PUSH 4\t\t\tbytesVariable\n      DUP2 \t\t\tbytesVariable = newValue\n      SWAP1 \t\t\tbytesVariable = newValue\n      SSTORE \t\t\tbytesVariable = newValue\n      POP \t\t\tbytesVariable = newValue\n      POP \t\t\tfunction updateBytes(bytes32 n...\n      JUMP \t\t\tfunction updateBytes(bytes32 n...\n    tag 21\t\t\tstring public stringVariable\n      JUMPDEST \t\t\tstring public stringVariable\n      PUSH 3\t\t\tstring public stringVariable\n      DUP1 \t\t\tstring public stringVariable\n      SLOAD \t\t\tstring public stringVariable\n      PUSH [tag] 65\t\t\tstring public stringVariable\n      SWAP1 \t\t\tstring public stringVariable\n      PUSH [tag] 66\t\t\tstring public stringVariable\n      JUMP \t\t\tstring public stringVariable\n    tag 65\t\t\tstring public stringVariable\n      JUMPDEST \t\t\tstring public stringVariable\n      DUP1 \t\t\tstring public stringVariable\n      PUSH 1F\t\t\tstring public stringVariable\n      ADD \t\t\tstring public stringVariable\n      PUSH 20\t\t\tstring public stringVariable\n      DUP1 \t\t\tstring public stringVariable\n      SWAP2 \t\t\tstring public stringVariable\n      DIV \t\t\tstring public stringVariable\n      MUL \t\t\tstring public stringVariable\n      PUSH 20\t\t\tstring public stringVariable\n      ADD \t\t\tstring public stringVariable\n      PUSH 40\t\t\tstring public stringVariable\n      MLOAD \t\t\tstring public stringVariable\n      SWAP1 \t\t\tstring public stringVariable\n      DUP2 \t\t\tstring public stringVariable\n      ADD \t\t\tstring public stringVariable\n      PUSH 40\t\t\tstring public stringVariable\n      MSTORE \t\t\tstring public stringVariable\n      DUP1 \t\t\tstring public stringVariable\n      SWAP3 \t\t\tstring public stringVariable\n      SWAP2 \t\t\tstring public stringVariable\n      SWAP1 \t\t\tstring public stringVariable\n      DUP2 \t\t\tstring public stringVariable\n      DUP2 \t\t\tstring public stringVariable\n      MSTORE \t\t\tstring public stringVariable\n      PUSH 20\t\t\tstring public stringVariable\n      ADD \t\t\tstring public stringVariable\n      DUP3 \t\t\tstring public stringVariable\n      DUP1 \t\t\tstring public stringVariable\n      SLOAD \t\t\tstring public stringVariable\n      PUSH [tag] 67\t\t\tstring public stringVariable\n      SWAP1 \t\t\tstring public stringVariable\n      PUSH [tag] 66\t\t\tstring public stringVariable\n      JUMP \t\t\tstring public stringVariable\n    tag 67\t\t\tstring public stringVariable\n      JUMPDEST \t\t\tstring public stringVariable\n      DUP1 \t\t\tstring public stringVariable\n      ISZERO \t\t\tstring public stringVariable\n      PUSH [tag] 68\t\t\tstring public stringVariable\n      JUMPI \t\t\tstring public stringVariable\n      DUP1 \t\t\tstring public stringVariable\n      PUSH 1F\t\t\tstring public stringVariable\n      LT \t\t\tstring public stringVariable\n      PUSH [tag] 69\t\t\tstring public stringVariable\n      JUMPI \t\t\tstring public stringVariable\n      PUSH 100\t\t\tstring public stringVariable\n      DUP1 \t\t\tstring public stringVariable\n      DUP4 \t\t\tstring public stringVariable\n      SLOAD \t\t\tstring public stringVariable\n      DIV \t\t\tstring public stringVariable\n      MUL \t\t\tstring public stringVariable\n      DUP4 \t\t\tstring public stringVariable\n      MSTORE \t\t\tstring public stringVariable\n      SWAP2 \t\t\tstring public stringVariable\n      PUSH 20\t\t\tstring public stringVariable\n      ADD \t\t\tstring public stringVariable\n      SWAP2 \t\t\tstring public stringVariable\n      PUSH [tag] 68\t\t\tstring public stringVariable\n      JUMP \t\t\tstring public stringVariable\n    tag 69\t\t\tstring public stringVariable\n      JUMPDEST \t\t\tstring public stringVariable\n      DUP3 \t\t\tstring public stringVariable\n      ADD \t\t\tstring public stringVariable\n      SWAP2 \t\t\tstring public stringVariable\n      SWAP1 \t\t\tstring public stringVariable\n      PUSH 0\t\t\tstring public stringVariable\n      MSTORE \t\t\tstring public stringVariable\n      PUSH 20\t\t\tstring public stringVariable\n      PUSH 0\t\t\tstring public stringVariable\n      KECCAK256 \t\t\tstring public stringVariable\n      SWAP1 \t\t\tstring public stringVariable\n    tag 70\t\t\tstring public stringVariable\n      JUMPDEST \t\t\tstring public stringVariable\n      DUP2 \t\t\tstring public stringVariable\n      SLOAD \t\t\tstring public stringVariable\n      DUP2 \t\t\tstring public stringVariable\n      MSTORE \t\t\tstring public stringVariable\n      SWAP1 \t\t\tstring public stringVariable\n      PUSH 1\t\t\tstring public stringVariable\n      ADD \t\t\tstring public stringVariable\n      SWAP1 \t\t\tstring public stringVariable\n      PUSH 20\t\t\tstring public stringVariable\n      ADD \t\t\tstring public stringVariable\n      DUP1 \t\t\tstring public stringVariable\n      DUP4 \t\t\tstring public stringVariable\n      GT \t\t\tstring public stringVariable\n      PUSH [tag] 70\t\t\tstring public stringVariable\n      JUMPI \t\t\tstring public stringVariable\n      DUP3 \t\t\tstring public stringVariable\n      SWAP1 \t\t\tstring public stringVariable\n      SUB \t\t\tstring public stringVariable\n      PUSH 1F\t\t\tstring public stringVariable\n      AND \t\t\tstring public stringVariable\n      DUP3 \t\t\tstring public stringVariable\n      ADD \t\t\tstring public stringVariable\n      SWAP2 \t\t\tstring public stringVariable\n    tag 68\t\t\tstring public stringVariable\n      JUMPDEST \t\t\tstring public stringVariable\n      POP \t\t\tstring public stringVariable\n      POP \t\t\tstring public stringVariable\n      POP \t\t\tstring public stringVariable\n      POP \t\t\tstring public stringVariable\n      POP \t\t\tstring public stringVariable\n      DUP2 \t\t\tstring public stringVariable\n      JUMP \t\t\tstring public stringVariable\n    tag 27\t\t\tfunction updateInt(int256 newV...\n      JUMPDEST \t\t\tfunction updateInt(int256 newV...\n      DUP1 \t\t\tnewValue\n      PUSH 1\t\t\tintVariable\n      DUP2 \t\t\tintVariable = newValue\n      SWAP1 \t\t\tintVariable = newValue\n      SSTORE \t\t\tintVariable = newValue\n      POP \t\t\tintVariable = newValue\n      POP \t\t\tfunction updateInt(int256 newV...\n      JUMP \t\t\tfunction updateInt(int256 newV...\n    tag 29\t\t\tbytes32 public bytesVariable\n      JUMPDEST \t\t\tbytes32 public bytesVariable\n      PUSH 4\t\t\tbytes32 public bytesVariable\n      SLOAD \t\t\tbytes32 public bytesVariable\n      DUP2 \t\t\tbytes32 public bytesVariable\n      JUMP \t\t\tbytes32 public bytesVariable\n    tag 33\t\t\tuint256 public uintVariable\n      JUMPDEST \t\t\tuint256 public uintVariable\n      PUSH 0\t\t\tuint256 public uintVariable\n      SLOAD \t\t\tuint256 public uintVariable\n      DUP2 \t\t\tuint256 public uintVariable\n      JUMP \t\t\tuint256 public uintVariable\n    tag 39\t\t\tfunction updateBool(bool newVa...\n      JUMPDEST \t\t\tfunction updateBool(bool newVa...\n      DUP1 \t\t\tnewValue\n      PUSH 2\t\t\tboolVariable\n      PUSH 14\t\t\tboolVariable\n      PUSH 100\t\t\tboolVariable = newValue\n      EXP \t\t\tboolVariable = newValue\n      DUP2 \t\t\tboolVariable = newValue\n      SLOAD \t\t\tboolVariable = newValue\n      DUP2 \t\t\tboolVariable = newValue\n      PUSH FF\t\t\tboolVariable = newValue\n      MUL \t\t\tboolVariable = newValue\n      NOT \t\t\tboolVariable = newValue\n      AND \t\t\tboolVariable = newValue\n      SWAP1 \t\t\tboolVariable = newValue\n      DUP4 \t\t\tboolVariable = newValue\n      ISZERO \t\t\tboolVariable = newValue\n      ISZERO \t\t\tboolVariable = newValue\n      MUL \t\t\tboolVariable = newValue\n      OR \t\t\tboolVariable = newValue\n      SWAP1 \t\t\tboolVariable = newValue\n      SSTORE \t\t\tboolVariable = newValue\n      POP \t\t\tboolVariable = newValue\n      POP \t\t\tfunction updateBool(bool newVa...\n      JUMP \t\t\tfunction updateBool(bool newVa...\n    tag 41\t\t\tint256 public intVariable\n      JUMPDEST \t\t\tint256 public intVariable\n      PUSH 1\t\t\tint256 public intVariable\n      SLOAD \t\t\tint256 public intVariable\n      DUP2 \t\t\tint256 public intVariable\n      JUMP \t\t\tint256 public intVariable\n    tag 45\t\t\tbool public boolVariable\n      JUMPDEST \t\t\tbool public boolVariable\n      PUSH 2\t\t\tbool public boolVariable\n      PUSH 14\t\t\tbool public boolVariable\n      SWAP1 \t\t\tbool public boolVariable\n      SLOAD \t\t\tbool public boolVariable\n      SWAP1 \t\t\tbool public boolVariable\n      PUSH 100\t\t\tbool public boolVariable\n      EXP \t\t\tbool public boolVariable\n      SWAP1 \t\t\tbool public boolVariable\n      DIV \t\t\tbool public boolVariable\n      PUSH FF\t\t\tbool public boolVariable\n      AND \t\t\tbool public boolVariable\n      DUP2 \t\t\tbool public boolVariable\n      JUMP \t\t\tbool public boolVariable\n    tag 51\t\t\tfunction updateString(string m...\n      JUMPDEST \t\t\tfunction updateString(string m...\n      DUP1 \t\t\tnewValue\n      PUSH 3\t\t\tstringVariable\n      SWAP1 \t\t\tstringVariable = newValue\n      DUP2 \t\t\tstringVariable = newValue\n      PUSH [tag] 74\t\t\tstringVariable = newValue\n      SWAP2 \t\t\tstringVariable = newValue\n      SWAP1 \t\t\tstringVariable = newValue\n      PUSH [tag] 75\t\t\tstringVariable = newValue\n      JUMP \t\t\tstringVariable = newValue\n    tag 74\t\t\tstringVariable = newValue\n      JUMPDEST \t\t\tstringVariable = newValue\n      POP \t\t\tstringVariable = newValue\n      POP \t\t\tfunction updateString(string m...\n      JUMP \t\t\tfunction updateString(string m...\n    tag 55\t\t\tfunction updateUint(uint256 ne...\n      JUMPDEST \t\t\tfunction updateUint(uint256 ne...\n      DUP1 \t\t\tnewValue\n      PUSH 0\t\t\tuintVariable\n      DUP2 \t\t\tuintVariable = newValue\n      SWAP1 \t\t\tuintVariable = newValue\n      SSTORE \t\t\tuintVariable = newValue\n      POP \t\t\tuintVariable = newValue\n      POP \t\t\tfunction updateUint(uint256 ne...\n      JUMP \t\t\tfunction updateUint(uint256 ne...\n    tag 57\t\t\taddress public addressVariable\n      JUMPDEST \t\t\taddress public addressVariable\n      PUSH 2\t\t\taddress public addressVariable\n      PUSH 0\t\t\taddress public addressVariable\n      SWAP1 \t\t\taddress public addressVariable\n      SLOAD \t\t\taddress public addressVariable\n      SWAP1 \t\t\taddress public addressVariable\n      PUSH 100\t\t\taddress public addressVariable\n      EXP \t\t\taddress public addressVariable\n      SWAP1 \t\t\taddress public addressVariable\n      DIV \t\t\taddress public addressVariable\n      PUSH FFFFFFFFFFFFFFFFFFFFFFFFFFFFFFFFFFFFFFFF\t\t\taddress public addressVariable\n      AND \t\t\taddress public addressVariable\n      DUP2 \t\t\taddress public addressVariable\n      JUMP \t\t\taddress public addressVariable\n    tag 63\t\t\tfunction updateAddress(address...\n      JUMPDEST \t\t\tfunction updateAddress(address...\n      DUP1 \t\t\tnewValue\n      PUSH 2\t\t\taddressVariable\n      PUSH 0\t\t\taddressVariable\n      PUSH 100\t\t\taddressVariable = newValue\n      EXP \t\t\taddressVariable = newValue\n      DUP2 \t\t\taddressVariable = newValue\n      SLOAD \t\t\taddressVariable = newValue\n      DUP2 \t\t\taddressVariable = newValue\n      PUSH FFFFFFFFFFFFFFFFFFFFFFFFFFFFFFFFFFFFFFFF\t\t\taddressVariable = newValue\n      MUL \t\t\taddressVariable = newValue\n      NOT \t\t\taddressVariable = newValue\n      AND \t\t\taddressVariable = newValue\n      SWAP1 \t\t\taddressVariable = newValue\n      DUP4 \t\t\taddressVariable = newValue\n      PUSH FFFFFFFFFFFFFFFFFFFFFFFFFFFFFFFFFFFFFFFF\t\t\taddressVariable = newValue\n      AND \t\t\taddressVariable = newValue\n      MUL \t\t\taddressVariable = newValue\n      OR \t\t\taddressVariable = newValue\n      SWAP1 \t\t\taddressVariable = newValue\n      SSTORE \t\t\taddressVariable = newValue\n      POP \t\t\taddressVariable = newValue\n      POP \t\t\tfunction updateAddress(address...\n      JUMP \t\t\tfunction updateAddress(address...\n    tag 78\t\t\t-License-Identifier: MIT\\nprag...\n      JUMPDEST \t\t\t-License-Identifier: MIT\\nprag...\n      PUSH 0\t\t\tolidit\n      PUSH 40\t\t\tt \n      MLOAD \t\t\tontract V\n      SWAP1 \t\t\t<0.9.0;\\n\\ncontract V\n      POP \t\t\t<0.9.0;\\n\\ncontract V\n      SWAP1 \t\t\t-License-Identifier: MIT\\nprag...\n      JUMP \t\t\t-License-Identifier: MIT\\nprag...\n    tag 79\t\t\t {\\n    // State variables\\n  ...\n      JUMPDEST \t\t\t {\\n    // State variables\\n  ...\n      PUSH 0\t\t\ta\n      DUP1 \t\t\ti\n      REVERT \t\t\tss public ad\n    tag 80\t\t\te;\\n    bool public boolVariab...\n      JUMPDEST \t\t\te;\\n    bool public boolVariab...\n      PUSH 0\t\t\t \n      DUP1 \t\t\t \n      REVERT \t\t\t;\\n    \\n    /\n    tag 81\t\t\tr to initialize state variable...\n      JUMPDEST \t\t\tr to initialize state variable...\n      PUSH 0\t\t\tonstruc\n      DUP2 \t\t\triabl\n      SWAP1 \t\t\t     uintVariabl\n      POP \t\t\t     uintVariabl\n      SWAP2 \t\t\tr to initialize state variable...\n      SWAP1 \t\t\tr to initialize state variable...\n      POP \t\t\tr to initialize state variable...\n      JUMP \t\t\tr to initialize state variable...\n    tag 82\t\t\t    intVariable = -5;\\n       ...\n      JUMPDEST \t\t\t    intVariable = -5;\\n       ...\n      PUSH [tag] 138\t\t\tariable = true;\\n        \n      DUP2 \t\t\t     \n      PUSH [tag] 81\t\t\tariable = true;\\n        \n      JUMP \t\t\tariable = true;\\n        \n    tag 138\t\t\tariable = true;\\n        \n      JUMPDEST \t\t\tariable = true;\\n        \n      DUP2 \t\t\t  boo\n      EQ \t\t\t     boolVariable = true;\\n   ...\n      PUSH [tag] 139\t\t\tender;\\n        boolVariable =...\n      JUMPI \t\t\tender;\\n        boolVariable =...\n      PUSH 0\t\t\t=\n      DUP1 \t\t\tl\n      REVERT \t\t\tgVariable = \n    tag 139\t\t\tender;\\n        boolVariable =...\n      JUMPDEST \t\t\tender;\\n        boolVariable =...\n      POP \t\t\t    intVariable = -5;\\n       ...\n      JUMP \t\t\t    intVariable = -5;\\n       ...\n    tag 83\t\t\t\";\\n        bytesVariable = ke...\n      JUMPDEST \t\t\t\";\\n        bytesVariable = ke...\n      PUSH 0\t\t\tePack\n      DUP2 \t\t\t/ Func\n      CALLDATALOAD \t\t\t }\\n    \\n    // Funct\n      SWAP1 \t\t\ty\"));\\n    }\\n    \\n    // Fun...\n      POP \t\t\ty\"));\\n    }\\n    \\n    // Fun...\n      PUSH [tag] 141\t\t\tdate uintVariable\\n    functio...\n      DUP2 \t\t\tion u\n      PUSH [tag] 82\t\t\tdate uintVariable\\n    functio...\n      JUMP \t\t\tdate uintVariable\\n    functio...\n    tag 141\t\t\tdate uintVariable\\n    functio...\n      JUMPDEST \t\t\tdate uintVariable\\n    functio...\n      SWAP3 \t\t\t\";\\n        bytesVariable = ke...\n      SWAP2 \t\t\t\";\\n        bytesVariable = ke...\n      POP \t\t\t\";\\n        bytesVariable = ke...\n      POP \t\t\t\";\\n        bytesVariable = ke...\n      JUMP \t\t\t\";\\n        bytesVariable = ke...\n    tag 18\t\t\tt256 newValue) public {\\n     ...\n      JUMPDEST \t\t\tt256 newValue) public {\\n     ...\n      PUSH 0\t\t\t  }\\n  \n      PUSH 20\t\t\t  \n      DUP3 \t\t\ttVariable\n      DUP5 \t\t\tupdate \n      SUB \t\t\t to update intVariable\\n\n      SLT \t\t\ttion to update intVariable\\n  ...\n      ISZERO \t\t\tunction to update intVariable\\...\n      PUSH [tag] 143\t\t\tunction to update intVariable\\...\n      JUMPI \t\t\tunction to update intVariable\\...\n      PUSH [tag] 144\t\t\ttion updateInt(int256 newValue...\n      PUSH [tag] 79\t\t\ttion updateInt(int256 newValue...\n      JUMP \t\t\ttion updateInt(int256 newValue...\n    tag 144\t\t\ttion updateInt(int256 newValue...\n      JUMPDEST \t\t\ttion updateInt(int256 newValue...\n    tag 143\t\t\tunction to update intVariable\\...\n      JUMPDEST \t\t\tunction to update intVariable\\...\n      PUSH 0\t\t\ti\n      PUSH [tag] 145\t\t\tAddress(address newValue) publ...\n      DUP5 \t\t\tdressVa\n      DUP3 \t\t\t      \n      DUP6 \t\t\t public {\n      ADD \t\t\tlue) public {\\n        \n      PUSH [tag] 83\t\t\tAddress(address newValue) publ...\n      JUMP \t\t\tAddress(address newValue) publ...\n    tag 145\t\t\tAddress(address newValue) publ...\n      JUMPDEST \t\t\tAddress(address newValue) publ...\n      SWAP2 \t\t\tion updateAddress(address newV...\n      POP \t\t\tion updateAddress(address newV...\n      POP \t\t\tFunction to update addressVari...\n      SWAP3 \t\t\tt256 newValue) public {\\n     ...\n      SWAP2 \t\t\tt256 newValue) public {\\n     ...\n      POP \t\t\tt256 newValue) public {\\n     ...\n      POP \t\t\tt256 newValue) public {\\n     ...\n      JUMP \t\t\tt256 newValue) public {\\n     ...\n    tag 84\t\t\t\\n    \\n    // Function to upd...\n      JUMPDEST \t\t\t\\n    \\n    // Function to upd...\n      PUSH 0\t\t\tction \n      DUP2 \t\t\tblic \n      MLOAD \t\t\tue) public {\n      SWAP1 \t\t\tool newValue) public {\n      POP \t\t\tool newValue) public {\n      SWAP2 \t\t\t\\n    \\n    // Function to upd...\n      SWAP1 \t\t\t\\n    \\n    // Function to upd...\n      POP \t\t\t\\n    \\n    // Function to upd...\n      JUMP \t\t\t\\n    \\n    // Function to upd...\n    tag 85\t\t\tVariable = newValue;\\n    }\\n ...\n      JUMPDEST \t\t\tVariable = newValue;\\n    }\\n ...\n      PUSH 0\t\t\tn updateStr\n      DUP3 \t\t\tlue) p\n      DUP3 \t\t\tnew\n      MSTORE \t\t\tmemory newValue) pu\n      PUSH 20\t\t\tewVa\n      DUP3 \t\t\te =\n      ADD \t\t\tiable = newVal\n      SWAP1 \t\t\t      stringVariable = newVal\n      POP \t\t\t      stringVariable = newVal\n      SWAP3 \t\t\tVariable = newValue;\\n    }\\n ...\n      SWAP2 \t\t\tVariable = newValue;\\n    }\\n ...\n      POP \t\t\tVariable = newValue;\\n    }\\n ...\n      POP \t\t\tVariable = newValue;\\n    }\\n ...\n      JUMP \t\t\tVariable = newValue;\\n    }\\n ...\n    tag 86\t\t\t  \\n    // Function to update ...\n      JUMPDEST \t\t\t  \\n    // Function to update ...\n      DUP3 \t\t\tlic {\\n\n      DUP2 \t\t\t) p\n      DUP4 \t\t\tVal\n      MCOPY \t\t\t32 newValue) public {\\n \n      PUSH 0\t\t\t \n      DUP4 \t\t\twValue\n      DUP4 \t\t\t = \n      ADD \t\t\table = newValue;\n      MSTORE \t\t\ttesVariable = newValue;\\n   \n      POP \t\t\t  \\n    // Function to update ...\n      POP \t\t\t  \\n    // Function to update ...\n      POP \t\t\t  \\n    // Function to update ...\n      JUMP \t\t\t  \\n    // Function to update ...\n    tag 87\t\t\t\n      JUMPDEST \t\t\t\n      PUSH 0\t\t\t\n      PUSH 1F\t\t\t\n      NOT \t\t\t\n      PUSH 1F\t\t\t\n      DUP4 \t\t\t\n      ADD \t\t\t\n      AND \t\t\t\n      SWAP1 \t\t\t\n      POP \t\t\t\n      SWAP2 \t\t\t\n      SWAP1 \t\t\t\n      POP \t\t\t\n      JUMP \t\t\t\n    tag 88\t\t\t\n      JUMPDEST \t\t\t\n      PUSH 0\t\t\t\n      PUSH [tag] 151\t\t\t\n      DUP3 \t\t\t\n      PUSH [tag] 84\t\t\t\n      JUMP \t\t\t\n    tag 151\t\t\t\n      JUMPDEST \t\t\t\n      PUSH [tag] 152\t\t\t\n      DUP2 \t\t\t\n      DUP6 \t\t\t\n      PUSH [tag] 85\t\t\t\n      JUMP \t\t\t\n    tag 152\t\t\t\n      JUMPDEST \t\t\t\n      SWAP4 \t\t\t\n      POP \t\t\t\n      PUSH [tag] 153\t\t\t\n      DUP2 \t\t\t\n      DUP6 \t\t\t\n      PUSH 20\t\t\t\n      DUP7 \t\t\t\n      ADD \t\t\t\n      PUSH [tag] 86\t\t\t\n      JUMP \t\t\t\n    tag 153\t\t\t\n      JUMPDEST \t\t\t\n      PUSH [tag] 154\t\t\t\n      DUP2 \t\t\t\n      PUSH [tag] 87\t\t\t\n      JUMP \t\t\t\n    tag 154\t\t\t\n      JUMPDEST \t\t\t\n      DUP5 \t\t\t\n      ADD \t\t\t\n      SWAP2 \t\t\t\n      POP \t\t\t\n      POP \t\t\t\n      SWAP3 \t\t\t\n      SWAP2 \t\t\t\n      POP \t\t\t\n      POP \t\t\t\n      JUMP \t\t\t\n    tag 23\t\t\t\n      JUMPDEST \t\t\t\n      PUSH 0\t\t\t\n      PUSH 20\t\t\t\n      DUP3 \t\t\t\n      ADD \t\t\t\n      SWAP1 \t\t\t\n      POP \t\t\t\n      DUP2 \t\t\t\n      DUP2 \t\t\t\n      SUB \t\t\t\n      PUSH 0\t\t\t\n      DUP4 \t\t\t\n      ADD \t\t\t\n      MSTORE \t\t\t\n      PUSH [tag] 156\t\t\t\n      DUP2 \t\t\t\n      DUP5 \t\t\t\n      PUSH [tag] 88\t\t\t\n      JUMP \t\t\t\n    tag 156\t\t\t\n      JUMPDEST \t\t\t\n      SWAP1 \t\t\t\n      POP \t\t\t\n      SWAP3 \t\t\t\n      SWAP2 \t\t\t\n      POP \t\t\t\n      POP \t\t\t\n      JUMP \t\t\t\n    tag 89\t\t\t\n      JUMPDEST \t\t\t\n      PUSH 0\t\t\t\n      DUP2 \t\t\t\n      SWAP1 \t\t\t\n      POP \t\t\t\n      SWAP2 \t\t\t\n      SWAP1 \t\t\t\n      POP \t\t\t\n      JUMP \t\t\t\n    tag 90\t\t\t\n      JUMPDEST \t\t\t\n      PUSH [tag] 159\t\t\t\n      DUP2 \t\t\t\n      PUSH [tag] 89\t\t\t\n      JUMP \t\t\t\n    tag 159\t\t\t\n      JUMPDEST \t\t\t\n      DUP2 \t\t\t\n      EQ \t\t\t\n      PUSH [tag] 160\t\t\t\n      JUMPI \t\t\t\n      PUSH 0\t\t\t\n      DUP1 \t\t\t\n      REVERT \t\t\t\n    tag 160\t\t\t\n      JUMPDEST \t\t\t\n      POP \t\t\t\n      JUMP \t\t\t\n    tag 91\t\t\t\n      JUMPDEST \t\t\t\n      PUSH 0\t\t\t\n      DUP2 \t\t\t\n      CALLDATALOAD \t\t\t\n      SWAP1 \t\t\t\n      POP \t\t\t\n      PUSH [tag] 162\t\t\t\n      DUP2 \t\t\t\n      PUSH [tag] 90\t\t\t\n      JUMP \t\t\t\n    tag 162\t\t\t\n      JUMPDEST \t\t\t\n      SWAP3 \t\t\t\n      SWAP2 \t\t\t\n      POP \t\t\t\n      POP \t\t\t\n      JUMP \t\t\t\n    tag 26\t\t\t\n      JUMPDEST \t\t\t\n      PUSH 0\t\t\t\n      PUSH 20\t\t\t\n      DUP3 \t\t\t\n      DUP5 \t\t\t\n      SUB \t\t\t\n      SLT \t\t\t\n      ISZERO \t\t\t\n      PUSH [tag] 164\t\t\t\n      JUMPI \t\t\t\n      PUSH [tag] 165\t\t\t\n      PUSH [tag] 79\t\t\t\n      JUMP \t\t\t\n    tag 165\t\t\t\n      JUMPDEST \t\t\t\n    tag 164\t\t\t\n      JUMPDEST \t\t\t\n      PUSH 0\t\t\t\n      PUSH [tag] 166\t\t\t\n      DUP5 \t\t\t\n      DUP3 \t\t\t\n      DUP6 \t\t\t\n      ADD \t\t\t\n      PUSH [tag] 91\t\t\t\n      JUMP \t\t\t\n    tag 166\t\t\t\n      JUMPDEST \t\t\t\n      SWAP2 \t\t\t\n      POP \t\t\t\n      POP \t\t\t\n      SWAP3 \t\t\t\n      SWAP2 \t\t\t\n      POP \t\t\t\n      POP \t\t\t\n      JUMP \t\t\t\n    tag 92\t\t\t\n      JUMPDEST \t\t\t\n      PUSH [tag] 168\t\t\t\n      DUP2 \t\t\t\n      PUSH [tag] 81\t\t\t\n      JUMP \t\t\t\n    tag 168\t\t\t\n      JUMPDEST \t\t\t\n      DUP3 \t\t\t\n      MSTORE \t\t\t\n      POP \t\t\t\n      POP \t\t\t\n      JUMP \t\t\t\n    tag 31\t\t\t\n      JUMPDEST \t\t\t\n      PUSH 0\t\t\t\n      PUSH 20\t\t\t\n      DUP3 \t\t\t\n      ADD \t\t\t\n      SWAP1 \t\t\t\n      POP \t\t\t\n      PUSH [tag] 170\t\t\t\n      PUSH 0\t\t\t\n      DUP4 \t\t\t\n      ADD \t\t\t\n      DUP5 \t\t\t\n      PUSH [tag] 92\t\t\t\n      JUMP \t\t\t\n    tag 170\t\t\t\n      JUMPDEST \t\t\t\n      SWAP3 \t\t\t\n      SWAP2 \t\t\t\n      POP \t\t\t\n      POP \t\t\t\n      JUMP \t\t\t\n    tag 93\t\t\t\n      JUMPDEST \t\t\t\n      PUSH 0\t\t\t\n      DUP2 \t\t\t\n      SWAP1 \t\t\t\n      POP \t\t\t\n      SWAP2 \t\t\t\n      SWAP1 \t\t\t\n      POP \t\t\t\n      JUMP \t\t\t\n    tag 94\t\t\t\n      JUMPDEST \t\t\t\n      PUSH [tag] 173\t\t\t\n      DUP2 \t\t\t\n      PUSH [tag] 93\t\t\t\n      JUMP \t\t\t\n    tag 173\t\t\t\n      JUMPDEST \t\t\t\n      DUP3 \t\t\t\n      MSTORE \t\t\t\n      POP \t\t\t\n      POP \t\t\t\n      JUMP \t\t\t\n    tag 35\t\t\t\n      JUMPDEST \t\t\t\n      PUSH 0\t\t\t\n      PUSH 20\t\t\t\n      DUP3 \t\t\t\n      ADD \t\t\t\n      SWAP1 \t\t\t\n      POP \t\t\t\n      PUSH [tag] 175\t\t\t\n      PUSH 0\t\t\t\n      DUP4 \t\t\t\n      ADD \t\t\t\n      DUP5 \t\t\t\n      PUSH [tag] 94\t\t\t\n      JUMP \t\t\t\n    tag 175\t\t\t\n      JUMPDEST \t\t\t\n      SWAP3 \t\t\t\n      SWAP2 \t\t\t\n      POP \t\t\t\n      POP \t\t\t\n      JUMP \t\t\t\n    tag 95\t\t\t\n      JUMPDEST \t\t\t\n      PUSH 0\t\t\t\n      DUP2 \t\t\t\n      ISZERO \t\t\t\n      ISZERO \t\t\t\n      SWAP1 \t\t\t\n      POP \t\t\t\n      SWAP2 \t\t\t\n      SWAP1 \t\t\t\n      POP \t\t\t\n      JUMP \t\t\t\n    tag 96\t\t\t\n      JUMPDEST \t\t\t\n      PUSH [tag] 178\t\t\t\n      DUP2 \t\t\t\n      PUSH [tag] 95\t\t\t\n      JUMP \t\t\t\n    tag 178\t\t\t\n      JUMPDEST \t\t\t\n      DUP2 \t\t\t\n      EQ \t\t\t\n      PUSH [tag] 179\t\t\t\n      JUMPI \t\t\t\n      PUSH 0\t\t\t\n      DUP1 \t\t\t\n      REVERT \t\t\t\n    tag 179\t\t\t\n      JUMPDEST \t\t\t\n      POP \t\t\t\n      JUMP \t\t\t\n    tag 97\t\t\t\n      JUMPDEST \t\t\t\n      PUSH 0\t\t\t\n      DUP2 \t\t\t\n      CALLDATALOAD \t\t\t\n      SWAP1 \t\t\t\n      POP \t\t\t\n      PUSH [tag] 181\t\t\t\n      DUP2 \t\t\t\n      PUSH [tag] 96\t\t\t\n      JUMP \t\t\t\n    tag 181\t\t\t\n      JUMPDEST \t\t\t\n      SWAP3 \t\t\t\n      SWAP2 \t\t\t\n      POP \t\t\t\n      POP \t\t\t\n      JUMP \t\t\t\n    tag 38\t\t\t\n      JUMPDEST \t\t\t\n      PUSH 0\t\t\t\n      PUSH 20\t\t\t\n      DUP3 \t\t\t\n      DUP5 \t\t\t\n      SUB \t\t\t\n      SLT \t\t\t\n      ISZERO \t\t\t\n      PUSH [tag] 183\t\t\t\n      JUMPI \t\t\t\n      PUSH [tag] 184\t\t\t\n      PUSH [tag] 79\t\t\t\n      JUMP \t\t\t\n    tag 184\t\t\t\n      JUMPDEST \t\t\t\n    tag 183\t\t\t\n      JUMPDEST \t\t\t\n      PUSH 0\t\t\t\n      PUSH [tag] 185\t\t\t\n      DUP5 \t\t\t\n      DUP3 \t\t\t\n      DUP6 \t\t\t\n      ADD \t\t\t\n      PUSH [tag] 97\t\t\t\n      JUMP \t\t\t\n    tag 185\t\t\t\n      JUMPDEST \t\t\t\n      SWAP2 \t\t\t\n      POP \t\t\t\n      POP \t\t\t\n      SWAP3 \t\t\t\n      SWAP2 \t\t\t\n      POP \t\t\t\n      POP \t\t\t\n      JUMP \t\t\t\n    tag 98\t\t\t\n      JUMPDEST \t\t\t\n      PUSH [tag] 187\t\t\t\n      DUP2 \t\t\t\n      PUSH [tag] 89\t\t\t\n      JUMP \t\t\t\n    tag 187\t\t\t\n      JUMPDEST \t\t\t\n      DUP3 \t\t\t\n      MSTORE \t\t\t\n      POP \t\t\t\n      POP \t\t\t\n      JUMP \t\t\t\n    tag 43\t\t\t\n      JUMPDEST \t\t\t\n      PUSH 0\t\t\t\n      PUSH 20\t\t\t\n      DUP3 \t\t\t\n      ADD \t\t\t\n      SWAP1 \t\t\t\n      POP \t\t\t\n      PUSH [tag] 189\t\t\t\n      PUSH 0\t\t\t\n      DUP4 \t\t\t\n      ADD \t\t\t\n      DUP5 \t\t\t\n      PUSH [tag] 98\t\t\t\n      JUMP \t\t\t\n    tag 189\t\t\t\n      JUMPDEST \t\t\t\n      SWAP3 \t\t\t\n      SWAP2 \t\t\t\n      POP \t\t\t\n      POP \t\t\t\n      JUMP \t\t\t\n    tag 99\t\t\t\n      JUMPDEST \t\t\t\n      PUSH [tag] 191\t\t\t\n      DUP2 \t\t\t\n      PUSH [tag] 95\t\t\t\n      JUMP \t\t\t\n    tag 191\t\t\t\n      JUMPDEST \t\t\t\n      DUP3 \t\t\t\n      MSTORE \t\t\t\n      POP \t\t\t\n      POP \t\t\t\n      JUMP \t\t\t\n    tag 47\t\t\t\n      JUMPDEST \t\t\t\n      PUSH 0\t\t\t\n      PUSH 20\t\t\t\n      DUP3 \t\t\t\n      ADD \t\t\t\n      SWAP1 \t\t\t\n      POP \t\t\t\n      PUSH [tag] 193\t\t\t\n      PUSH 0\t\t\t\n      DUP4 \t\t\t\n      ADD \t\t\t\n      DUP5 \t\t\t\n      PUSH [tag] 99\t\t\t\n      JUMP \t\t\t\n    tag 193\t\t\t\n      JUMPDEST \t\t\t\n      SWAP3 \t\t\t\n      SWAP2 \t\t\t\n      POP \t\t\t\n      POP \t\t\t\n      JUMP \t\t\t\n    tag 100\t\t\t\n      JUMPDEST \t\t\t\n      PUSH 0\t\t\t\n      DUP1 \t\t\t\n      REVERT \t\t\t\n    tag 101\t\t\t\n      JUMPDEST \t\t\t\n      PUSH 0\t\t\t\n      DUP1 \t\t\t\n      REVERT \t\t\t\n    tag 102\t\t\t\n      JUMPDEST \t\t\t\n      PUSH 4E487B7100000000000000000000000000000000000000000000000000000000\t\t\t\n      PUSH 0\t\t\t\n      MSTORE \t\t\t\n      PUSH 41\t\t\t\n      PUSH 4\t\t\t\n      MSTORE \t\t\t\n      PUSH 24\t\t\t\n      PUSH 0\t\t\t\n      REVERT \t\t\t\n    tag 103\t\t\t\n      JUMPDEST \t\t\t\n      PUSH [tag] 198\t\t\t\n      DUP3 \t\t\t\n      PUSH [tag] 87\t\t\t\n      JUMP \t\t\t\n    tag 198\t\t\t\n      JUMPDEST \t\t\t\n      DUP2 \t\t\t\n      ADD \t\t\t\n      DUP2 \t\t\t\n      DUP2 \t\t\t\n      LT \t\t\t\n      PUSH FFFFFFFFFFFFFFFF\t\t\t\n      DUP3 \t\t\t\n      GT \t\t\t\n      OR \t\t\t\n      ISZERO \t\t\t\n      PUSH [tag] 199\t\t\t\n      JUMPI \t\t\t\n      PUSH [tag] 200\t\t\t\n      PUSH [tag] 102\t\t\t\n      JUMP \t\t\t\n    tag 200\t\t\t\n      JUMPDEST \t\t\t\n    tag 199\t\t\t\n      JUMPDEST \t\t\t\n      DUP1 \t\t\t\n      PUSH 40\t\t\t\n      MSTORE \t\t\t\n      POP \t\t\t\n      POP \t\t\t\n      POP \t\t\t\n      JUMP \t\t\t\n    tag 104\t\t\t\n      JUMPDEST \t\t\t\n      PUSH 0\t\t\t\n      PUSH [tag] 202\t\t\t\n      PUSH [tag] 78\t\t\t\n      JUMP \t\t\t\n    tag 202\t\t\t\n      JUMPDEST \t\t\t\n      SWAP1 \t\t\t\n      POP \t\t\t\n      PUSH [tag] 203\t\t\t\n      DUP3 \t\t\t\n      DUP3 \t\t\t\n      PUSH [tag] 103\t\t\t\n      JUMP \t\t\t\n    tag 203\t\t\t\n      JUMPDEST \t\t\t\n      SWAP2 \t\t\t\n      SWAP1 \t\t\t\n      POP \t\t\t\n      JUMP \t\t\t\n    tag 105\t\t\t\n      JUMPDEST \t\t\t\n      PUSH 0\t\t\t\n      PUSH FFFFFFFFFFFFFFFF\t\t\t\n      DUP3 \t\t\t\n      GT \t\t\t\n      ISZERO \t\t\t\n      PUSH [tag] 205\t\t\t\n      JUMPI \t\t\t\n      PUSH [tag] 206\t\t\t\n      PUSH [tag] 102\t\t\t\n      JUMP \t\t\t\n    tag 206\t\t\t\n      JUMPDEST \t\t\t\n    tag 205\t\t\t\n      JUMPDEST \t\t\t\n      PUSH [tag] 207\t\t\t\n      DUP3 \t\t\t\n      PUSH [tag] 87\t\t\t\n      JUMP \t\t\t\n    tag 207\t\t\t\n      JUMPDEST \t\t\t\n      SWAP1 \t\t\t\n      POP \t\t\t\n      PUSH 20\t\t\t\n      DUP2 \t\t\t\n      ADD \t\t\t\n      SWAP1 \t\t\t\n      POP \t\t\t\n      SWAP2 \t\t\t\n      SWAP1 \t\t\t\n      POP \t\t\t\n      JUMP \t\t\t\n    tag 106\t\t\t\n      JUMPDEST \t\t\t\n      DUP3 \t\t\t\n      DUP2 \t\t\t\n      DUP4 \t\t\t\n      CALLDATACOPY \t\t\t\n      PUSH 0\t\t\t\n      DUP4 \t\t\t\n      DUP4 \t\t\t\n      ADD \t\t\t\n      MSTORE \t\t\t\n      POP \t\t\t\n      POP \t\t\t\n      POP \t\t\t\n      JUMP \t\t\t\n    tag 107\t\t\t\n      JUMPDEST \t\t\t\n      PUSH 0\t\t\t\n      PUSH [tag] 210\t\t\t\n      PUSH [tag] 211\t\t\t\n      DUP5 \t\t\t\n      PUSH [tag] 105\t\t\t\n      JUMP \t\t\t\n    tag 211\t\t\t\n      JUMPDEST \t\t\t\n      PUSH [tag] 104\t\t\t\n      JUMP \t\t\t\n    tag 210\t\t\t\n      JUMPDEST \t\t\t\n      SWAP1 \t\t\t\n      POP \t\t\t\n      DUP3 \t\t\t\n      DUP2 \t\t\t\n      MSTORE \t\t\t\n      PUSH 20\t\t\t\n      DUP2 \t\t\t\n      ADD \t\t\t\n      DUP5 \t\t\t\n      DUP5 \t\t\t\n      DUP5 \t\t\t\n      ADD \t\t\t\n      GT \t\t\t\n      ISZERO \t\t\t\n      PUSH [tag] 212\t\t\t\n      JUMPI \t\t\t\n      PUSH [tag] 213\t\t\t\n      PUSH [tag] 101\t\t\t\n      JUMP \t\t\t\n    tag 213\t\t\t\n      JUMPDEST \t\t\t\n    tag 212\t\t\t\n      JUMPDEST \t\t\t\n      PUSH [tag] 214\t\t\t\n      DUP5 \t\t\t\n      DUP3 \t\t\t\n      DUP6 \t\t\t\n      PUSH [tag] 106\t\t\t\n      JUMP \t\t\t\n    tag 214\t\t\t\n      JUMPDEST \t\t\t\n      POP \t\t\t\n      SWAP4 \t\t\t\n      SWAP3 \t\t\t\n      POP \t\t\t\n      POP \t\t\t\n      POP \t\t\t\n      JUMP \t\t\t\n    tag 108\t\t\t\n      JUMPDEST \t\t\t\n      PUSH 0\t\t\t\n      DUP3 \t\t\t\n      PUSH 1F\t\t\t\n      DUP4 \t\t\t\n      ADD \t\t\t\n      SLT \t\t\t\n      PUSH [tag] 216\t\t\t\n      JUMPI \t\t\t\n      PUSH [tag] 217\t\t\t\n      PUSH [tag] 100\t\t\t\n      JUMP \t\t\t\n    tag 217\t\t\t\n      JUMPDEST \t\t\t\n    tag 216\t\t\t\n      JUMPDEST \t\t\t\n      DUP2 \t\t\t\n      CALLDATALOAD \t\t\t\n      PUSH [tag] 218\t\t\t\n      DUP5 \t\t\t\n      DUP3 \t\t\t\n      PUSH 20\t\t\t\n      DUP7 \t\t\t\n      ADD \t\t\t\n      PUSH [tag] 107\t\t\t\n      JUMP \t\t\t\n    tag 218\t\t\t\n      JUMPDEST \t\t\t\n      SWAP2 \t\t\t\n      POP \t\t\t\n      POP \t\t\t\n      SWAP3 \t\t\t\n      SWAP2 \t\t\t\n      POP \t\t\t\n      POP \t\t\t\n      JUMP \t\t\t\n    tag 50\t\t\t\n      JUMPDEST \t\t\t\n      PUSH 0\t\t\t\n      PUSH 20\t\t\t\n      DUP3 \t\t\t\n      DUP5 \t\t\t\n      SUB \t\t\t\n      SLT \t\t\t\n      ISZERO \t\t\t\n      PUSH [tag] 220\t\t\t\n      JUMPI \t\t\t\n      PUSH [tag] 221\t\t\t\n      PUSH [tag] 79\t\t\t\n      JUMP \t\t\t\n    tag 221\t\t\t\n      JUMPDEST \t\t\t\n    tag 220\t\t\t\n      JUMPDEST \t\t\t\n      PUSH 0\t\t\t\n      DUP3 \t\t\t\n      ADD \t\t\t\n      CALLDATALOAD \t\t\t\n      PUSH FFFFFFFFFFFFFFFF\t\t\t\n      DUP2 \t\t\t\n      GT \t\t\t\n      ISZERO \t\t\t\n      PUSH [tag] 222\t\t\t\n      JUMPI \t\t\t\n      PUSH [tag] 223\t\t\t\n      PUSH [tag] 80\t\t\t\n      JUMP \t\t\t\n    tag 223\t\t\t\n      JUMPDEST \t\t\t\n    tag 222\t\t\t\n      JUMPDEST \t\t\t\n      PUSH [tag] 224\t\t\t\n      DUP5 \t\t\t\n      DUP3 \t\t\t\n      DUP6 \t\t\t\n      ADD \t\t\t\n      PUSH [tag] 108\t\t\t\n      JUMP \t\t\t\n    tag 224\t\t\t\n      JUMPDEST \t\t\t\n      SWAP2 \t\t\t\n      POP \t\t\t\n      POP \t\t\t\n      SWAP3 \t\t\t\n      SWAP2 \t\t\t\n      POP \t\t\t\n      POP \t\t\t\n      JUMP \t\t\t\n    tag 109\t\t\t\n      JUMPDEST \t\t\t\n      PUSH [tag] 226\t\t\t\n      DUP2 \t\t\t\n      PUSH [tag] 93\t\t\t\n      JUMP \t\t\t\n    tag 226\t\t\t\n      JUMPDEST \t\t\t\n      DUP2 \t\t\t\n      EQ \t\t\t\n      PUSH [tag] 227\t\t\t\n      JUMPI \t\t\t\n      PUSH 0\t\t\t\n      DUP1 \t\t\t\n      REVERT \t\t\t\n    tag 227\t\t\t\n      JUMPDEST \t\t\t\n      POP \t\t\t\n      JUMP \t\t\t\n    tag 110\t\t\t\n      JUMPDEST \t\t\t\n      PUSH 0\t\t\t\n      DUP2 \t\t\t\n      CALLDATALOAD \t\t\t\n      SWAP1 \t\t\t\n      POP \t\t\t\n      PUSH [tag] 229\t\t\t\n      DUP2 \t\t\t\n      PUSH [tag] 109\t\t\t\n      JUMP \t\t\t\n    tag 229\t\t\t\n      JUMPDEST \t\t\t\n      SWAP3 \t\t\t\n      SWAP2 \t\t\t\n      POP \t\t\t\n      POP \t\t\t\n      JUMP \t\t\t\n    tag 54\t\t\t\n      JUMPDEST \t\t\t\n      PUSH 0\t\t\t\n      PUSH 20\t\t\t\n      DUP3 \t\t\t\n      DUP5 \t\t\t\n      SUB \t\t\t\n      SLT \t\t\t\n      ISZERO \t\t\t\n      PUSH [tag] 231\t\t\t\n      JUMPI \t\t\t\n      PUSH [tag] 232\t\t\t\n      PUSH [tag] 79\t\t\t\n      JUMP \t\t\t\n    tag 232\t\t\t\n      JUMPDEST \t\t\t\n    tag 231\t\t\t\n      JUMPDEST \t\t\t\n      PUSH 0\t\t\t\n      PUSH [tag] 233\t\t\t\n      DUP5 \t\t\t\n      DUP3 \t\t\t\n      DUP6 \t\t\t\n      ADD \t\t\t\n      PUSH [tag] 110\t\t\t\n      JUMP \t\t\t\n    tag 233\t\t\t\n      JUMPDEST \t\t\t\n      SWAP2 \t\t\t\n      POP \t\t\t\n      POP \t\t\t\n      SWAP3 \t\t\t\n      SWAP2 \t\t\t\n      POP \t\t\t\n      POP \t\t\t\n      JUMP \t\t\t\n    tag 111\t\t\t\n      JUMPDEST \t\t\t\n      PUSH 0\t\t\t\n      PUSH FFFFFFFFFFFFFFFFFFFFFFFFFFFFFFFFFFFFFFFF\t\t\t\n      DUP3 \t\t\t\n      AND \t\t\t\n      SWAP1 \t\t\t\n      POP \t\t\t\n      SWAP2 \t\t\t\n      SWAP1 \t\t\t\n      POP \t\t\t\n      JUMP \t\t\t\n    tag 112\t\t\t\n      JUMPDEST \t\t\t\n      PUSH 0\t\t\t\n      PUSH [tag] 236\t\t\t\n      DUP3 \t\t\t\n      PUSH [tag] 111\t\t\t\n      JUMP \t\t\t\n    tag 236\t\t\t\n      JUMPDEST \t\t\t\n      SWAP1 \t\t\t\n      POP \t\t\t\n      SWAP2 \t\t\t\n      SWAP1 \t\t\t\n      POP \t\t\t\n      JUMP \t\t\t\n    tag 113\t\t\t\n      JUMPDEST \t\t\t\n      PUSH [tag] 238\t\t\t\n      DUP2 \t\t\t\n      PUSH [tag] 112\t\t\t\n      JUMP \t\t\t\n    tag 238\t\t\t\n      JUMPDEST \t\t\t\n      DUP3 \t\t\t\n      MSTORE \t\t\t\n      POP \t\t\t\n      POP \t\t\t\n      JUMP \t\t\t\n    tag 59\t\t\t\n      JUMPDEST \t\t\t\n      PUSH 0\t\t\t\n      PUSH 20\t\t\t\n      DUP3 \t\t\t\n      ADD \t\t\t\n      SWAP1 \t\t\t\n      POP \t\t\t\n      PUSH [tag] 240\t\t\t\n      PUSH 0\t\t\t\n      DUP4 \t\t\t\n      ADD \t\t\t\n      DUP5 \t\t\t\n      PUSH [tag] 113\t\t\t\n      JUMP \t\t\t\n    tag 240\t\t\t\n      JUMPDEST \t\t\t\n      SWAP3 \t\t\t\n      SWAP2 \t\t\t\n      POP \t\t\t\n      POP \t\t\t\n      JUMP \t\t\t\n    tag 114\t\t\t\n      JUMPDEST \t\t\t\n      PUSH [tag] 242\t\t\t\n      DUP2 \t\t\t\n      PUSH [tag] 112\t\t\t\n      JUMP \t\t\t\n    tag 242\t\t\t\n      JUMPDEST \t\t\t\n      DUP2 \t\t\t\n      EQ \t\t\t\n      PUSH [tag] 243\t\t\t\n      JUMPI \t\t\t\n      PUSH 0\t\t\t\n      DUP1 \t\t\t\n      REVERT \t\t\t\n    tag 243\t\t\t\n      JUMPDEST \t\t\t\n      POP \t\t\t\n      JUMP \t\t\t\n    tag 115\t\t\t\n      JUMPDEST \t\t\t\n      PUSH 0\t\t\t\n      DUP2 \t\t\t\n      CALLDATALOAD \t\t\t\n      SWAP1 \t\t\t\n      POP \t\t\t\n      PUSH [tag] 245\t\t\t\n      DUP2 \t\t\t\n      PUSH [tag] 114\t\t\t\n      JUMP \t\t\t\n    tag 245\t\t\t\n      JUMPDEST \t\t\t\n      SWAP3 \t\t\t\n      SWAP2 \t\t\t\n      POP \t\t\t\n      POP \t\t\t\n      JUMP \t\t\t\n    tag 62\t\t\t\n      JUMPDEST \t\t\t\n      PUSH 0\t\t\t\n      PUSH 20\t\t\t\n      DUP3 \t\t\t\n      DUP5 \t\t\t\n      SUB \t\t\t\n      SLT \t\t\t\n      ISZERO \t\t\t\n      PUSH [tag] 247\t\t\t\n      JUMPI \t\t\t\n      PUSH [tag] 248\t\t\t\n      PUSH [tag] 79\t\t\t\n      JUMP \t\t\t\n    tag 248\t\t\t\n      JUMPDEST \t\t\t\n    tag 247\t\t\t\n      JUMPDEST \t\t\t\n      PUSH 0\t\t\t\n      PUSH [tag] 249\t\t\t\n      DUP5 \t\t\t\n      DUP3 \t\t\t\n      DUP6 \t\t\t\n      ADD \t\t\t\n      PUSH [tag] 115\t\t\t\n      JUMP \t\t\t\n    tag 249\t\t\t\n      JUMPDEST \t\t\t\n      SWAP2 \t\t\t\n      POP \t\t\t\n      POP \t\t\t\n      SWAP3 \t\t\t\n      SWAP2 \t\t\t\n      POP \t\t\t\n      POP \t\t\t\n      JUMP \t\t\t\n    tag 116\t\t\t\n      JUMPDEST \t\t\t\n      PUSH 4E487B7100000000000000000000000000000000000000000000000000000000\t\t\t\n      PUSH 0\t\t\t\n      MSTORE \t\t\t\n      PUSH 22\t\t\t\n      PUSH 4\t\t\t\n      MSTORE \t\t\t\n      PUSH 24\t\t\t\n      PUSH 0\t\t\t\n      REVERT \t\t\t\n    tag 66\t\t\t\n      JUMPDEST \t\t\t\n      PUSH 0\t\t\t\n      PUSH 2\t\t\t\n      DUP3 \t\t\t\n      DIV \t\t\t\n      SWAP1 \t\t\t\n      POP \t\t\t\n      PUSH 1\t\t\t\n      DUP3 \t\t\t\n      AND \t\t\t\n      DUP1 \t\t\t\n      PUSH [tag] 252\t\t\t\n      JUMPI \t\t\t\n      PUSH 7F\t\t\t\n      DUP3 \t\t\t\n      AND \t\t\t\n      SWAP2 \t\t\t\n      POP \t\t\t\n    tag 252\t\t\t\n      JUMPDEST \t\t\t\n      PUSH 20\t\t\t\n      DUP3 \t\t\t\n      LT \t\t\t\n      DUP2 \t\t\t\n      SUB \t\t\t\n      PUSH [tag] 253\t\t\t\n      JUMPI \t\t\t\n      PUSH [tag] 254\t\t\t\n      PUSH [tag] 116\t\t\t\n      JUMP \t\t\t\n    tag 254\t\t\t\n      JUMPDEST \t\t\t\n    tag 253\t\t\t\n      JUMPDEST \t\t\t\n      POP \t\t\t\n      SWAP2 \t\t\t\n      SWAP1 \t\t\t\n      POP \t\t\t\n      JUMP \t\t\t\n    tag 117\t\t\t\n      JUMPDEST \t\t\t\n      PUSH 0\t\t\t\n      DUP2 \t\t\t\n      SWAP1 \t\t\t\n      POP \t\t\t\n      DUP2 \t\t\t\n      PUSH 0\t\t\t\n      MSTORE \t\t\t\n      PUSH 20\t\t\t\n      PUSH 0\t\t\t\n      KECCAK256 \t\t\t\n      SWAP1 \t\t\t\n      POP \t\t\t\n      SWAP2 \t\t\t\n      SWAP1 \t\t\t\n      POP \t\t\t\n      JUMP \t\t\t\n    tag 118\t\t\t\n      JUMPDEST \t\t\t\n      PUSH 0\t\t\t\n      PUSH 20\t\t\t\n      PUSH 1F\t\t\t\n      DUP4 \t\t\t\n      ADD \t\t\t\n      DIV \t\t\t\n      SWAP1 \t\t\t\n      POP \t\t\t\n      SWAP2 \t\t\t\n      SWAP1 \t\t\t\n      POP \t\t\t\n      JUMP \t\t\t\n    tag 119\t\t\t\n      JUMPDEST \t\t\t\n      PUSH 0\t\t\t\n      DUP3 \t\t\t\n      DUP3 \t\t\t\n      SHL \t\t\t\n      SWAP1 \t\t\t\n      POP \t\t\t\n      SWAP3 \t\t\t\n      SWAP2 \t\t\t\n      POP \t\t\t\n      POP \t\t\t\n      JUMP \t\t\t\n    tag 120\t\t\t\n      JUMPDEST \t\t\t\n      PUSH 0\t\t\t\n      PUSH 8\t\t\t\n      DUP4 \t\t\t\n      MUL \t\t\t\n      PUSH [tag] 259\t\t\t\n      PUSH FFFFFFFFFFFFFFFFFFFFFFFFFFFFFFFFFFFFFFFFFFFFFFFFFFFFFFFFFFFFFFFF\t\t\t\n      DUP3 \t\t\t\n      PUSH [tag] 119\t\t\t\n      JUMP \t\t\t\n    tag 259\t\t\t\n      JUMPDEST \t\t\t\n      PUSH [tag] 260\t\t\t\n      DUP7 \t\t\t\n      DUP4 \t\t\t\n      PUSH [tag] 119\t\t\t\n      JUMP \t\t\t\n    tag 260\t\t\t\n      JUMPDEST \t\t\t\n      SWAP6 \t\t\t\n      POP \t\t\t\n      DUP1 \t\t\t\n      NOT \t\t\t\n      DUP5 \t\t\t\n      AND \t\t\t\n      SWAP4 \t\t\t\n      POP \t\t\t\n      DUP1 \t\t\t\n      DUP7 \t\t\t\n      AND \t\t\t\n      DUP5 \t\t\t\n      OR \t\t\t\n      SWAP3 \t\t\t\n      POP \t\t\t\n      POP \t\t\t\n      POP \t\t\t\n      SWAP4 \t\t\t\n      SWAP3 \t\t\t\n      POP \t\t\t\n      POP \t\t\t\n      POP \t\t\t\n      JUMP \t\t\t\n    tag 121\t\t\t\n      JUMPDEST \t\t\t\n      PUSH 0\t\t\t\n      DUP2 \t\t\t\n      SWAP1 \t\t\t\n      POP \t\t\t\n      SWAP2 \t\t\t\n      SWAP1 \t\t\t\n      POP \t\t\t\n      JUMP \t\t\t\n    tag 122\t\t\t\n      JUMPDEST \t\t\t\n      PUSH 0\t\t\t\n      PUSH [tag] 263\t\t\t\n      PUSH [tag] 264\t\t\t\n      PUSH [tag] 265\t\t\t\n      DUP5 \t\t\t\n      PUSH [tag] 93\t\t\t\n      JUMP \t\t\t\n    tag 265\t\t\t\n      JUMPDEST \t\t\t\n      PUSH [tag] 121\t\t\t\n      JUMP \t\t\t\n    tag 264\t\t\t\n      JUMPDEST \t\t\t\n      PUSH [tag] 93\t\t\t\n      JUMP \t\t\t\n    tag 263\t\t\t\n      JUMPDEST \t\t\t\n      SWAP1 \t\t\t\n      POP \t\t\t\n      SWAP2 \t\t\t\n      SWAP1 \t\t\t\n      POP \t\t\t\n      JUMP \t\t\t\n    tag 123\t\t\t\n      JUMPDEST \t\t\t\n      PUSH 0\t\t\t\n      DUP2 \t\t\t\n      SWAP1 \t\t\t\n      POP \t\t\t\n      SWAP2 \t\t\t\n      SWAP1 \t\t\t\n      POP \t\t\t\n      JUMP \t\t\t\n    tag 124\t\t\t\n      JUMPDEST \t\t\t\n      PUSH [tag] 268\t\t\t\n      DUP4 \t\t\t\n      PUSH [tag] 122\t\t\t\n      JUMP \t\t\t\n    tag 268\t\t\t\n      JUMPDEST \t\t\t\n      PUSH [tag] 269\t\t\t\n      PUSH [tag] 270\t\t\t\n      DUP3 \t\t\t\n      PUSH [tag] 123\t\t\t\n      JUMP \t\t\t\n    tag 270\t\t\t\n      JUMPDEST \t\t\t\n      DUP5 \t\t\t\n      DUP5 \t\t\t\n      SLOAD \t\t\t\n      PUSH [tag] 120\t\t\t\n      JUMP \t\t\t\n    tag 269\t\t\t\n      JUMPDEST \t\t\t\n      DUP3 \t\t\t\n      SSTORE \t\t\t\n      POP \t\t\t\n      POP \t\t\t\n      POP \t\t\t\n      POP \t\t\t\n      JUMP \t\t\t\n    tag 125\t\t\t\n      JUMPDEST \t\t\t\n      PUSH 0\t\t\t\n      SWAP1 \t\t\t\n      JUMP \t\t\t\n    tag 126\t\t\t\n      JUMPDEST \t\t\t\n      PUSH [tag] 273\t\t\t\n      PUSH [tag] 125\t\t\t\n      JUMP \t\t\t\n    tag 273\t\t\t\n      JUMPDEST \t\t\t\n      PUSH [tag] 274\t\t\t\n      DUP2 \t\t\t\n      DUP5 \t\t\t\n      DUP5 \t\t\t\n      PUSH [tag] 124\t\t\t\n      JUMP \t\t\t\n    tag 274\t\t\t\n      JUMPDEST \t\t\t\n      POP \t\t\t\n      POP \t\t\t\n      POP \t\t\t\n      JUMP \t\t\t\n    tag 127\t\t\t\n      JUMPDEST \t\t\t\n    tag 276\t\t\t\n      JUMPDEST \t\t\t\n      DUP2 \t\t\t\n      DUP2 \t\t\t\n      LT \t\t\t\n      ISZERO \t\t\t\n      PUSH [tag] 278\t\t\t\n      JUMPI \t\t\t\n      PUSH [tag] 279\t\t\t\n      PUSH 0\t\t\t\n      DUP3 \t\t\t\n      PUSH [tag] 126\t\t\t\n      JUMP \t\t\t\n    tag 279\t\t\t\n      JUMPDEST \t\t\t\n      PUSH 1\t\t\t\n      DUP2 \t\t\t\n      ADD \t\t\t\n      SWAP1 \t\t\t\n      POP \t\t\t\n      PUSH [tag] 276\t\t\t\n      JUMP \t\t\t\n    tag 278\t\t\t\n      JUMPDEST \t\t\t\n      POP \t\t\t\n      POP \t\t\t\n      JUMP \t\t\t\n    tag 128\t\t\t\n      JUMPDEST \t\t\t\n      PUSH 1F\t\t\t\n      DUP3 \t\t\t\n      GT \t\t\t\n      ISZERO \t\t\t\n      PUSH [tag] 281\t\t\t\n      JUMPI \t\t\t\n      PUSH [tag] 282\t\t\t\n      DUP2 \t\t\t\n      PUSH [tag] 117\t\t\t\n      JUMP \t\t\t\n    tag 282\t\t\t\n      JUMPDEST \t\t\t\n      PUSH [tag] 283\t\t\t\n      DUP5 \t\t\t\n      PUSH [tag] 118\t\t\t\n      JUMP \t\t\t\n    tag 283\t\t\t\n      JUMPDEST \t\t\t\n      DUP2 \t\t\t\n      ADD \t\t\t\n      PUSH 20\t\t\t\n      DUP6 \t\t\t\n      LT \t\t\t\n      ISZERO \t\t\t\n      PUSH [tag] 284\t\t\t\n      JUMPI \t\t\t\n      DUP2 \t\t\t\n      SWAP1 \t\t\t\n      POP \t\t\t\n    tag 284\t\t\t\n      JUMPDEST \t\t\t\n      PUSH [tag] 285\t\t\t\n      PUSH [tag] 286\t\t\t\n      DUP6 \t\t\t\n      PUSH [tag] 118\t\t\t\n      JUMP \t\t\t\n    tag 286\t\t\t\n      JUMPDEST \t\t\t\n      DUP4 \t\t\t\n      ADD \t\t\t\n      DUP3 \t\t\t\n      PUSH [tag] 127\t\t\t\n      JUMP \t\t\t\n    tag 285\t\t\t\n      JUMPDEST \t\t\t\n      POP \t\t\t\n      POP \t\t\t\n    tag 281\t\t\t\n      JUMPDEST \t\t\t\n      POP \t\t\t\n      POP \t\t\t\n      POP \t\t\t\n      JUMP \t\t\t\n    tag 129\t\t\t\n      JUMPDEST \t\t\t\n      PUSH 0\t\t\t\n      DUP3 \t\t\t\n      DUP3 \t\t\t\n      SHR \t\t\t\n      SWAP1 \t\t\t\n      POP \t\t\t\n      SWAP3 \t\t\t\n      SWAP2 \t\t\t\n      POP \t\t\t\n      POP \t\t\t\n      JUMP \t\t\t\n    tag 130\t\t\t\n      JUMPDEST \t\t\t\n      PUSH 0\t\t\t\n      PUSH [tag] 289\t\t\t\n      PUSH 0\t\t\t\n      NOT \t\t\t\n      DUP5 \t\t\t\n      PUSH 8\t\t\t\n      MUL \t\t\t\n      PUSH [tag] 129\t\t\t\n      JUMP \t\t\t\n    tag 289\t\t\t\n      JUMPDEST \t\t\t\n      NOT \t\t\t\n      DUP1 \t\t\t\n      DUP4 \t\t\t\n      AND \t\t\t\n      SWAP2 \t\t\t\n      POP \t\t\t\n      POP \t\t\t\n      SWAP3 \t\t\t\n      SWAP2 \t\t\t\n      POP \t\t\t\n      POP \t\t\t\n      JUMP \t\t\t\n    tag 131\t\t\t\n      JUMPDEST \t\t\t\n      PUSH 0\t\t\t\n      PUSH [tag] 291\t\t\t\n      DUP4 \t\t\t\n      DUP4 \t\t\t\n      PUSH [tag] 130\t\t\t\n      JUMP \t\t\t\n    tag 291\t\t\t\n      JUMPDEST \t\t\t\n      SWAP2 \t\t\t\n      POP \t\t\t\n      DUP3 \t\t\t\n      PUSH 2\t\t\t\n      MUL \t\t\t\n      DUP3 \t\t\t\n      OR \t\t\t\n      SWAP1 \t\t\t\n      POP \t\t\t\n      SWAP3 \t\t\t\n      SWAP2 \t\t\t\n      POP \t\t\t\n      POP \t\t\t\n      JUMP \t\t\t\n    tag 75\t\t\t\n      JUMPDEST \t\t\t\n      PUSH [tag] 293\t\t\t\n      DUP3 \t\t\t\n      PUSH [tag] 84\t\t\t\n      JUMP \t\t\t\n    tag 293\t\t\t\n      JUMPDEST \t\t\t\n      PUSH FFFFFFFFFFFFFFFF\t\t\t\n      DUP2 \t\t\t\n      GT \t\t\t\n      ISZERO \t\t\t\n      PUSH [tag] 294\t\t\t\n      JUMPI \t\t\t\n      PUSH [tag] 295\t\t\t\n      PUSH [tag] 102\t\t\t\n      JUMP \t\t\t\n    tag 295\t\t\t\n      JUMPDEST \t\t\t\n    tag 294\t\t\t\n      JUMPDEST \t\t\t\n      PUSH [tag] 296\t\t\t\n      DUP3 \t\t\t\n      SLOAD \t\t\t\n      PUSH [tag] 66\t\t\t\n      JUMP \t\t\t\n    tag 296\t\t\t\n      JUMPDEST \t\t\t\n      PUSH [tag] 297\t\t\t\n      DUP3 \t\t\t\n      DUP3 \t\t\t\n      DUP6 \t\t\t\n      PUSH [tag] 128\t\t\t\n      JUMP \t\t\t\n    tag 297\t\t\t\n      JUMPDEST \t\t\t\n      PUSH 0\t\t\t\n      PUSH 20\t\t\t\n      SWAP1 \t\t\t\n      POP \t\t\t\n      PUSH 1F\t\t\t\n      DUP4 \t\t\t\n      GT \t\t\t\n      PUSH 1\t\t\t\n      DUP2 \t\t\t\n      EQ \t\t\t\n      PUSH [tag] 299\t\t\t\n      JUMPI \t\t\t\n      PUSH 0\t\t\t\n      DUP5 \t\t\t\n      ISZERO \t\t\t\n      PUSH [tag] 300\t\t\t\n      JUMPI \t\t\t\n      DUP3 \t\t\t\n      DUP8 \t\t\t\n      ADD \t\t\t\n      MLOAD \t\t\t\n      SWAP1 \t\t\t\n      POP \t\t\t\n    tag 300\t\t\t\n      JUMPDEST \t\t\t\n      PUSH [tag] 301\t\t\t\n      DUP6 \t\t\t\n      DUP3 \t\t\t\n      PUSH [tag] 131\t\t\t\n      JUMP \t\t\t\n    tag 301\t\t\t\n      JUMPDEST \t\t\t\n      DUP7 \t\t\t\n      SSTORE \t\t\t\n      POP \t\t\t\n      PUSH [tag] 298\t\t\t\n      JUMP \t\t\t\n    tag 299\t\t\t\n      JUMPDEST \t\t\t\n      PUSH 1F\t\t\t\n      NOT \t\t\t\n      DUP5 \t\t\t\n      AND \t\t\t\n      PUSH [tag] 302\t\t\t\n      DUP7 \t\t\t\n      PUSH [tag] 117\t\t\t\n      JUMP \t\t\t\n    tag 302\t\t\t\n      JUMPDEST \t\t\t\n      PUSH 0\t\t\t\n    tag 303\t\t\t\n      JUMPDEST \t\t\t\n      DUP3 \t\t\t\n      DUP2 \t\t\t\n      LT \t\t\t\n      ISZERO \t\t\t\n      PUSH [tag] 305\t\t\t\n      JUMPI \t\t\t\n      DUP5 \t\t\t\n      DUP10 \t\t\t\n      ADD \t\t\t\n      MLOAD \t\t\t\n      DUP3 \t\t\t\n      SSTORE \t\t\t\n      PUSH 1\t\t\t\n      DUP3 \t\t\t\n      ADD \t\t\t\n      SWAP2 \t\t\t\n      POP \t\t\t\n      PUSH 20\t\t\t\n      DUP6 \t\t\t\n      ADD \t\t\t\n      SWAP5 \t\t\t\n      POP \t\t\t\n      PUSH 20\t\t\t\n      DUP2 \t\t\t\n      ADD \t\t\t\n      SWAP1 \t\t\t\n      POP \t\t\t\n      PUSH [tag] 303\t\t\t\n      JUMP \t\t\t\n    tag 305\t\t\t\n      JUMPDEST \t\t\t\n      DUP7 \t\t\t\n      DUP4 \t\t\t\n      LT \t\t\t\n      ISZERO \t\t\t\n      PUSH [tag] 306\t\t\t\n      JUMPI \t\t\t\n      DUP5 \t\t\t\n      DUP10 \t\t\t\n      ADD \t\t\t\n      MLOAD \t\t\t\n      PUSH [tag] 307\t\t\t\n      PUSH 1F\t\t\t\n      DUP10 \t\t\t\n      AND \t\t\t\n      DUP3 \t\t\t\n      PUSH [tag] 130\t\t\t\n      JUMP \t\t\t\n    tag 307\t\t\t\n      JUMPDEST \t\t\t\n      DUP4 \t\t\t\n      SSTORE \t\t\t\n      POP \t\t\t\n    tag 306\t\t\t\n      JUMPDEST \t\t\t\n      PUSH 1\t\t\t\n      PUSH 2\t\t\t\n      DUP9 \t\t\t\n      MUL \t\t\t\n      ADD \t\t\t\n      DUP9 \t\t\t\n      SSTORE \t\t\t\n      POP \t\t\t\n      POP \t\t\t\n      POP \t\t\t\n    tag 298\t\t\t\n      JUMPDEST \t\t\t\n      POP \t\t\t\n      POP \t\t\t\n      POP \t\t\t\n      POP \t\t\t\n      POP \t\t\t\n      POP \t\t\t\n      JUMP \t\t\t\n    .data\n"
}